:020000041000EA
:1000000000B5324B212058609868022188439860DF
:10001000D860186158612E4B002199600221596106
:100020000121F02299502B49196001219960352056
:1000300000F044F80222904214D00621196600F024
:1000400034F8196E01211966002018661A6600F04E
:100050002CF8196E196E196E052000F02FF8012189
:100060000842F9D1002199601B49196000215960AB
:100070001A491B48016001219960EB211966A021F2
:10008000196600F012F800219960164914480160C1
:100090000121996001BC002800D000471248134993
:1000A000086003C880F30888084703B5996A0420EC
:1000B0000142FBD001200142F8D103BD02B5186610
:1000C0001866FFF7F2FF186E186E02BD00000240BE
:1000D000000000180000070000035F00212200005C
:1000E000F4000018222000A00001001008ED00E03C
:1000F00000000000000000000000000074B24E7A12
:1001000000200420F7010010CB010010CD010010E9
:10011000C9010010C9010010C9010010C901001077
:10012000C9010010C9010010C9010010CF01001061
:10013000C9010010C9010010D1010010D301001045
:10014000C1010010C1010010C1010010C101001067
:10015000C1010010C1010010C1010010C101001057
:10016000C1010010C1010010C1010010C101001047
:10017000C1010010C1010010C1010010C101001037
:10018000C1010010C1010010C1010010C101001027
:10019000C1010010C1010010C1010010C101001017
:1001A000C1010010C1010010C1010010C101001007
:1001B000C1010010C1010010C1010010C1010010F7
:1001C000EFF30580103800BE00BE00BE00BE00BECA
:1001D00000BE00BEF2EB88715C93001080930010AB
:1001E0003802001090A31AE71E481F49086006C88D
:1001F00081F3088810471D480068002801D019487D
:10020000F3E70DA40ECC002902D000F012F8F9E7B4
:100210001749184A002000E001C19142FCD116495B
:100220008847164988471649884700BEFDE701C937
:1002300001C29A42FBD3704780930010C000002097
:10024000A011002060A40010000004200000042081
:1002500060A4001000100420001004200000000022
:10026000704700000000000008ED00E0000000D032
:10027000A0110020D0200020A9590010D5020010A4
:10028000A1590010F8B5C04606480749091A8B1055
:10029000C90FC91810B5491003D0044B002B00D06A
:1002A000984710BDA0110020A01100200000000000
:1002B000054B10B5002B03D00449054800E000BFF2
:1002C000FFF7E2FF10BDC046000000006C1F0020D9
:1002D0004C88001070B505F0A5FC00F019F80A492B
:1002E000040000F019FF094D200001F0BDFF0028B7
:1002F000FAD0280005F068FD200002F039F821004E
:10030000200001F0DDFEEFE700C003405088001040
:1003100030B5084C08482268002553009B18DB00C4
:1003200019180438C018112301320D8222600361AC
:1003300030BDC046281400203C1F0020F0B5DE462A
:10034000454657464E46E0B50500802001438B46A2
:10035000286983B0C046C046C0460121D0278140ED
:100360003F06B961C046C046C046002A32D0924618
:100370001C009A446B469E1D07236B44994601233B
:10038000984600235A4633704B461A702B69C04674
:10039000C046C04642469A40BA61C046C046C046C2
:1003A00001224946E86808F0FFF9012332000021E4
:1003B000E86808F0C1F92B69C046C046C04642460D
:1003C0009A407A61C046C046C046337823700134F3
:1003D0005445D6D12A69C046C046C0460123934041
:1003E000D02212065361C046C046C04603B0F0BCDE
:1003F000BB46B246A946A046F0BDC046F0B557463A
:100400004E464546DE46E0B585B000AF3B600C2366
:10041000FB189946150002234A46040013808846BB
:100420000369C046C046C046012292469A40130066
:10043000D022120693469361C046C046C0460222AF
:100440004946C06808F0B0F92369C046C046C046B6
:1004500052469A4013005A465361C046C046C046B1
:100460004A46BB4B13802369C046C046C04652462D
:100470009A4013005A469361C046C046C0460222C5
:100480004946E06808F090F92369C046C046C04676
:1004900052469A4013005A465361C046C046C04671
:1004A0000B23FE1800234A463370943313702369DC
:1004B000C046C046C04652469A4013005A46936111
:1004C000C046C046C04601224946E06808F06CF9C3
:1004D000012332000021E06808F02EF92369C046AC
:1004E000C046C04652469A4013005A465361C04621
:1004F000C046C0461423494632780B70943B1343E0
:100500004B702369C046C046C04652469A4013000D
:100510005A469361C046C046C0460222E06808F0D1
:1005200043F92369C046C046C04652469A4013006C
:100530005A465361C046C046C0466A466B1C7B6043
:100540000733DB08DB00D31AEB469D4612236A46CD
:10055000EA461370002D04D0501C41462A0003F0D7
:1005600083FD2369C046C046C04601252A009A4043
:100570001300D022120690469361C046C046C04682
:100580005146E0687A6808F00FF92369C046C04612
:10059000C0462A009A40130042465361C046C046F6
:1005A000C0464A466B4BDD4613802369C046C046B1
:1005B000C0462A009A40130042469361C046C04696
:1005C000C04602224946E06808F0EEF82369C046BA
:1005D000C046C0469D4043465D61C046C046C046D9
:1005E00000239B4601339A465B4D04E0013DADB2CA
:1005F000002D00D1AAE05B468A2233704B461A7068
:100600002369C046C046C04652469A401300D022D5
:10061000120690469361C046C046C0460122494634
:10062000E06808F0C1F8012332000021E06808F01A
:1006300083F82369C046C046C04652469A4013001C
:1006400042465361C046C046C04633785B07CDD5AD
:1006500002234A4613802369C046C046C04652461C
:100660009A40130042469361C046C046C0460222EB
:100670004946E06808F098F82369C046C046C0467D
:1006800052469A40130042465361C046C046C04697
:100690005B464A463370C42313702369C046C04684
:1006A000C04652469A40130042469361C046C04637
:1006B000C04601224946E06808F076F8012332007E
:1006C0000021E06808F038F82369C046C046C046FB
:1006D00052469A40130042465361C046C046C04647
:1006E00033783D684A462B705B463370C2231370E3
:1006F0002369C046C046C04652469A40130042464F
:100700009361C046C046C04601224946E06808F0F1
:100710004BF8012332000021E06808F00DF823694E
:10072000C046C046C04652469A40130042465361F6
:10073000C046C046C046002033786B70BD4605B049
:10074000F0BCBB46B246A946A046F0BD0320F5E783
:100750000A0400000203000088130000F0B55746A9
:100760004E464546DE46E0B58BB002AF1600BB6094
:10077000182238239B18DB191B7804007B613C236B
:100780009B18DB191B7888467B60FB6C002B00D123
:1007900078E21B787A6912019B18DBB23B611C235B
:1007A000FB189B4602235A4613802369C046C04665
:1007B000C046012291469A401300D022120692466A
:1007C0009361C046C046C04602225946E06807F021
:1007D000EBFF2369C046C046C0464A469A40130014
:1007E00052465361C046C046C0465A469C4B138091
:1007F0002369C046C046C0464A469A401300524646
:100800009361C046C046C04602225946E06807F0E0
:10081000CBFF2369C046C046C0464A469A401300F3
:1008200052465361C046C046C0461B23FD180023F4
:100830005A462B70943313702369C046C046C04695
:100840004A469A40130052469361C046C046C0468D
:1008500001225946E06807F0A7FF01232A00002182
:10086000E06807F069FF2369C046C046C0464A46B3
:100870009A40130052465361C046C046C0461423F6
:1008800059462A780B70943B13434B702369C0463A
:10089000C046C0464A469A40130052469361C0463D
:1008A000C046C0460222E06807F07EFF2369C046CA
:1008B000C046C0464A469A40130052465361C0465D
:1008C000C046C0466A46731CFB600733DB08DB008A
:1008D000D31AEA469D4602AB994612234A46137044
:1008E000002E05D0092032004146684403F0BCFBCD
:1008F0002369C046C046C046012632009A40130014
:10090000D022120690469361C046C046C046494672
:10091000E068FA6807F048FF2369C046C046C04651
:1009200032009A40130042465361C046C046C0465A
:100930001A2399465B464A46D5461A703A695A7058
:100940002369C046C046C04632009A401300424662
:100950009361C046C046C04602225946E06807F08F
:1009600023FF2369C046C046C04632009A401300A8
:1009700042465361C046C046C0465A46394B138072
:100980002369C046C046C04632009A401300424622
:100990009361C046C046C04602225946E06807F04F
:1009A00003FF2369C046C046C04632009A40130088
:1009B00042465361C046C046C04600235A462B708B
:1009C0009A3313702369C046C046C04632009A402D
:1009D000130042469361C046C046C04601225946B4
:1009E000E06807F0E1FE01232A000021E06807F03B
:1009F000A3FE2369C046C046C04632009A40130099
:100A000042465361C046C046C0465B4649461970DF
:100A100080232A785B4213435A4653702369C046A9
:100A2000C046C04632009A40130042469361C04619
:100A3000C046C04602225946E06807F0B5FE236969
:100A4000C046C046C0469E4043465E61C046C04662
:100A5000C046FA23DB009946002301269A460EE0A1
:100A6000087F0000020C00001E4200D0FFE00123BE
:100A70005B429C46E1444B46002B00D1F7E05346D5
:100A800088222B705B461A702369C046C046C04658
:100A900032009A401300D022120690469361C0465D
:100AA000C046C04601225946E06807F07DFE01239A
:100AB0002A000021E06807F03FFE2369C046C046D7
:100AC000C04632009A40130042465361C046C046B9
:100AD000C04630222B781A42C6D053465A462B7055
:100AE0008C2313702369C046C046C04632009A402A
:100AF000130042469361C046C046C0460122594693
:100B0000E06807F051FE01232A000021E06807F0A9
:100B100013FE2369C046C046C04632009A40130007
:100B200042465361C046C046C0462B789A461323BE
:100B300052461A4091465246134200D0ABE0BB6881
:100B4000002B00D1A0E0BB6C002B00D19CE04B46F9
:100B50005A462B70942313702369C046C046C04682
:100B600032009A40130042469361C046C046C046D8
:100B700001225946E06807F017FE01232A000021F0
:100B8000E06807F0D9FD2369C046C046C046320080
:100B90009A40130042465361C046C046C046BB6CF3
:100BA0002A781B78934200D278E0BB6C12211A702D
:100BB0007B6920000093BB68FFF7C0FB4B465A4699
:100BC0002B70982313702369C046C046C04632007C
:100BD0009A40130042469361C046C046C046012277
:100BE0005946E06807F0E0FD01232A000021E06893
:100BF00007F0A2FD2369C046C046C0469E4043465A
:100C00005E61C046C046C04607232A78514613405D
:100C100008220A40F96C002900D00B70002A45D147
:100C20007A68002A25D0BA6C1278012A39D01BD9EB
:100C3000002B19D1BD68023A5B4629002000D2B2D0
:100C4000FFF7DCFB002812D1AC46BB6C1B78634479
:100C50009A1E11785A461278914205D1013B1A78B2
:100C60005B465B789A4204D00723994601E0032350
:100C700099464846BD4609B0F0BCBB46B246A946B7
:100C8000A046F0BD002385E553461B07DB0F5B0044
:100C9000DBB29946EDE701239946EAE7042399463A
:100CA000E7E7042BE0D1FF239946E2E702239946C8
:100CB000DFE7C046F0B5DE4657464E464546E0B54E
:100CC00091B00CAB9B46170000235A4613700DAB36
:100CD0009A469C2352460600137088460369069183
:100CE000C046C046C04601242200D0259A402D06A9
:100CF000AA61C046C046C04601225146C06807F0FE
:100D000053FD01235A460021F06807F015FD3369B1
:100D1000C046C046C04622009A406A61C046C046EE
:100D2000C0465B4650461A781C2303706333134059
:100D300043703369C046C046C04622009A40AA614B
:100D4000C046C046C04602225146F06807F02CFD5E
:100D50003369C046C046C0469C406C61C046C04630
:100D6000C046932352461370002F0CD07BB2994695
:100D700043461A7801230993042A00D897E10023F7
:100D80000022089383E10023089301330993002391
:100D9000994607974B461F2B00DDCDE04B460725B4
:100DA0001D4006AB5D754B4651462C00DB100233EF
:100DB000DBB21A01AA184A70621E94411C19E2B2F1
:100DC00005921A00524404920922D31A2A01DBB276
:100DD000AA1806A98C461627674459463B701A2361
:100DE0004A700B703369C046C046C04601242200D9
:100DF0009A401300D022120690469361C046C04626
:100E0000C0460222F06807F0CFFC3369C046C046F6
:100E1000C04622009A40130042465361C046C04675
:100E2000C046002306AA94460393153363440295F3
:100E3000019351463000049B059A0097FFF78EFC02
:100E4000050002282DD0002800D07BE04B4620244E
:100E50001F2B00DD7EE05246702353709378D278CA
:100E6000514653405246127930005340524652790F
:100E700053405246937106AA9446232307226344A3
:100E8000FFF7BCFA051E5CD106AB587506A82221F7
:100E90008446614404910921A1460022032305915F
:100EA00097E706AB9C46172700235A4667443B70DA
:100EB0009C3313703369C046C046C04622009A4036
:100EC000130042469361C046C046C04601225946BF
:100ED000F06807F069FC01233A000021F06807F090
:100EE0002BFC3369C046C046C0469C404246546114
:100EF000C046C046C0463A78930623D41F210B0053
:100F0000134011421AD01A00914568DA59B2894645
:100F10000721013A0A401100481E8141DB085B1895
:100F20000121914052460133D25C0A435146CA54D2
:100F30004B461F2B00DC31E74C468CE72022202358
:100F4000E2E70325280011B0F0BCBB46B246A94633
:100F5000A046F0BD53469A78089B882A00D1BBE092
:100F600006998C4663445A705246D2789A7052461B
:100F70001279DA70524652791A713B780893032B32
:100F800000D0BBE006AB5B7D002B00D0B6E006AA2C
:100F90009446049C1E330122210030006344FFF775
:100FA0002DFA0028CDD153469A7863789A4200D022
:100FB000A6E05346DA78A3789A4200D0A0E0042253
:100FC000150023781D401A4200D19BE0099B013394
:100FD000DBB20993022B44D0079F032B01D00525D8
:100FE000B0E79723524613703A00303A53B2DB43CE
:100FF000DB1713405BB299460623062208934B4643
:1010000007211940481E8141D8100918C9B200298A
:1010100071D0069B9C4653466244507898700129D3
:1010200000D1B6E69078D870022900D1B1E6081C4C
:1010300004295ED8042300250221C0B203318C4666
:101040005146D478CC54042803D1534661461279D2
:101050005A54002D00D19CE64B4608335BB29946AA
:1010600097E69523524613700023079F9946002F59
:1010700000D18FE63A00183A53B2DB43DB17134036
:101080005BB29946069B032219780729B7D98821B4
:10109000534699704B4681391940481E8141D810FA
:1010A0000918C9B2002906D10823994671E6002320
:1010B00000220893A3E7069B9C465346624450785F
:1010C000D8700129C8D0907818710229C4D9052395
:1010D000032001250321B1E7069A94465246D278AF
:1010E00063445A70524612799A7052465279DA70B5
:1010F00043E704209EE7002399464AE6012521E7BD
:1011000007251FE70999069A8C46D3724B00634462
:101110000133137016E7C046F0B5A34ED0258027E3
:1011200083B00400C660FA202D067F03AF61800003
:1011300001F04CFF32206F6101F048FF112001F0F7
:101140003BF980239B026B6230006B61974907F08B
:101150001BFA0222964973680A603168134005320F
:101160005140C8320A40934912200A60924A012134
:10117000136001F007F90121132001F003F90121A7
:10118000102001F0FFF86A468C4B93802369C0461B
:10119000C046C046012632009A40AA61C046C046F9
:1011A000C0460222E06801A907F0FEFA2369C046A2
:1011B000C046C04632009A406A61C046C046C0463A
:1011C0006A467F4B93802369C046C046C0463200C2
:1011D0009A40AA61C046C046C0460222E06801A902
:1011E00007F0E2FA2369C046C046C04632009A4082
:1011F0006A61C046C046C0466A46724B9380236906
:10120000C046C046C04632009A40AA61C046C046A9
:10121000C0460222E06801A907F0C6FA2369C04669
:10122000C046C04632009A406A61C046C046C046C9
:10123000D6236A469B0093802369C046C046C046B9
:1012400032009A40AA61C046C046C0460222E06809
:1012500001A907F0A9FA2369C046C046C04632007A
:101260009A406A61C046C046C0466A46564B938063
:101270002369C046C046C04632009A40AA61C046B3
:10128000C046C0460222E06801A907F08DFA236932
:10129000C046C046C04632009A406A61C046C04659
:1012A000C0466A46494B93802369C046C046C04643
:1012B00032009A40AA61C046C046C0460222E06899
:1012C00001A907F071FA2369C046C046C046320042
:1012D0009A406A61C046C046C0466A463C4B93800D
:1012E0002369C046C046C04632009A40AA61C04643
:1012F000C046C0460222E06801A907F055FA2369FA
:10130000C046C046C04632009A406A61C046C046E8
:10131000C0466B46DF1C00236A463B70A83313713E
:101320002369C046C046C04632009A40AA61C04602
:10133000C046C046012201A9E06807F035FA012342
:101340003A000021E06807F0F7F92369C046C0467B
:10135000C04632009A406A61C046C046C0463B78EB
:10136000DA4392071DD0694628220A7103221343EB
:101370004B712369C046C046C04632009A40AA61FC
:10138000C046C046C0460222E06801A907F00CFA38
:101390002369C046C046C0469E406E61C046C046F6
:1013A000C04603B0F0BDC04600C0034040420F003D
:1013B00004F0034000D0034004E00340020F0000AB
:1013C0005480FFFF56A9FFFF5AE8FFFF2A400000A4
:1013D000223D0000F0B557464E46DE464546E0B594
:1013E0008DB002AFFA61BB60202230239B18DB195D
:1013F0001E7840239B18DB191B7804007B61442373
:101400009B18DB191B78B9617B60FB6D002B00D149
:1014100033E21B787A6912019B18DBB23B6124230B
:10142000FB189A460223524613802369C046C046E1
:10143000C046012290469A401300D02212069146DF
:101440009361C046C046C04602225146E06807F09C
:10145000ABF92369C046C046C04642469A401300D5
:101460004A465361C046C046C0465246794B138037
:101470002369C046C046C04642469A4013004A46C9
:101480009361C046C046C04602225146E06807F05C
:101490008BF92369C046C046C04642469A401300B5
:1014A0004A465361C046C046C0462323FD18002368
:1014B00052462B70943313702369C046C046C04611
:1014C00042469A4013004A469361C046C046C04611
:1014D00001225146E06807F067F901232A00002144
:1014E000E06807F029F92369C046C046C046424675
:1014F0009A4013004A465361C046C046C046142372
:1015000051462A780B70943B13434B702369C046B5
:10151000C046C04642469A4013004A469361C046C0
:10152000C046C0460222E06807F03EF92369C04683
:10153000C046C04642469A4013004A465361C046E0
:10154000C046C0466A46731CFB600733DB08DB00FD
:10155000D31AEB469D4602AB994612234A461370B6
:10156000002E05D009203200B968684402F07CFDE5
:101570002369C046C046C046012632009A40130087
:10158000D022120690469361C046C046C0464946E6
:10159000E068FA6807F008F92369C046C046C0460B
:1015A00032009A40130042465361C046C046C046CE
:1015B0001A23994653464A46DD461A703A695A70CC
:1015C0002369C046C046C04632009A4013004246D6
:1015D0009361C046C046C04602225146E06807F00B
:1015E000E3F82369C046C046C04632009A40130063
:1015F00042465361C046C046C0460223524613705D
:10160000BB6953702369C046C046C04632009A4049
:10161000130042469361C046C046C046022251466E
:10162000E06807F0C1F82369C046C046C0463200F2
:101630009A40130042465361C046C046C046BB694B
:101640000C2B00D11BE1FA23DB0099460023012675
:101650009B460CE0087F00001E4200D002E10123FF
:101660005B429C46E1444B46002B00D1FAE05B46CE
:1016700088222B7053461A702369C046C046C04664
:1016800032009A401300D022120690469361C04661
:10169000C046C04601225146E06807F085F80123A4
:1016A0002A000021E06807F047F82369C046C046D9
:1016B000C04632009A40130042465361C046C046BD
:1016C000C0462B78FA691342C6D05B4652462B704F
:1016D0008C2313702369C046C046C04632009A402E
:1016E000130042469361C046C046C046012251469F
:1016F000E06807F059F801232A000021E06807F0AC
:101700001BF82369C046C046C04632009A40130009
:1017100042465361C046C046C0462B789B461323C1
:101720005A461A4091465A46134200D0FAE07B6D61
:10173000002B00D1EFE0BB6D002B00D1EBE04B465E
:1017400052462B70942313702369C046C046C0468E
:1017500032009A40130042469361C046C046C046DC
:1017600001225146E06807F01FF801232A000021FA
:10177000E06806F0E1FF2369C046C046C04632007B
:101780009A40130042465361C046C046C046BB6DF6
:101790002A781B78934200D2CDE0BB6D12211A70DB
:1017A0007B69200000937B6DFEF7C8FD4B465246D7
:1017B0002B70982313702369C046C046C046320080
:1017C0009A40130042469361C046C046C04601227B
:1017D0005146E06806F0E8FF01232A000021E06896
:1017E00006F0AAFF2369C046C046C0469E40434655
:1017F0005E61C046C046C04607232A78594613405A
:1018000008220A40F96D002900D18EE00B70002AF1
:1018100000D08DE07A68002A26D0BA6D1278012AAD
:1018200000D18BE01BD9002B19D1023A534620007E
:10183000796DD2B2FEF7E2FD002813D17A6DBB6D4F
:1018400094461B7863449A1E11785246127891424E
:1018500005D1013B1A7853465B789A4204D007239E
:10186000994601E0032399464846BD460BB0F0BCBB
:10187000BB46B246A946A046F0BD0023CAE50022F9
:1018800051462A709A3223690A70C046C046C04643
:1018900032009A40130042469361C046C046C0469B
:1018A0000122E06806F080FF01232A000021E068A1
:1018B00006F042FF2369C046C046C04632009A4047
:1018C000130042465361C046C046C046534649468F
:1018D000197080232A785B42134352465370236960
:1018E000C046C046C04632009A401300424693614B
:1018F000C046C046C04602225146E06806F054FF8A
:101900002369C046C046C0469E4043465E61C0460D
:10191000C046C04697E65B461B07DB0F5B00DBB2A9
:101920009946A1E7012399469EE7002A00D171E775
:101930000223994698E70423994695E7042B00D0A3
:101940008DE7FF2399468FE7F0B5CE46474680B531
:10195000070083B0374804F037FA3B78002B1ED0DD
:10196000354B00249846354B7E1C994601AD0FE05F
:10197000484604F029FA325D4146280003F0CEFFC4
:10198000280004F021FA01343A78E3B29A4209D9E6
:10199000335D0F2BECD9202004F048F9EBE7264B00
:1019A00001AD9846264804F08BF9264804F00CFA5D
:1019B000FA7A0F2A1FD94146280003F0AFFF28000A
:1019C00004F002FA7F23FA7A1340402B04D91E4810
:1019D00004F0FAF91D4816E01D4A1B48D45C04F0D7
:1019E000F3F9082C0CD8002CF4D0082C20D8194B73
:1019F000A4001B599F46302004F018F9FA7ADAE760
:101A0000FF2CE7D1144804F0DFF903B0C0BCB9469D
:101A1000B046F0BD1148F6E71148F4E71148F2E787
:101A20001148F0E71148EEE71148ECE71148EAE702
:101A30001148E8E7FC8A0010708A0010148B00102F
:101A4000B48A0010088B0010188B00108C890010CD
:101A5000688E0010E08D00100C8A0010F0890010D4
:101A6000CC890010C0890010B48900109C89001036
:101A7000FC890010308A001068890010F0B5DE463D
:101A800057464E464546E0B59FB00F9200220A9059
:101A900093460E910C931F2B00D9F7E19B00DBB20C
:101AA0000B9303231A0001330D9301230693DF4B9D
:101AB00016000993DE4B0893DE4B1193DE4B9A46DA
:101AC000F3B29C460B9C0793069B6444E4B2002B44
:101AD00000D15AE10C9B092B00D97AE1D74D28009F
:101AE00004F072F90C9A089914A803F017FF14A8CF
:101AF00004F06AF9280004F067F9092C00D84CE1D9
:101B0000632C00D961E1099804F05EF9220008997C
:101B100014A803F003FF14A804F056F9099804F080
:101B200053F9069B002B2AD0602216AB1A700F992E
:101B30000B9A0A985A700A789A704A78DA708A78FA
:101B40001A71CA785A710A799A714A790E99DA71BA
:101B50004A781A728A785A72CA789A720A790E2169
:101B6000DA720022059204920392029201920C32E0
:101B700000920432FFF72EFC002800D0A2E11223CD
:101B800034210CAAD37752181E33137035220CABB4
:101B90009B180CAA94461C7036230A9C0222200033
:101BA000634419A9FEF72AFC002800D0FAE00123BB
:101BB0000CAA944603931E336344009319AB02901E
:101BC0000190042219002000FEF7C8FD051E00D078
:101BD00067E103239A4CB1469846260019AF13E0FB
:101BE000504604F0F1F82200310014A803F096FEEC
:101BF00014A804F0E9F843462B40032B0BD0013521
:101C0000EDB20137102D0ED03C780F2CE8D92020F2
:101C100004F00CF8E7E701352020EDB204F006F8F7
:101C20000137102DF0D1069B34004E46002B51D0C9
:101C30003B223C210CAB9B180CAA52182D39107872
:101C40000A0002402A3590460CAA52190D001B7852
:101C500012789C4607091B099543AB4200D104E169
:101C600004219A0089460A4041460225490029403C
:101C70000A43AC4610924A46590011406246104051
:101C80007A10084311000122114008434146109A7E
:101C9000013D3D402A434D106146109201220D4006
:101CA000B9101140109A000229434D46024348469C
:101CB0001D405B1003404046294365468010284084
:101CC0000343FF1009043B431B060A431A43069BC8
:101CD00015929B460D9B042B00D1A3E005213000FB
:101CE00001F0C4FD47B2032F00D197E0079B052107
:101CF000581CC0B23E0001F0B9FD874200D1B1E0EE
:101D0000FBB298464F4804F05FF815AB9F5D012683
:101D1000089DBA082900324014A803F0FFFD14A85A
:101D200004F052F8202003F081FF7A0829003240A5
:101D300014A803F0F3FD14A804F046F8202003F0E3
:101D400075FF320029003A4014A803F0E7FD14A8FB
:101D500004F03AF83C4804F037F85B46002B59D1C0
:101D60004346032B03D0012F38D0062F36D03748F7
:101D700003F0A6FF079E013EF2B276B20792731CF3
:101D80001CD094460B9C6444E4B2119804F01CF8F7
:101D900000230693092C00D9B2E6284D280004F050
:101DA00013F8B3E62A4804F00FF82A4804F00CF8B8
:101DB000079E013E76B2731C00D081E61FB0F0BCD6
:101DC000BB46B246A946A046F0BD202003F02EFF38
:101DD0009CE6099803F0F8FF184D83E61E48199E0B
:101DE00003F0F2FFFF222100324014A803F096FD19
:101DF00014A803F0E9FF194803F0E6FF40220CABFA
:101E00009B1821001A7814A803F088FD14A803F089
:101E1000DBFFACE7124803F0D7FFA1E7032303265B
:101E200098466FE7079B1E0098466BE7288B0010CB
:101E30002C8B0010308B0010148B0010348B001092
:101E4000708A00106C8B0010708B0010B48A001028
:101E5000548B0010948800109C8B0010A88B0010ED
:101E6000748B001015ABDF5D7DE70F25A9464D464D
:101E700012096A40D2B2904500D0F1E66246914321
:101E8000CA1B511E8A41D2B20692E9E6272B95D889
:101E90001B01803BDBB20B930F231A0001330D9320
:101EA00003E61B4803F090FF072D15D8194BAC0033
:101EB0001B599F46184879E7184877E7184875E78F
:101EC000184873E70500184803F07EFF072D1CD85B
:101ED000164BAD005B599F46154867E7154865E707
:101EE000144803F071FF0A2003F0A0FE66E70D48D6
:101EF000F7E70A48F5E70848F3E70F48F1E708482D
:101F0000EFE70E4852E70D48EBE70948E9E7C0461E
:101F1000548B0010048E0010FC880010CC88001038
:101F2000B088001010890010388B0010248E00102B
:101F30002C890010808800109488001050890010AF
:101F4000F0B5DE46574645464E46E0B591B007909F
:101F50004B4803F0B5FE4B4B00259A46122304AACA
:101F6000D3751E33944613771E23079C55772000A4
:101F7000022263440BA9FEF741FA002800D079E061
:101F8000012304AA944603931633634400930BABD6
:101F900002900190042219002000FEF7DFFB834627
:101FA00000284DD10700AB46374B0BAE9946374B57
:101FB00006950593364B9846364B04935B46DBB249
:101FC000092B39D8484603F0FFFE5A4605990AA85E
:101FD00003F0A4FC0AA803F0F7FE484603F0F4FE61
:101FE0000024355D0F2D23D8504603F0EDFE2A0066
:101FF00041460AA803F092FC01340AA803F0E4FE6B
:10200000042CEED1049803F05BFE01239C460437B8
:10201000FFB20436E344102FD0D1069D0435102DB5
:102020009CD111B0F0BCBB46B246A946A046F0BD5B
:10203000202003F0FBFDDAE7202003F0F7FDC4E7E2
:10204000154803F0C1FE5B46072B11D8134A9B00CD
:10205000D3589F46124803F0B7FEE2E71148FAE76B
:102060001148F8E71148F6E71148F4E71148F2E79C
:102070001148F0E7084803F0A7FE1048EBE7C04618
:10208000008C0010148B0010288B00102C8B00107B
:10209000708A0010B48A0010548B0010448E001017
:1020A0008088001010890010FC880010CC88001077
:1020B000B0880010508900102C89001094880010FE
:1020C000F0B5CE46474680B50D00040089B0080043
:1020D000FFF73AFC7F23EA7A1340402B00D98FE0C8
:1020E0005C4AD35C062B00D1A9E000D9AEE0022BFC
:1020F00000D880E001226946524206928A83033B5F
:10210000554ADBB25548D65C03F0DAFD013E76B2A3
:10211000F6B23300013E2900200006AA76B2FFF78E
:10212000ADFC721CF4D15023173605AD6E442B80E4
:102130000222330029002000FEF760F9002809D1AF
:1021400003900290019000900023042229002000B7
:10215000FEF704FB13236B44994600234A46137091
:1021600090332B702369C046C046C04601273A0011
:102170009A401300D022120690469361C046C04692
:10218000C04601222900E06806F00EFB01234A4602
:102190000021E06806F0D0FA2369C046C046C04678
:1021A0003A009A40130042465361C046C046C046BA
:1021B0004B4610221B782A70083A93436B702369B0
:1021C000C046C046C0463A009A401300424693615A
:1021D000C046C046C04602222900E06806F0E4FA84
:1021E0002369C046C046C0469F4043465F61C04623
:1021F000C046C04607E0002B02D0194803F060FD3E
:10220000162605AD6E44174803F05AFD50230222EE
:102210002B80290033002000FEF7F0F8002809D1B8
:1022200003900290019000900023042229002000D6
:10223000FEF794FA09B0C0BCB946B046F0BD162608
:102240002000FFF77DFE05AD6E44DCE7073B012B68
:10225000D3D9D5E7688E0010648E0010B08B0010C3
:10226000148C0010B48A0010F0B5D6464F4646468E
:102270001123C0B586B06B449846022342461370C2
:102280006A4624331327937400236F449A463B70A5
:1022900005AD9C332B7004000369C046C046C046A0
:1022A000012632009A401300D02212069146936113
:1022B000C046C046C04601222900C06806F074FA34
:1022C00001233A000021E06806F036FA2369C0468F
:1022D000C046C04632009A4013004A465361C04689
:1022E000C046C0461C233A782B70633313406B7092
:1022F0002369C046C046C04632009A4013004A4691
:102300009361C046C046C04602222900E06806F03C
:102310004BFA2369C046C046C0469E404B465E61AC
:10232000C046C046C04607233B7053461221039364
:10233000029343460122009320002B000197694439
:10234000FEF70CFA00280DD143461B78022B05D06E
:1023500006B0E0BCBA46B146A846F0BD3878434264
:102360005841F5E7023843425841C0B2F0E7C04651
:1023700010B500220100FEF79DFC43425841C0B257
:1023800010BDC046094A83009A1810B5146840224F
:10239000544080322240064CC000A44663441A6078
:1023A000044B9C466044416010BDC04604C00140DF
:1023B00004D00140004001400123D0228340120696
:1023C00093629361094A83009A1811684022514030
:1023D00080320A400649C0008C4663441A60054BAF
:1023E0009C460523604443607047C04604C00140DA
:1023F00004D00140004001408023DB051868000F35
:102400007047C0460FB400B5084883B003F058FCCD
:10241000049B002B07D005A91800019103F0A6FA30
:10242000034803F04DFC012003F0B8FA548C00106F
:10243000648C001070B5EFF3108C72B60D4D2B68E4
:10244000002BFCD0BFF35F8F0724CB08C618C05CFD
:1024500001230C40A3401C000440034207D1184351
:102460003070BFF35F8F2C608CF3108870BD10004C
:10247000FFF7C8FF2C0100D0F8B54746CE46884686
:1024800080B5EFF3108C72B61C4D2C68002CFCD07C
:10249000BFF35F8F9A4222D807210126894602E0C6
:1024A0000132934218D34D4637001540AF40D4084F
:1024B0000119045D2742F3D110003C430C70BFF3B7
:1024C0005F8F00220D4B1A608CF3108800280EDB02
:1024D000C0BCB946B046F8BD01204042EFE7BFF3AB
:1024E0005F8F00232B608CF310880120404243460D
:1024F000002BEDD00898FFF785FFC0462C0100D0D7
:10250000044A1078431CDBB2172B00D91023137038
:102510007047C046D810002010B5064B064C82B05C
:102520000100009318221F232000FFF7A5FF02B02F
:1025300010BDC046688C0010CC1A00200021044B4E
:10254000044ABFF35F8F02C39342FAD17047C0467B
:10255000000100D0800100D0054B064A1360064AF6
:10256000136053609360D36013615361936170474C
:102570008080808000E400E004E400E01F23184035
:102580001E3B8340002905D0C021044A4900535016
:1025900013607047802201498B50FAE700E100E0A8
:1025A00001228240034B1B6813405A1E9341D8B24C
:1025B0007047C04600E100E001238340014A1360F8
:1025C0007047C04600E200E0064B10309B68800078
:1025D000C358054A00209B1A2F229A424041C0B29C
:1025E0007047C04600ED00E0DC10002070B50D0023
:1025F000EFF3108672B60F4A1368002BFCD0BFF3BE
:102600005F8F0D4B10309B6884001B590B4A93421F
:1026100003D09D4201D000F0FFFF074B9B681D5186
:10262000BFF35F8FBFF35F8F0022024B1A6086F308
:10263000108870BD240100D000ED00E0C101001041
:10264000F0B557464E46DE464546E0B585B0060035
:1026500000911700EFF3108B72B66A4A1368002BD3
:10266000FCD0BFF35F8F0025674B5D579A46002D66
:1026700000DAA9E06B00654C01935B199B0098465A
:10268000A146C1444B4652469B7910361370604BAD
:10269000B6009B6899590B1B2F2B33D95D4B994280
:1026A00000D0ACE0019B42469C465B4B6544AD00CC
:1026B00063535A4B0232A218043B9B1A1B05584A1B
:1026C0005B0D651913436B80564B0121AB80FF23D3
:1026D000AB71009BEF71AB604B460B4319004C4B49
:1026E0009B689951BFF35F8FBFF35F8F0022454B0B
:1026F0001A608BF3108805B0F0BCBB46B246A94601
:10270000A046F0BD01200A008243D3798C46BB422B
:1027100031D84546130044491B1B5B415943090D01
:102720003D4B63533D4B02356519043B5B1B1B0559
:102730003B4D5B0D2B43AA464D466B800425AC46B2
:102740005546E044131F44441B1B1B055B0D1D43F2
:102750004B46997100999D8099604946DF71334BD2
:1027600001431360BBE75800C01880002018C179EE
:10277000B9422FD902000623D356002BF3DA029375
:102780002B4B61460393131D9A4604235B429C46E0
:10279000E14450464B461B1A1B055B0D9C46204BE3
:1027A000957198466346404603439380019B5A19AE
:1027B0009200039BA418A380029B1C4AA371009B58
:1027C0002260E771A3608AE700F026FF00255346E8
:1027D0005D574FE7908802934005131D9A460315F5
:1027E00061469C464046D444634604302018181A7B
:1027F000E0230005400D1B0218430390C5E700F0DD
:102800000BFF4FE7240100D0C9200020DC1000207E
:1028100000ED00E0C101001000A1FFFF0C1100203D
:1028200000E0FFFF01BDFFFFAAAA000001488047AA
:1028300001BD000070B501240443EFF30581EFF3FF
:10284000108C72B6214A1368002BFCD0BFF35F8F47
:102850001F4B05001F4AED1A6D416A43120D1E4DB4
:102860008900AE6852B27658A6421CD0062159564D
:1028700091421CD012215956914222D01E21595604
:10288000914220D02A2159560324914210D0134B53
:1028900019781A708171BFF35F8F00220B4B1A6099
:1028A0008CF3108870BDAB680D4C5C50EFE70024D2
:1028B0006100091989005B18FF2199710949998004
:1028C000E5E70124F4E70224F2E7C046240100D042
:1028D000DC100020AAAA000000ED00E0C9200020C2
:1028E000C101001001BDFFFF10B5084B084C82B0BC
:1028F00001000093002205232000FFF7BDFD002802
:1029000001DB1F23181A02B010BDC046848C0010D2
:10291000CD200020024B9C46614489000160704735
:102920004000003470B5114C114DAC420FD2FF265F
:102930002368002B0CD0FFF7E3FD01002000FFF718
:10294000E9FFA680BFF35F8F0834AC42F0D370BDBF
:10295000FFF7D6FD01002000FFF7DCFF2671BFF373
:102960005F8F0834AC42E3D3F1E7C04698110020F2
:10297000A011002010B50400FFF7C2FD01002000E7
:10298000FFF7C8FFFF232371BFF35F8F10BDC04661
:1029900010B504000120FFF7BFFD034BC3189B00D7
:1029A0002360BFF35F8F10BD40000034034B9C4693
:1029B000614489000160BFF35F8F704740000034BD
:1029C0000A4B1968EFF3108072B60A68002AFCD02F
:1029D000BFF35F8F1B68BFF35F8F00221A6080F325
:1029E000108840BF002000217047C046A82000206A
:1029F000F0B5DE4657464E464546E0B587B0EFF3A4
:102A00000583032201251A40954091008846A94676
:102A1000B34B03925C58B34B1D60B34B04934B46CE
:102A2000B24843630823E55E002D37DAA3881BB262
:102A3000002B00DBADE0A379002B00D0EEE00823F3
:102A4000E05E002820DB430062691B18DB00D3181E
:102A50009E68DD68731C00D111E1A4480100414467
:102A6000826A0B69B71A9B1A9F4215D30123026A27
:102A7000039883401A420FD09C4800F0B5FB8D426A
:102A800002DCCCD18642CAD940BF07B0F0BCBB46FD
:102A9000B246A946A046F0BD0E61EDE762696B0043
:102AA00092465B19DB009A4453469E68DF6800F04B
:102AB0009BFB8F42BADC00D103E1002F00DAE8E093
:102AC0005246534652691B699346049A934200D179
:102AD000D9E052460821605E5288000459461043EE
:102AE0009847009001910099019A0B001000134340
:102AF00000D1CEE013000A00B61A9F41002806DB81
:102B00007A4800F071FB009E019F36184F415346F2
:102B10009E60DF6000229A5E002A00DA86E753009A
:102B200099186069C900411802938B68C9689B466F
:102B3000B94200DD7AE702D1B34200D976E7082333
:102B40009C46A444059565462281A446029B2C0020
:102B500006E053009918C90041188D68C968AB4652
:102B60009B18DB00C318B94206DC00D1B3E01C009F
:102B70000023E25E002AECDA230064469C465346BA
:102B80001A806346059D1D80A3881BB2002B00DAC6
:102B900051E72269EFF3108172B61368002BFCD065
:102BA000BFF35F8F0123A7885B42A3803FB22369F5
:102BB000BFF35F8F00221A6081F31088002F00DAC4
:102BC00039E72300083322009A4666697B00DB1947
:102BD000DB00F318996850468C460824115FDD68C5
:102BE000002910DB029306E0AB4244D00023E15EF3
:102BF0002000002906DB4C006418E4003419E36867
:102C0000AB42F1DD029B078000201F5E1980002F80
:102C1000DCDA1400A379002B00D110E70023A371A4
:102C200026000823E15E08364B1C00D12CE7080083
:102C3000A246656902E03E004B1C1AD04B005B18AF
:102C4000DB00EF180A008C46E95E7B881BB2002B84
:102C5000F1DA01235B42DC17BB60FC60824205D0E5
:102C6000534631801B893B8053461A8160464B1C7A
:102C7000E4D15446E5E6A3686345B7D9C2E76B1CC7
:102C800000D0EAE6F8E65B4658461B6998470028FC
:102C90001BD153461B8822692381EFF3108372B640
:102CA00011680029FCD0BFF35F8F514662880A800B
:102CB00022696580BFF35F8F0021116083F3108864
:102CC000B4E6864200D8F8E6B0E65B461A685B6870
:102CD0000092019307E7B34500D848E74CE7C046A8
:102CE0008C1F00203C700540F12900100040054079
:102CF00070B52E4C2569002D04D00A212C48FFF711
:102D000009FE70BD2B4E0321300000F063FAE6602F
:102D1000FFF7F6FB284B03229C46D02322701B06AC
:102D20001B6801216370254B6044A3600F23800062
:102D300020610220638063694942A18019800231C9
:102D4000198647311D83585218315A5275325C39F1
:102D50009952183201319952183201319952183270
:102D600001319952083518329D5202311832995268
:102D70001832013199521832013199521832013109
:102D800099521832013199521832013199520C4B33
:102D90000C49DC6001303562FFF728FC012103207B
:102DA000FFF7ECFB084B1D60A7E7C046241100208D
:102DB000A82000200040054040000034FFFF100024
:102DC0008C1F0020F1290010386005400048704732
:102DD00024110020F8B51F0008AB1B780400160072
:102DE000002B08D100F008FA32003B00121A8B4188
:102DF000002B00DA52E02269EFF3108072B61368FC
:102E0000002BFCD0BFF35F8F0223E15E63694A00B1
:102E10005218D2009B182269002936DB1D88658074
:102E2000BFF35F8F0025156080F31088069A9E60BF
:102E3000DF601A61079A5A615A8801325204520CB3
:102E4000101C002A1FD082B2588008041043266943
:102E5000EFF3108772B63268002AFCD0BFF35F8FA1
:102E6000A2881A80A1802369BFF35F8F00221A60B5
:102E700087F310880A4923788C4601329A40E36828
:102E800063441A60F8BD0120DDE7BFF35F8F0023C4
:102E9000136080F3108801204042F3E70020F1E73F
:102EA0003C20000070B501000469EFF3108C72B68D
:102EB00020680028FCD0BFF35F8F02200D5E4C69B4
:102EC00068004019C00024180869002D36DB2688E8
:102ED0004E80BFF35F8F002606608CF31088E3609E
:102EE00063880498013320615B0405985B0CA26041
:102EF00060611A1C002B1FD093B228046280184313
:102F00000A69EFF3108C72B61368002BFCD0BFF384
:102F10005F8F8B8823808D800B69BFF35F8F0022CA
:102F20001A608CF310880B7801329A40CB680849FC
:102F30008C4663441A6070BD0122DDE7BFF35F8FEA
:102F4000002303608CF3108801204042F3E7C04661
:102F50003C20000010B543890A1493421ADD530047
:102F60009B184269DB00D3180469EFF3108C72B62A
:102F70002268002AFCD0BFF35F8F5A88090494B2FC
:102F8000090C8A4208D00369BFF35F8F00221A60E0
:102F90008CF31088002010BD8022120214435C8044
:102FA000012302698371BFF35F8F002111608CF3ED
:102FB0001088044902788C469340C268012062441C
:102FC0001360E8E73C20000040787047F0B5C64643
:102FD00000B582B0040000F00FF9FA2206000F00DD
:102FE000200000230021920000F0E2FF80197941C7
:102FF00004000D1E02DA01242E4D6442062676429C
:10300000F71736196F41AF4214D811D000F0F4F819
:1030100032003B00121A8B41002B15DC002B46D0EE
:103020002000290000F0F2F802B080BCB846F0BDE4
:10303000A642EBD90026002700F0DEF832003B0064
:10304000121A8B41002BE9DD00F0D6F832003B006C
:10305000121A8B41002B0ADB00230193164B32001E
:10306000009316483B00FFF71DFF0130D8D0002326
:103070003900B0469C46124A1248536A994204D815
:10308000966A4645CCD29942CAD10668EFF31087BA
:1030900072B63368002BFCD0BFF35F8F0368BFF3B9
:1030A0005F8F66461E6087F3108820BFE5E7002A21
:1030B000B6D0C9E7FFFFFF7FC1290010241100200F
:1030C00000400540A8200020F0B557464E46DE4699
:1030D0004546E0B506000F0085B0EFF3058399463D
:1030E0008B46002B12D0384900204B6ABB4206D3D6
:1030F0008A6ADB1B591E8B41B2424041184305B01E
:10310000F0BCBB46B246A946A046F0BD2F4B9A463E
:10311000DB68984653461B784046039300F064F8FA
:103120004246039B040004339B009B580D001B1A6E
:1031300039003000001BA941894510DC0DD020BFAB
:10314000214A0020536A5B45D9D3926ADB1B591E82
:103150008B41B24240411843D1E78342EFD900F09E
:103160004BF832003B00121A8B41002B1ADB002374
:103170000193174B3200009350463B00FFF792FE3D
:10318000011E0FDD104B5A6A5A451BD39B6AB3428E
:1031900016D35046FFF7DEFE0B4A0020536A5B450C
:1031A000ADD3D2E7084A0020536A5B45A7D300207D
:1031B000926ADB1BB24240415A1E934118439EE77C
:1031C0005A45E6D120BFE4E7004005402411002025
:1031D000C129001010B5024A0248FFF72BF910BDB3
:1031E000A08C0010D01A00200300416A0A00986ADF
:1031F000596A8A42FAD17047034B596A0A00986AA1
:10320000596A9142FAD1704700400540064A536A14
:103210009942FCD807D1044B02E05A6A914202D18C
:103220009A6A9042F9D8704700400540F8B5DE46EA
:103230004E4657464546E0B58B4605000A991800AC
:10324000160000F03BFB0A9B6C001F02324B641916
:103250009C46A4006444636881469F4200D967602D
:103260002B1FDBB29846012B30D9C02380229B0153
:10327000E31812011A60294BAD0059599A460029EA
:103280001BD17301E026226853401E408023424632
:103290005B01E3181E60012A30D9802380229B0144
:1032A000E31812011A6053464A4667605A51F0BC4F
:1032B000BB46B246A946A046F8BD586900F0FEFAE2
:1032C000013043001B18033BFDD2DAE75B46012BBC
:1032D000CBD1C02303229B01E3181A60023AA368F2
:1032E0001A42FCD07301E0262268AD0053401E4014
:1032F00080230A4A5B019246E3181E605A46216801
:10330000514003220A401A6001225B469A40A3689A
:103310001A42FCD0C1E7C04600800040D41A002009
:10332000F0B546464F46D646C0B51F00344B440064
:103330009C462418A4006444636888461600FF2B4A
:1033400002D880235B006360031FDBB29A46012B27
:1033500030D9C02380229B01E31812011A60294B47
:1033600085005959994600291BD17301E02622682E
:1033700053401E40802352465B01E3181E60012A21
:1033800030D9802380229B01E31812011A60802328
:103390005B0063604B465F51E0BCBA46B146A8464D
:1033A000F0BD586900F08AFA013043001B18033B56
:1033B000FDD2DAE74346012BCBD1C02303229B0188
:1033C000E3181A60023AA3681A42FCD07301E0269F
:1033D0002268850053401E4080230A4A5B019146C3
:1033E000E3181E6042462168514003220A401A60D9
:1033F000012342469340A2681342FCD0C1E7C04675
:1034000000800040D41A0020014B8000C058704753
:10341000D41A0020F8B5040021481E0017000D0042
:1034200000F04CFA0100380000F048FA069B360420
:103430001B031E432368002B20DB1A4B1A49E31899
:103440005A1E93418022920194465B421B0B174AFD
:103450001B0363441360164A13601F000A689743F6
:10346000FBD1144B2560E2182123A0601360236870
:10347000002BFCDA0823E6601360F8BD3F232268C6
:103480001340AB42D9D1A3681B051B0D8342D4D195
:10349000EE22E368D2021340B342CED1EDE7C0463C
:1034A000001BB7000040FDBF08C0004000E0004026
:1034B00000F000400430000010B580241C4BE405EF
:1034C0001C6000281AD001231A4C18431A4BDC61E7
:1034D0001A4C44401C62596298628021144BC90501
:1034E0001960174817490860E021C9041960002ACB
:1034F00007D18022144B12061A6010BD0E4BD86102
:10350000EBE753019B1A9B009A18802312015B047E
:103510009A4209D213000D490B60074B5A60802272
:10352000094BD2051A60E8E7094B1A00F3E7C046D9
:1035300000B00540D3C007B0008005402D3FF84FD4
:10354000FCFF01000820014000A00540341F0020BE
:10355000FFFFFF008023024A9B000B43D3627047AA
:1035600000800540002310B50100988A1B8B984706
:1035700010BDC046162310B50100188802331B8801
:10358000984710BDF8B54746CE4680B50F1E18D0F7
:1035900014239946043304000025012698464B461F
:1035A0001888434621681B88984701C4431E9841E8
:1035B00001350640AF42F2D13000C0BCB946B0463A
:1035C000F8BD0126F8E7C046002370B504000D00E1
:1035D000988A05491B8B984703000020002C01DBCB
:1035E0000130A0402900984755420000AA23064A0E
:1035F0001B0113608D235B00D3600449044B1960E9
:103600005368002BFCDA70470040024000B0FA001B
:10361000006002407047C04610B50148FEF7F2FE58
:10362000C48C001070B5074D074EB54209D2002476
:10363000013E761BB60808CD984723000134B342FB
:10364000F9D170BD0888001044880010054B064A67
:1036500006491A60064A074B1A6010000B68984327
:10366000FBD1704700E00040BFCDFBFE08C000402A
:10367000FE7F3C0000F00040044BDB6C002B03D1CC
:103680008022034BD2021A607047C04600001150DE
:103690004C201150044A054B1A60054A1368DB019F
:1036A0008033FBD17047C046FFFFFF0100F00040B0
:1036B00008C000404022034B9A675A671A67DA66CF
:1036C0007047C04600F0014010B5FEF737FF10BD4F
:1036D000F8B52749274C284D641AA6103200302E21
:1036E00000D930222800920000F0BEFCBC2C3BD850
:1036F00030202F232C196407204A801BE40F9B1BCA
:10370000052B16D93700002C02D0B300771CEA50E5
:10371000001B33199B004108EB18C900C9181A6037
:103720005A6008339942FAD1012303421CD09843CE
:10373000C619B300EA50731C2F2E15D09B00EA5017
:10374000B31C2E2E10D09B00EA50F31C2D2E0BD054
:103750009B00EA50331D2C2E06D09B00EA50731DAF
:103760002B2E01D09B00EA50054B9D60F8BDC04652
:1037700000010010C001001000000020C101001075
:1037800000ED00E0002310B5294C82B0A367FFF7DD
:103790002DFF0122274B1A60636C012BFCD1032201
:1037A000254B1A60224A936B012BFCD10133009305
:1037B0000121224A22480433FFF72CFE0523012170
:1037C0000093204A2048FFF725FE00220221042012
:1037D0001E4BFFF7A5FD0022012105201C4BFFF722
:1037E0009FFD0022002107201A4BFFF799FD0022C0
:1037F00000210820174BFFF793FD8023DB00009387
:10380000002200210920134BFFF710FD0022104B6E
:1038100000210620FFF784FD0420FFF7F5FD0E4987
:1038200000F04CF801000020FFF794FE02B010BD3C
:10383000008000403CB0004030B00040002F68598C
:1038400000800240008C864700C00240001BB70089
:1038500040597307006CDC0240420F00014804210C
:10386000014B18474011002085350010124A936F14
:103870009B0815D29066D166002905D0FFE7FFE7C7
:10388000FFE7516F106F704704B580210906C2171A
:103890005140002800D0C84304F066FF002104BD59
:1038A000F0B5146E556E576F166FFFF7E3FF146691
:1038B000556657671667F0BD000000D0114A936F38
:1038C0009B0813D210665166002905D0FFE7FFE779
:1038D000FFE7516F106F704704B5002801D000203A
:1038E000C04304F041FF002104BDC046F0B5146E92
:1038F000556E576F166FFFF7E5FF146655665767ED
:103900001667F0BD000000D094464A4A926F9208B4
:10391000624601D228E0C046F0B5464E346E756E60
:10392000776F366F00F020F89446424A1466556669
:10393000576716676246F0BD94463E4A926F9208FA
:10394000624601D254E0C046F0B53A4E346E756E10
:10395000776F366F00F04CF89446364A1466556619
:10396000576716676246F0BD002B24DB11D0002993
:103970003EDA00B5C943404200D1013100F038F8C9
:10398000C943404200D10131DB43524200D10133EF
:1039900000BD002AEBD1002801D1002905D000206C
:1039A000C90FC90701D1C043410800B504F0D4FED6
:1039B0000022002300BD00B500290ADBDB43524290
:1039C00000D1013300F014F8C943404200D1013165
:1039D00000BDC943404200D10131DB43524200D116
:1039E000013300F005F8DB43524200D1013300BD42
:1039F000002923D1002B18D1002A0CD0BC460D4F32
:103A000038667A6600210023FFE7FFE7FFE77A6F59
:103A1000386F67467047002801D00748010000B59D
:103A200004F09AFE0022002300BD02000B000020DB
:103A300000217047000000D0FFFFFFFF002B00D0E7
:103A4000BFE0130C28D1002AE7D080B4114F3966AB
:103A50007A66FFE7FFE730B4040C7B6F396F1B0415
:103A600023433B667A66FFE7FFE7FFE7C04684B281
:103A70007B6F3D6F1B0423433B667A66FFE7FFE7DE
:103A8000C04600232C042D0C7A6F386F0019694151
:103A9000B0BC7047000000D0F0B594460025140E6D
:103AA00001D112020835140F01D112010435940F0F
:103AB00001D192000235D40F01D152000135D40B4F
:103AC0000134254F7C66254C3C660E0C93B2FFE713
:103AD000FFE7FFE73C6F6643360C7703BE46734350
:103AE000DF0B5B04C01AB941130C7343DB18C91A0E
:103AF000CE086643360CB64493B273431F0F1B01C6
:103B0000C01AB941130C73431F0B1B05C01AB941EE
:103B1000860D8F023E436643360C092D24DB520A84
:103B20007243801A7703460A6643360C16235B1BE2
:103B3000DE40DF40BF1964466643821B7046043591
:103B400006330100D940A840C01900D30131A24278
:103B500006D20023F0BD0000000000D0FFFFFFFFF1
:103B6000121B0130F3D3F1E709277F1BFE406446A7
:103B7000A2B27243801A00D20139220C7243130C94
:103B80001204821A99410B00704604351337010064
:103B9000F940A840801900D30131002B02D1A24284
:103BA0000AD2F0BD013000D30131121BFAD2013B21
:103BB000F8D1A24200D2F0BD013000D30131121B76
:103BC000F7E7F0B51C0C00D080E00CB400251C0A0F
:103BD00004D11B02160E3343120208351C0B04D10C
:103BE0001B01160F3343120104359C0B04D19B00BB
:103BF000960F334392000235DC0B02D192185B41E1
:103C000001351C00971864410134464F7C66464CD0
:103C10003C660E0CFFE7FFE7FFE7C0463C6F6643DC
:103C2000360C7703BE4697B27743C01B00D20139EA
:103C3000C01B00D201399FB27743C91BC91B170CA7
:103C400077437E04FF0B801BB941CE086643360CD8
:103C50000C2D33DBB644120B1F053A431B0B97B2F6
:103C60007743C01B00D201399FB27743C91B170CA1
:103C700077433E043F0C801BB941860D8F023E43C3
:103C8000664329277F1BFE400C3D7746AF40BF1996
:103C900030BCA2B2ABB272437343801A9941220C7A
:103CA0007243130C1204801A994102000B00013771
:103CB000001BA941F9D2781E0021F0BD0C277F1B03
:103CC000FE4077467F0BAF40FF19E0E700245D1C04
:103CD00007D0144F7D663966FFE7FFE7FFE7FFE790
:103CE0003C6F95B29EB265436643401BB141150CD3
:103CF0001E0C6543664336042F0C3E432D04401BC7
:103D0000B141994204D202000B0020000021F0BD15
:103D100001D19042F7D3801A994101349942F2D3EC
:103D2000F6E70000000000D0FFFFFFFF48404140E1
:103D3000484018B4134B5B68019308BD18B4114B8D
:103D40001B68019308BD94460F4A926F920805D2F2
:103D5000624618B40B4BDB68019308BD0A4AF0B504
:103D6000146E556E576F166F6246FFF7F2FF064AE4
:103D70001466556657671667F0BD18B4014B9B680B
:103D8000019308BD28130020000000D0FFB550406B
:103D90004240504059404B40594000E0FFB5154F5C
:103DA0004C00640D03D0BC4204D10C0314D8002095
:103DB000090D09055C00640D03D0BC4204D11C034D
:103DC0000AD800221B0D1B0501264B4009D44B408D
:103DD00003D58B4200D18242FFBD9942FCD1904273
:103DE000FFBD0B43DB1803431343F5D0C943491808
:103DF000FFBD0000FF07000000B5FFF7CFFF8041C7
:103E000000BDC04600B5FFF7C9FF01D9002000BDC5
:103E1000012000BD00B5FFF7B9FF01D9002000BDAA
:103E2000012000BD00B5FFF7B1FF804100BD0120BA
:103E300040054A00121804D85A00121801D8002070
:103E400070470120704700000021002805D170470D
:103E5000C1174840401AFAD0C90713B5064B1B6872
:103E600098470CBC441CA2401005120B0349091BC7
:103E700009051943114310BDA41F00201F040000B1
:103E800010B54C00620D8023D218DB00D21A5B05FE
:103E90007E2A10DD9E3A13DACC170903490819432C
:103EA0005242D140640001341532202A05DAD04054
:103EB0000843604310BD002010BD0846604310BD9C
:103EC000C80FC018013810BD18B4024B5B6A0193CB
:103ED00008BD00002813002010B50148FEF792FA33
:103EE000D08C0010132370B51D78012D19D014DD6E
:103EF0001D48FFF73FFB06001C48FFF73BFB1C4C2F
:103F000080223100200000F0AFF8022D06D01948C1
:103F1000FFF728FB184B186070BD154C174BA364B6
:103F2000F5E7174B124C23606360A360E3602361E5
:103F30006361A361E36123626362A362E36223635B
:103F40006363A363E36323646364A364E36423653B
:103F50006365A365E36523666366A366E36623671B
:103F60006367A367E367D9E7534400005346000043
:103F7000281300204C330000A41F0020853F0010B0
:103F8000D93E001007B5604601880A0A0230DF2AD0
:103F9000FAD1C9B2820804D30288408800041043D1
:103FA00000E00068014A5050039007BD281300202C
:103FB00051434343C9188C46110C83B24B4310B490
:103FC000040C614392B280B2504362431C041B0C48
:103FD000001910BC59411304120CC018514161441E
:103FE0007047000010B50148FEF70CFA6088001019
:103FF000132310B510481C78FFF7BCFA0100012C00
:104000000AD003DD80220D4800F02EF80C48FFF79F
:10401000A9FA0C4B186010BD084C5422200000F087
:1040200023F82200084980322368002B00D1216048
:1040300004349442F8D1E9E753460000A81F002059
:104040004C330000A41F0020E53F0010014804216C
:10405000014B18475011002085350010014B1B689B
:104060001847000050110020014B5B681847000002
:10407000501100209A4200D2885470477047C046C1
:10408000F8B55746DE464E464546E0B599460A9B8A
:1040900007009A460D9B884693460B9C9B073BD195
:1040A0000C9B9C423DD21E1B0B9415000C005E44E1
:1040B0002A004B46013521002020B847B542F7D1F0
:1040C000A0460B9C002C20D0454636195346321B87
:1040D000013C185D29004B46B847002CF6D12B0057
:1040E000350098460D9B9B070FD55B46EC1A0C9B41
:1040F000A3420AD9464698462A004B463100202062
:104100000134B84701354445F6D32800F0BCBB461E
:10411000B246A946A046F8BD16001500002CD3D122
:10412000E0E716001500002CCED1EEE7F0B54546CD
:10413000DE4657464E46E0B585B09C4610AB1B7830
:10414000149F934698460F9C129E139DBB074CD418
:10415000002D42D1B44248D201233B4099460E9BE8
:10416000013B9A46302304E0524601341355A642DF
:1041700001D9202CF8D14B46002B00D183E00E9BB7
:10418000013B99463023A54205D82EE04A4601342A
:104190001355AC4229D0202CF8D1FB060CD57B0559
:1041A00054D4A64263D0A54261D0119B102B50D0AD
:1041B000022B57D0202C32D1202301930E9B5A463C
:1041C0000093039763460295FFF75AFF05B0F0BCD2
:1041D000BB46B246A946A046F0BD01233B409946E6
:1041E00001233B422AD1B442B9D3FB061CD57B053F
:1041F000DBD4002CD5D1119B102B5BD0119B022B53
:104200006BD0302301240E9A13704346002B10D13B
:104210007B073ED52B260E9A631C1655CDE723004F
:10422000013430260E9AD654202CC5D04346002B9C
:10423000EED02D260E9A631C1655BEE74346002B82
:104240002FD0013DB44200D289E798E7119B102B93
:10425000B2D1BB0637D5202CAED058230E9A1355B9
:104260000134A7E7202CA7D02300013407E0631E08
:10427000012CC0D0119A102A31D0022AD1D1622645
:104280000E9AD65496E7FB06CED57B0500D488E778
:104290008BE723003E0790D520260E9A0133165552
:1042A0008BE70C233B405A1E9341ED1AB44200D2D7
:1042B00055E764E7BB060ED478230E9A02241370E8
:1042C00030235370A1E7202C00D175E778230E9A94
:1042D000135501346EE75823EFE76033EDE70E9A8C
:1042E000A61E91464E44BA0602D55822327098E76F
:1042F0007822327095E7C04610B5002800D110BD75
:1043000001F094FCFBE7C0460B0010B5002802D07A
:1043100049681B68984710BDF0B55746DE464E46C3
:104320004546E0B595B083460F00924698461E9AE2
:104330001F9B10001900209EFFF779FD002800D078
:10434000EAE11E981F990122C54B5242FFF754FD26
:10435000002800D014E11E981F990122C14B52423F
:10436000FFF760FD002800D0E9E01E981F990022A9
:10437000BD4BFFF757FD002800D0C8E01E981F99DD
:104380000022BA4BFFF738FD002800D0BFE01E988E
:104390001F9900220023FFF72FFD002800D0E4E042
:1043A00000230B93229B5B0500D4062600243023B8
:1043B00007E0172106AA013452181355013E202C9C
:1043C00001D0092EF5D81E981F99FFF759FDA84B6B
:1043D000F2009B181A685B68050008920993FFF7C2
:1043E00037FD02000B001E981F99FFF7A2FC089AE8
:1043F000099BFFF7C2FC06900791FFF765FD814618
:10440000FFF722FD02000B0006980799FFF791FCC9
:104410000022984B06900791FFF704FD002800D179
:104420000DE101239C46E1444846FFF70DFD0200E3
:104430000B0008980999FFF7E5FC002802D000233B
:1044400099460135002E00D1D9E006954D46B94672
:1044500014E006AA944617230A2163442800013475
:104460001F19FFF72BFA3031397028000A21013E5D
:10447000FFF724FA092D00D817E10500202CE8D118
:104480004F46069D20240CAE06AA1723944663448B
:1044900099465B46B34606930FE04B4628000A2137
:1044A0000134E618FFF7E2F93031280031700A21B3
:1044B000FFF7DCF9051E00D1E4E0202CEDD1069BCE
:1044C0005E469B460323229A1340012B18D1219B61
:1044D000002B15D00B9B002B00D1FDE0219B013B55
:1044E0002193202B0CD93023219A07E0172006A90D
:1044F000013409180B55944200D3CCE0202CF5D19F
:10450000229B01940393219B0096029322E0229B1D
:1045100052460493219B3900039358461E9B1F9CCF
:10452000029600930194434600F04AF904002000EB
:1045300015B0F0BCBB46B246A946A046F0BD229BD2
:104540005B070FD403224C4B2299019203912199CE
:10455000009302914346524639005846FFF790FDBA
:104560000400E4E70422454BEEE71E9A1F9B00205F
:104570000021FFF7DEFB01231E901F910B9311E733
:10458000229B54469B0711D1219B042B0ED9219BC2
:1045900055469C465E46043C64442A004346013529
:1045A00039002020B047A542F7D1B346344D26004C
:1045B0002B1F99465B46A3461C003200E878434611
:1045C0003900013DA04701364D45F6D123005C4638
:1045D0009B46229B04349B07A9D55346219AE31A94
:1045E0009A42A4D95E461500220043463900202095
:1045F000B04753460134E31A9D42F5D897E72800A7
:10460000FFF726FC02000B001E981F99FFF791FB95
:104610000022184B06900791FFF7EEFB0CAE002826
:1046200000D031E7069807990022124BFFF7FAFBFA
:10463000002800D028E7012301359D4324E700220C
:10464000069807990B4BFFF7D7FB002800D0F9E637
:104650004B46002B5CD101239C46E144F2E6C04668
:10466000FFFFEFFFFFFFEF7F65CDCD4165CDCDC1F2
:10467000A89000100000E03F348D00102C8D001039
:104680003C8D0010069B5E469B460323229A1340F6
:10469000012B00D181E0202C00D131E70B9B002BB6
:1046A00027D02D23335501342AE74F46069D202C71
:1046B00000D1E7E63022331907E0172006A90134BC
:1046C00009180A55202C00D1DCE6A342F5D12E2290
:1046D0000CAE0134F254D7E60C23229A134257D081
:1046E000219B013B2193A34200D9FCE6202C00D161
:1046F00006E7229B5B0703D52B2333550134FFE6E6
:10470000229B1B0700D4FBE6202333550134F7E638
:10471000DB0700D496E69EE7229B55469B0711D106
:10472000219B032B0ED9219B54469C465E46033D9C
:10473000654422004346013439002020B047AC4292
:10474000F7D1B346B9465F461C4EEC1C2A00B07840
:10475000434649460135B847013EAC42F6D1229B5B
:10476000BB464F469B0700D4E1E65346219AE31A25
:104770009A4200D8DBE65E46150022004346390027
:104780002020B04753460134E31AAB42F5D3CEE6BE
:10479000219BA34200D9A6E6B2E6219B002B00D1C3
:1047A00079E70B9B002B97D0219B013B21939C42E7
:1047B00000D298E6202C00D073E7A1E6388D0010D7
:1047C000F0B5DE4657464E464546E0B599B08146BF
:1047D0008B4692469846229A239B10001900FFF7B9
:1047E00026FB002800D0CAE0229823990122824BA0
:1047F0005242FFF717FB002800D0C0E0229823990F
:1048000001227E4B5242FFF7F7FA002800D0B6E0B3
:104810002298239900220023FFF7EEFA002800D007
:10482000C9E1229B239C0893099408980999802345
:10483000269ADB001A400D928022269C1201144019
:1048400022000B94269C07000E001C4200D0ADE015
:104850000B00034300D0D5E0002A00D00AE222007A
:1048600006332493022313400C930223134200D0F7
:1048700002E2259B042B00D20FE2043B0B930023A2
:1048800004250A930022229823990023FFF7B4FA03
:10489000002800D003E25A4B269A134004930B9B46
:1048A0000393249B0293089B099C0093019459460F
:1048B000434652464846FFF72FFD02002020269B24
:1048C0001F27034059424B415B421840531C089339
:1048D000594643464530C8470A9AD317D4185C4016
:1048E000D30F0A936B1E0B9308AB9C4600256744BD
:1048F00001E0202D0FD020000A21FEF7DFFF013557
:104900007E193031317020000A21FEF7D7FF2600D2
:104910000400092EEDD8052306930B9B59460593F9
:10492000002304930A3303930A9B4846029310AB77
:104930000093089A43460195FFF7F8FB0C9B002B68
:104940002DD05346C41A259BA34228D94D465F4615
:1049500081461E00534639001A192020434601346F
:10496000A847A642F6D8534648462599C21A0132AE
:104970000023914200D386E1013018180FE0269BF6
:104980000493259B0393249B0293229B239C0093D7
:1049900001944346524659464846FFF7BDFC19B0BC
:1049A000F0BCBB46B246A946A046F0BD01432BD1A0
:1049B0000B9B2200002B00D154E700230A93249B79
:1049C0000A9A0024934200DD85E12298239900226F
:1049D0000023FFF711FA002800D035E1269B084A92
:1049E00002941A408023DB0013430493259B039316
:1049F000089B099CCBE7C046FFFFEF7FFFFFEFFF5F
:104A0000FFF7FFFF06232493B44B70009C46400D34
:104A10006044FFF71DFAB24AB24BFFF7AEF9B24A53
:104A2000B24BFFF78BF93603B14B360B334304001F
:104A30000D00380019000022AE4BFFF77AF9AE4A9C
:104A4000AE4BFFF79AF902000B0020002900FFF798
:104A500075F9FFF715FA0A90FFF7FAF9A84AA94B7A
:104A600004000D00FFF789F90022A74BFFF766F954
:104A7000FFF706FAA54A0600A54B20002900FFF71C
:104A80007CF9040030000D000C96FFF7E1F9A14A13
:104A9000A14BFFF772F902000B0020002900FFF77D
:104AA00048F902000B0006000F00FFF766F932001C
:104AB00004000D003B0030003900FFF73FF90022F1
:104AC0000E900F91954B20002900FFF73CF9002232
:104AD000934BFFF733F902000B0020002900FFF78A
:104AE00032F900228F4BFFF729F902000B0020005A
:104AF0002900FFF728F90D008021040032003B0057
:104B00000020C905FFF715F902000B00200029005D
:104B1000FFF714F902000B000E980F99FFF713F935
:104B20000022734BFFF70AF97F4B0C9C9C466444B0
:104B300000222305FFF721F906000F0002000B00F9
:104B400008980999FFF758F900280AD00A9B300005
:104B5000013B39000A930022714BFFF7F4F806007D
:104B60000F000A9A330063323900C62A12D8022293
:104B70002698042510400B9A0C90002A25D1259BDD
:104B8000042B05D9002800D0A1E0259B043B0B9302
:104B9000042541E00222269810400B9A0C90002A2E
:104BA00012D1259B052B76D9002872D1259B05258E
:104BB000053B0B9334E0802212069446229B089317
:104BC000239B6344099330E605250B4300D1F6E6A9
:104BD00008980999554A564BFFF71CF9002808D048
:104BE000089809990022534BFFF706F9002800D0D6
:104BF000E5E6249B002B1CD00D9B002B19D0249B99
:104C0000013B2493259BAB4204D90C9B002B5AD02B
:104C100002230C9300230B930A9B002B00D131E657
:104C20000898099932003B00FFF78DF80890099128
:104C300028E6259BAB42EDD90C9B002B43D00023EB
:104C40000B9302330C93E7E78020269B3A4A000639
:104C50001A40802384460294089C099D2900DB00A9
:104C600013430493259B6144220003930B0000929D
:104C700001938EE60524A8E600230B930A930233E2
:104C800004250C93FEE553468C46013B63441B1AF6
:104C900072E602230C930525C2E70423EDE580208C
:104CA000089E099F000639008446269A224B6144DB
:104CB000134004930B9B32000393249B02930B003D
:104CC00000920193F3E5259B5B1B0B93A4E7022362
:104CD00004250C93A0E79C1A013C76E601FCFFFF3B
:104CE000FB799F501344D33FB3C8608B288AC63FDB
:104CF0000000F03F0000F83F61436F63A787D23F99
:104D000071A379094F930A400000E03F1655B5BBE7
:104D1000B16B0240EF39FAFE422EE63F00002C4014
:104D20000000244000001840FF0300002D431CEB4E
:104D3000E2361A3F80842E41FFF7FFFFF0B5DE46D2
:104D400057464E464546E0B5A5B01E002E9B9246FE
:104D50000C93CD4ACD4B80468B461A60002900D17A
:104D6000EAE1002330789946002800D1ECE1C84BF5
:104D70004C460B93C74B454657460E930AE0631CBF
:104D8000984622003B005946A84744463078002800
:104D900000D187E001362528F1D108239A46043B4B
:104DA0009946023B9846013B00229C460D94307880
:104DB000711C0300203BDBB2102B03D80B9C9B0023
:104DC000E3589F460300303B89460D9C092B3AD996
:104DD000002398462A2800D1C1E000239A462E28B5
:104DE0004BD00300683BDBB2122B1ED80E999B0000
:104DF000CB589F4663460E001A43D8E743460E0041
:104E00001A43D4E74B460E001A43D0E710230E0096
:104E10001A43CCE753460E001A43C8E780235B00D1
:104E20001A43FF3B9C467078E1444E4667284FD8B2
:104E30002428A4D90300253BDBB2422B9FD89649F6
:104E40009B00CB589F46002394461E0000E0013192
:104E5000B3009B195B001E180878303E0300303BFE
:104E6000092BF4D90123624689469C460023B046AB
:104E70009A460E00E1442E28B3D1302180204942C9
:104E80008C46C000024370784B4684446146092931
:104E900000D86CE12A2800D17AE101239C464E46D5
:104EA000E1449EE7A146A846BA46CA4503D8012375
:104EB0005B425344994653464A4659460020C047F0
:104EC000200025B0F0BCBB46B246A946A046F0BDC6
:104ED0000300693BDBB20D930F2B00D94FE7012193
:104EE00099408C466D49894661464B4619400F9161
:104EF000634649460B4200D028E10D9B0A2B3AD06D
:104F0000072B00D03BE70C9B190008C98846002BF3
:104F100000D14BE121200243914614A98C461F2267
:104F20000F2162448C4651460D950C91A246150006
:104F30000F9902E020290CD0130064461C40200089
:104F40003730092C00D80738013168541A090F2B63
:104F5000F0D80C9B54460D9D9A460F9133E10C9B63
:104F600002CB8846002947DB0C9301239C467078CE
:104F70004E46E14431E70C9B02CB14935346002B81
:104F800000D138E19C4608780B000C908C44002836
:104F900001D100F098FC89466146944603E05A78B6
:104FA0000133002A01D08B42F9D1494662465B1A8F
:104FB0000C900F93530500D520E1022318001040F8
:104FC0000D90134200D1CBE30D930B1BB1469A46D3
:104FD0005E460C9822003B003100A847534601343E
:104FE000185D0028F6D1B3464E460D9B002B00D02D
:104FF000C7E1149B0C93C9E60C9301239C46283807
:1050000049420243884670784E46E144E5E67078AE
:105010006C2800D17FE180235B001A43FF3B9C4654
:10502000E14402E780239B001A4301239C467078E9
:10503000E144FAE67078682800D173E180231A43CE
:105040007F3B9C46E144F0E6672800D103E1472816
:1050500000D15AE1452800D15AE104920721424685
:105060000C9B0392073352468B43190002920CC9E2
:105070002800009201930C9122003B005946FFF753
:105080009FFB040082E6C0463D4D0010301F00200B
:105090000C8F0010508F00109C8F0010419000006A
:1050A000462800D1DBE00492072142460C9B039284
:1050B000073352468B43190002920CC92800009214
:1050C00001930C9122003B005946FFF725F904009B
:1050D0005CE6631C984622003B0059462520A84701
:1050E000444653E60C9B04330D93631C9946920788
:1050F00000D422E10C9B2200187859463B00A847B7
:1051000043464444012B00D885E23300B8462E00C4
:105110005F4625004C46994622004346013439003B
:105120002020B047AC42F7D12C00BB4635004746A3
:105130004E460D9B0C9329E6DB4B307898460023B6
:105140009946002800D012E60024AEE66F2800D170
:1051500088E000D80BE31023782800D1CFE09A43F1
:105160000A239C4600230F930A330D9380E0564692
:10517000B1008919490001330E181878303E01003A
:1051800030390929F4D9B2461E000133994628E680
:105190000C9B023602CB8A46C9435046C9170840C9
:1051A00082460C933078731C99461AE6102310003F
:1051B000984311331843814680201300C0000340F8
:1051C000024200D1A9E64B460693082305935346B5
:1051D000049310230393002302930F9B2200019357
:1051E0001CAB009359463B002800FEF79FFF434647
:1051F00004000C93CAE501235B42C3E60F9B5345B1
:1052000001D953460F930223180010400D9013420A
:1052100000D1B7E10D93D1460B1B9A463300A14450
:105220002E0022004D460C98B9465F469B4608E08A
:105230004B463900541CB0475346185D002877D0C0
:1052400022009542F4D15B46BB464F46A946350045
:105250004C461E00C9E680231B011A43FDE62023AD
:105260001A4320E708239C4600230F9308330D932D
:1052700080231100DB0019401A4200D116E10D23F2
:105280009A431000802302009B001A401492184297
:1052900000D0C2E1802302005B001A4091460C9AC4
:1052A00004320F92184200D0B7E2430600D59FE1C6
:1052B000030600D419E30C9B1B880993002B00D034
:1052C000FCE110339843002900D1F7E1002399460F
:1052D00043460593534604930D9B06900393002386
:1052E000D2E0582808D0622867D102239C460023C8
:1052F0000F9302330D93BBE720231A43103B9C46C8
:1053000000230F9310330D93B2E780231B011A4340
:1053100020231A43A1E6C0239B001A43F31C99469D
:10532000B07882E5C0231A43F31C9946B0787CE537
:1053300035005E46BB464F4657E64346012B00D834
:1053400063E1631E43449A463300B9462E005F462C
:1053500055469B46A24622004B4601343900202088
:10536000B047AC42F7D135005E46BB464F46A1463A
:1053700054460C9B4A46187859463B004444A8477B
:10538000D7E6A1460F9B984500D832E64444E41A7C
:105390003300B8462E005F4625004C469946220051
:1053A0004346013439002020B047AC42F7D12C00ED
:1053B000BB46350047464E461BE680231000DB0007
:1053C00018401A4200D10FE1112118008A430D92B2
:1053D0000D9A802311009B0019408C461A4269D116
:1053E000802311005B00194089460C9904310F910C
:1053F0001A4200D0CAE113005B0600D5F0E01300AA
:105400001B0600D459E20C9B00229B5ED9175A1848
:105410004A4092B2D90F0C91002B00D1F9E1100053
:1054200014AA944642461F23149252466344A84647
:1054300016944D460400B946B2461F00159201E08D
:10544000202D0FD020000A21FEF738FA01357E19F1
:105450003031317020000A21FEF730FA26000400B6
:10546000092EEDD8149B4F46A94645469846159BF4
:1054700056469A46169C0D9B069343460593534603
:1054800004930A2303930C9B02934B4601931CAB9A
:105490002200009359463B002800FEF747FE0F9B71
:1054A00004000C9372E4C0467D4000100C239A4324
:1054B0001000E7E607220C9B073393430132944622
:1054C0009C4462460C920CCBD90F0F9111001943EA
:1054D00000D191E0D9171391129151401091139975
:1054E0005940119110981199129A139B801A994161
:1054F0001090119114AA00239446424699461492A2
:1055000052461F336344A846B24616944E46109C3A
:10551000119DB94615921F0001E0202E10D02000E9
:1055200029000A220023FEF707FA013630322B0049
:10553000BA550D0022000400002BEED1092AECD848
:10554000149B1094119545469846159B4F46B146BD
:1055500056469A46169C0D9B069343460593534622
:1055600004930A2303930F9B02934B4601931CABB6
:105570002200009359463B002800FEF7D7FD0400A7
:10558000FFF704FC0F9B984500D8C1E18023DB00A6
:105590000D9343460F9A1B199B1A994633002E0010
:1055A0004D46B9465F469B460C9122004B4601345E
:1055B00039002020B047AC42F7D143460C99013363
:1055C0000F930B7835000C935E46BB464F46002B7D
:1055D00000D10EE50D9B002B00D1F6E4002319E667
:1055E0000C9B1B781A0015E710239A430D92EFE6E7
:1055F0000C9B1B78099361E6002399460028AAD1E9
:10560000002200231092119374E70C9B220018785B
:1056100059463B00A8474C468BE50C9AFA3BFF3BAA
:1056200007329A430133994691444B460C931368D1
:10563000526815921A4306D1103290430022099203
:10564000002900D081E06122810600D54122D2B23A
:105650000A9214AA91460A9A00210A3A14924246E2
:105660001792524618925A460991B3461F311E00AE
:105670000F9B4944BA4619941A95002467469846E8
:105680008946159D16901B920AE03032D2B24B46E5
:1056900001341A55A8454AD0202C4AD006000D00E6
:1056A0003A00002330002900FEF746F9D2B2092A59
:1056B000EBD9149B9C466244D2B2E8E76123820690
:1056C00000D54123DBB20A3B0C93434614A91F22A9
:1056D0008C46159353466244A046B2464C461797F3
:1056E000A9461700099D0D9E1490169308E03033CB
:1056F000DBB201343B55B5420ED3202C0CD0050053
:1057000031002800FEF7DAF8CBB20929EFD90C9A5C
:1057100094466344DBB2ECE7159B4D46A1464446F4
:105720009846169B564614989A46179FD0E5B7425E
:10573000B2D9179B57469846189B5E469A461B9BC4
:1057400009949B461698199C1A9D43460593534607
:1057500004930D9B0690039300230293099B05E796
:105760000F9B984500D914E701330F932DE41023C4
:10577000110099430D91692800D0BAE080231000F0
:10578000DB0018401A4200D122E61DE60C9B1B6884
:10579000DA0F1100002B00D18CE0DA179818504076
:1057A00014AA914642461F23149252464B44A046E7
:1057B000A946169704006546B2461F000C91159243
:1057C00001E0202D0FD020000A21FEF777F80135E7
:1057D0007E193031317020000A21FEF76FF8260063
:1057E0000400092EEDD8149B444698460C9BAC4609
:1057F0001900159B56464D469A46169F0D9B0291E1
:10580000069343460593534604930A230393634642
:105810003CE6002800D02EE602E60C9B1B68994669
:10582000002B03D110339843002938D1612382061D
:1058300000D54123DBB20A3B0C93434616935346F3
:1058400014A91F228C4617932B006244A0464D4694
:10585000B246189799461700149C0D9E159008E0C3
:105860003033DBB201343B55B5420ED3202C0CD083
:10587000050031002800FEF721F8CBB20929EFD945
:105880000C9A94466344DBB2ECE7169B14944446AE
:105890009846179B56464D469A461598189F43467C
:1058A0000593534604930D9B0690039300230293A4
:1058B000149BEBE50028A1D172E70C9B1B68D9175C
:1058C0005A184A40A6E580231000DB0018409C4689
:1058D0000F901A420FD00220030013400F93104282
:1058E00019D00023A1460F934CE50C9B1B6809932C
:1058F000E4E40A0034E40223180010400D9013423F
:1059000000D03EE54346002B00D042E6FFF771FB96
:1059100001330F937FE463460D93F3E70EB4012246
:1059200030B584B007AC08CC064D010000942800C7
:1059300052420394FFF702FA04B030BC08BC03B033
:105940001847C0467540001010B50C0084B0039491
:10595000012402A902900093034813006242FFF75A
:10596000EDF904B010BDC0460943001010B5094A56
:105970000300146884B0002C08D00122009106486E
:10598000524203A9A047012004B010BD00F098F9CD
:105990000020F9E7301F0020F942001000BEFDE7AB
:1059A00010B5FFF7FBFFC04670B5FDF73BFE074D96
:1059B000074EB54209D20024013E761BB60808CD39
:1059C000984723000134B342F9D170BD44880010D8
:1059D0004C880010030010B5080011001B689847A0
:1059E00010BDC046F0B5C64600B5437D07000C00AB
:1059F0001600002B46D0002A17DD0B780A2B24D086
:105A000000239846012E13D001252900635C01353F
:105A10000A2B26D0B542F8D1464509DCA419013C31
:105A200023780D3B5A4253413B7580BCB846F0BDCC
:105A30004346E018A419F11A013C3B6898472378C3
:105A40000D3B5A4253413B75EFE7037D002BD7D105
:105A500002210F483B689847012EDFD0012398466A
:105A6000D2E7631E5B5C0D2BD4D0884504DA434635
:105A7000C91AE0183B689847022105483B68A846C8
:105A80009847C7E70368110020009847CDE7C04654
:105A9000F8900010F0B5C6460B6806000C0000B583
:105AA000802B06D05A1C2260E418267180BCB846B0
:105AB000F0BD0F4B1D68002D16D00B1D98460D4FE5
:105AC00002E02D69002D0FD02B68002BF9D03B6828
:105AD000002B01D0AB42F4D1280041462268FFF7E9
