:020000041000EA
:1000000000B5324B212058609868022188439860DF
:10001000D860186158612E4B002199600221596106
:100020000121F02299502B49196001219960352056
:1000300000F044F80222904214D00621196600F024
:1000400034F8196E01211966002018661A6600F04E
:100050002CF8196E196E196E052000F02FF8012189
:100060000842F9D1002199601B49196000215960AB
:100070001A491B48016001219960EB211966A021F2
:10008000196600F012F800219960164914480160C1
:100090000121996001BC002800D000471248134993
:1000A000086003C880F30888084703B5996A0420EC
:1000B0000142FBD001200142F8D103BD02B5186610
:1000C0001866FFF7F2FF186E186E02BD00000240BE
:1000D000000000180000070000035F00212200005C
:1000E000F4000018222000A00001001008ED00E03C
:1000F00000000000000000000000000074B24E7A12
:1001000000200420F7010010CB010010CD010010E9
:10011000C9010010C9010010C9010010C901001077
:10012000C9010010C9010010C9010010CF01001061
:10013000C9010010C9010010D1010010D301001045
:10014000C1010010C1010010C1010010C101001067
:10015000C1010010C1010010C1010010C101001057
:10016000C1010010C1010010C1010010C101001047
:10017000C1010010C1010010C1010010C101001037
:10018000C1010010C1010010C1010010C101001027
:10019000C1010010C1010010C1010010C101001017
:1001A000C1010010C1010010C1010010C101001007
:1001B000C1010010C1010010C1010010C1010010F7
:1001C000EFF30580103800BE00BE00BE00BE00BECA
:1001D00000BE00BEF2EB8871D0920010F4920010C5
:1001E0003802001090A31AE71E481F49086006C88D
:1001F00081F3088810471D480068002801D019487D
:10020000F3E70DA40ECC002902D000F012F8F9E7B4
:100210001749184A002000E001C19142FCD116495B
:100220008847164988471649884700BEFDE701C937
:1002300001C29A42FBD37047F4920010C000002024
:10024000300D0020649F00100000042000000420F6
:10025000649F001000100420001004200000000023
:10026000704700000000000008ED00E0000000D032
:10027000300D00205C1C00202146001015030010EA
:10028000E1450010F8B5C04606480749091A8B1029
:10029000C90FC91810B5491003D0044B002B00D06A
:1002A000984710BD300D0020300D002000000000E8
:1002B000054B10B5002B03D00449054800E000BFF2
:1002C000FFF7E2FF10BDC04600000000F819002053
:1002D0001C7900107047F0B5C64600B584B0040024
:1002E0000E0017001D0001F0E7FE8046E117FA221C
:1002F00092000023200002F0E7FF02000B000295AD
:1003000001970096404602F0BDF804B080BCB846A4
:10031000F0BD000010B588B004F0A2FA134902AB9A
:1003200000220A20FFF7D7FF114B019300F02AF8B3
:100330000400104900F07AF90F4B1B78002BFBD119
:10034000200001F0EBF80028FAD00C4804F0CAFABB
:10035000200001F0F7F82100200001F0A1F8084A80
:1003600004230221200000F031FDE5E7D502001052
:1003700093E39A9200C00340551C0020207900109E
:100380003479001030B50023002B0ED00E4C2168BC
:100390000E4A4B005D18E800101811250561481C35
:1003A00020605B18D800801830BD074A1468074ADF
:1003B00060000519E9005118C91800254D750D7523
:1003C00001339BB2E0E7C046B80E0020C4190020FC
:1003D00070B582B0040001AB19705A700269C04652
:1003E000C046C046012529009140D0263606B1619D
:1003F000C046C046C046C0680222190007F03CFA59
:100400002369C046C046C0469D407561C046C0468F
:10041000C04602B070BDF0B5C64600B500AF80461C
:100420000C001600013230000830C008C0006946D8
:10043000091A8D460C70002403E0651C1C5D4C55A8
:10044000ECB2B442F9D343461B69C046C046C0462D
:10045000012420009840D0252D06A861C046C04642
:10046000C0464346D86807F007FA43461B69C046B2
:10047000C046C0469C406C61C046C046C046BD46B2
:1004800080BCB846F0BDF0B583B004000A006B46EE
:10049000DE1D002333706B46991D80235B4213439E
:1004A0000B700369C046C046C04601252A009A4029
:1004B000D0273F06BA61C046C046C046C068012288
:1004C00007F0DAF9E06801233200002107F094F91F
:1004D0002369C046C046C0469D407D61C046C046B7
:1004E000C046307803B0F0BDF8B5CE46474680B57B
:1004F00006009046994680277F420F43FFB202696B
:10050000C046C046C04601239340D02212069361E4
:10051000C046C046C046002408E04B461D193900BD
:100520003000FFF7B0FF28700134E4B24445F4D343
:100530003269C046C046C04601239340D02212060D
:100540005361C046C046C046C0BCB946B046F8BDBF
:1005500070B504000D001600FFF795FF020032434E
:10056000D2B229002000FFF733FF70BD70B505003F
:100570000E001400FFF787FFE44362B20240D2B2DC
:1005800031002800FFF724FF70BD0000F8B505001A
:100590000F0014001E0000220221FFF719FF0422A1
:1005A0000A212800FFF714FF802214212800FFF7FA
:1005B000CFFF3B00220012212800FFF72CFF03226F
:1005C00002212800FFF704FF0E4C0A212800FFF744
:1005D0005AFF400705D4013CA4B2002CF5D10320FA
:1005E0000FE0002202212800FFF7F2FE442128003C
:1005F000FFF749FF307042212800FFF744FF707079
:100600000020F8BD8813000010B504002821FFF772
:100610003AFF03230340032B00D110BD03231843EB
:10062000C2B228212000FFF7D3FEF6E7F8B5040098
:100630002D4DC560D026360680277F03B761FA208E
:10064000800001F087FE7761322001F083FE1120E7
:1006500000F09CFF80239B02736273612349280092
:1006600007F058F86B680222134021490A60296894
:1006700005325140C8320A401E490A601E4A1360C2
:100680000121122000F068FF0121132000F064FF17
:100690000121102000F060FF0F2202212000FFF74F
:1006A00097FE802254212000FFF792FEA9225621B6
:1006B0002000FFF78DFE032258212000FFF788FE5F
:1006C000E8225A212000FFF783FE40222A21200041
:1006D000FFF77EFE3D2222212000FFF779FE200059
:1006E000FFF792FFF8BDC04600C0034040420F0034
:1006F00004F0034000D0034004E00340F0B5DE46C0
:1007000057464E464546E0B587B004000F00150039
:10071000039310AB1B789A4614AB1B78994615AB24
:100720001B789B4600239846139B002B35D01B78E3
:100730004A461601F6B2F618F6B20022022120004F
:10074000FFF746FE7F2208212000FFF741FE8022AE
:1007500014212000FFF7FCFE039B524612212000CB
:10076000FFF759FE32001A212000FFF731FE3A0050
:1007700002212000FFF72CFE0C2F10D0FA26F600E5
:1007800008212000FFF77FFE05420ED1C00777D475
:10079000013E002EF4D1032073E00023C8E780223D
:1007A0001A212000FFF7D4FEE8E70C212000FFF714
:1007B0006AFE0500132303426AD1119B002B20D04F
:1007C000129B002B1DD014212000FFF75CFE0200BD
:1007D000129B1B7883425DD3129B18704B4600938B
:1007E000119B12212000FFF77FFE18212000FFF748
:1007F0004AFE072303409846139B002B01D0424634
:100800001A700823180028402B4245D1119B002B59
:1008100037D0129B002B34D05B46002B31D0129B7B
:100820001B78012B06D0012B26D94246002A06D080
:10083000072026E04246042AF5D1FF2021E0023BB2
:10084000DAB205AB11992000FFF7A0FE002818D1FD
:10085000129B1A78119B9B18023B197805AB1B78E9
:1008600099420BD1119B9B18013B1A7805AB5B7821
:100870009A4206D0072004E0072002E0072000E0AB
:10088000032007B0F0BCBB46B246A946A046F0BD67
:100890000120F6E70420F4E70220F2E730B587B044
:1008A0000CAC24780DAD2D78059504940B9C039425
:1008B0000A9C0294019300920B0030220C21FFF756
:1008C0001DFF07B030BD70B588B0060015001C00D4
:1008D00017236B441970002A22D02378012B21D9C9
:1008E00080221C21FFF742FE1F236B4407221A704F
:1008F000002203920292019300942B0001321721EF
:1009000069443000FFF7CAFF00280CD12378022B7E
:100910000BD11D336B441878002804D0012002E06D
:10092000042000E0042008B070BD0120FBE710B5F2
:1009300013000A002621FFF7C6FF10BDF0B5DE4602
:1009400057464E464546E0B58BB081460F0093466C
:10095000502A00D95EE180221C21FFF707FE012307
:100960009A465346022B36D0032B45D0012B01D09B
:10097000052450E107AB93221A705B46002B04D08C
:100980003B78042B25D8002100E000210023984665
:100990004346DB005A46D31A5DB21B0633D4002906
:1009A00033D007AB88229A70853AEB17072018409E
:1009B0004019C010C0B207232B405C1EA3411B1876
:1009C000DBB2002B23D1002900D185E008356DB2C0
:1009D00082E00121DAE707AB95221A705B46002B13
:1009E00004D03B78072B05D8002100E00021032329
:1009F0009846CDE70121FAE707AB97221A70062344
:100A000098460021C4E70025C9E70222CDE7002966
:100A10000AD003249C4200D31C000023AC4640466D
:100A20008846110002000AE00424F3E7D0184E1CA7
:100A30003818457807A845540133DBB2F1B2A34218
:100A4000F4D3654641469046BDE7E817410F6A1862
:100A500007231A40521AD2B2132102ACA4466144B1
:100A60000A7003405B19DB10DBB20233DBB2190101
:100A7000C9B2511807A84170511E8A41D218D2B28A
:100A80000592C21804920922D31A122262441370EA
:100A9000132602AB9C46664434782201A218D2B2D7
:100AA0001A214846FFF794FC002303930294019611
:100AB000123302AA944663440093049B059A07A943
:100AC0004846FFF7EBFE040002282DD0002800D096
:100AD000A1E01F2D4FDC20251F2DB6DD07A97023B7
:100AE0004B708878CC780A794B796040424053400B
:100AF0008B711B2302AA9446634407224846FFF7E2
:100B000045FD041E00D086E0132302AA94466344E8
:100B100000221A701223634403221A701A236344BA
:100B2000049309230593B3E71C214846FFF7ABFC68
:100B3000830670D41F231A000240034200D12022F2
:100B4000AA4200DC6FE055B2501EC3175B0FC018FD
:100B500007210140C91ACBB2581E8341D2089B1805
:100B60000133DBB207A8C25CFF240C400121A14085
:100B70000A43C254B0E7049E07AB9B78882B11D080
:100B80000222882B10D004204546B44684420FD25E
:100B9000511C2B1907AEB25CFB185A700134E4B239
:100BA000CAB2F3E70322ECE703204546B446EDE77B
:100BB0006646122302AA944663441B78032B34D161
:100BC000103363441B78002B31D116336344012268
:100BD00031004846FFF7DAFC041E1CD107AB9A78B7
:100BE00073789A4225D107ABDA78B3789A4222D14A
:100BF0003378042214001C401A4204D053460133B7
:100C0000DBB29A46ADE6FB7253465B0053440133B8
:100C10003B7000E0062420000BB0F0BCBB46B2469F
:100C2000A946A046F0BD0524F5E70124F3E7012419
:100C3000F1E70724EFE70724EDE730B587B00500BB
:100C400005A950230B7000234B7016336B4402220E
:100C5000FFF79CFC041E02D0200007B030BD00232B
:100C60000393029301930093042205A92800FFF740
:100C700015FE0328F0D0002801D00400ECE7012481
:100C8000EAE770B58AB00E9E07AC21706270002250
:100C900005E0911C9D5C07AC65540132D2B2052A77
:100CA000F7D9002307E01A000832F1184C7807A999
:100CB0008C540133DBB2032BF5D900230593049345
:100CC0000393029301930C33009307AB10220E2180
:100CD000FFF714FD0AB070BD10B508221021FFF710
:100CE00045FC10BD70B584B0060014001D00002A3C
:100CF00019D01B78112B18D9302313705170931C05
:100D000002222100FFF742FC00280FD101230393A8
:100D10000023029301930095230004222100300058
:100D2000FFF7BCFD02E0042000E0042004B070BD29
:100D3000F0B58DB0070014001D0000293AD0102A2C
:100D40003AD807AE300002F031FB331922003100EF
:100D50003800FFF71BFC061E2FD10234E4B21B2122
:100D6000694412230B701A2068440022027007ABFA
:100D700005920492039002910193009430320C2169
:100D80003800FFF7BBFC0300002D01D0032814D06E
:100D9000002B15D11B336B441E78012E12D11A2360
:100DA0006B441B78042B08D107AB1B780A2B0BD1A3
:100DB000060002E0062600E0062630000DB0F0BD79
:100DC0000600FAE70126F8E7FF26F6E770B582B0DD
:100DD0000600080014001D00002A13D00F2B13D9A1
:100DE00001A9A0230B704870002302223000FFF7F6
:100DF0009FFF002809D100232A0021003000FFF7BF
:100E000097FF02E0062000E0062002B070BD00005F
:100E1000072806D815D880000D4B1B589F460D4853
:100E20007047FF2811D10C48FAE70C48F8E70C4846
:100E3000F6E70C48F4E70C48F2E70C48F0E70C48FA
:100E4000EEE70C48ECE70C48EAE70A48E8E7C0465A
:100E500070890010387A0010147A00106879001038
:100E60007C79001098790010B4790010E4790010B2
:100E7000F879001040790010507900107F23184055
:100E8000402813D880000B4B1B589F46FF200EE0D4
:100E900004200CE005200AE0062008E0072006E018
:100EA000082004E0012002E0022000E0002070475A
:100EB0000320FCE79089001008280BD8002819D0DF
:100EC000082805D880000E4B1B589F460D4804E0AB
:100ED0000D4802E0FF2811D10C4870470C48FCE790
:100EE0000C48FAE70C48F8E70C48F6E70C48F4E73A
:100EF0000C48F2E70448F0E70B48EEE70248ECE75D
:100F0000948A0010107B0010447A0010EC7A0010D4
:100F10007C7A0010947A0010A07A0010AC7A00104D
:100F2000D07A0010DC7A0010547A001070B582B0CC
:100F30000600224803F0D6FC00240EE0202003F037
:100F400093FC75196A781E4901AD280003F01EFB59
:100F5000280003F0C7FC0134E4B23378A34208D977
:100F6000250033195B780F2BE8D8164803F0BAFC3C
:100F7000E7E7154803F086FC144803F0B3FCF37A66
:100F80000F2B16D9F27A0E4901AC200003F0FEFABD
:100F9000200003F0A7FCF07AFFF770FF04000C4874
:100FA00003F0A0FC2000FFF787FF03F09BFC02B0DA
:100FB00070BD302003F058FCE4E7C046D87B001039
:100FC0004C7B0010E47B0010907B0010E87B00104D
:100FD000F47B0010F0B5DE4657464E464546E0B578
:100FE00093B00390079108920493002205921F2B5F
:100FF00009D89B00DBB2984604230693069B5D1E2E
:1010000001239A4600E1049B272B22D81B01803B39
:10101000DBB2984610230693F0E7C44803F062FC65
:1010200004E1C34803F05EFC0CE1C24803F05AFC43
:1010300011E1202003F018FC0DE18146BE4803F0C9
:1010400051FC4846FFF7E4FE03F04CFC0A2003F095
:101050000BFC13B0F0BCBB46B246A946A046F0BD9F
:10106000202003F001FC0BAB9A5DB44911AE3000B7
:1010700003F08CFA300003F035FC03233B40032BD4
:101080000CD00137FFB20F2F0CD83E000BABDB5D4D
:101090000F2BE5D8AA4803F025FCE4E7202003F055
:1010A000E3FBEEE75346002B5CD00BA8C3799946CF
:1010B0001A09017A09910F231F000F40BB460E0940
:1010C00080791F000740BC4600094F463B400F2770
:1010D00061468F43BA4200D1EFE001230120034073
:1010E00005939300042189460F001F40BC465B46D0
:1010F0005B009A46022357461F40BA466746514650
:101100000F43BA4607003740BC46574661460F4377
:1011100010A98C460F7051000F0049460F400999E5
:10112000194039437710074039436746797049467B
:1011300011408A4659464910194057463943B7105D
:10114000074039436746B970521049460A4059462C
:101150008F103B401343F610304003436246D37078
:1011600000239A46069B042B00D1B4E005212800F9
:1011700001F0ECFCC6B2032E05D0681C052101F07D
:10118000E5FC864233D06F4803F0ACFB10AB9B5DAF
:101190009B469A08012399461A406B4F11AD3900BE
:1011A000280003F0F3F9280003F09CFB202003F053
:1011B0005BFB5B465A084B461A403900280003F097
:1011C000E5F9280003F08EFB202003F04DFB5A4682
:1011D0004B461A403900280003F0D8F9280003F0E4
:1011E00081FB5A4803F07EFB059B002B75D1032E33
:1011F00005D010AB9B5D012B73D0062B71D05448EA
:1012000003F040FB013C65B2002D00DA21E7ECB2AF
:101210004346E618F6B25346002B00D101E7049B83
:10122000092B00D9F9E6434803F05CFB464911AFAE
:10123000049A380003F0AAF9380003F053FB3D4844
:1012400003F050FB092E00D8EFE6632E00D9F0E63C
:10125000364803F047FB3C4911AF3200380003F039
:1012600095F9380003F03EFB304803F03BFB534652
:10127000002B0AD0079B0093089B424660210398ED
:10128000FFF7FFFC002800D0D7E61F2308AA9446EA
:10129000634412221A700BAA31000398FFF722FD53
:1012A0000600071E00D1EEE62A4803F01BFB3000C3
:1012B000FFF7AEFD03F016FBA4E70F2181438B453A
:1012C00001D001230AE70F209843864201D0012371
:1012D00004E7002302E7260055E71F4803F002FB5E
:1012E00085E70BADEE783606AB781B041E436B78B2
:1012F0001B021E432B781E43184803F0F3FAFF220B
:1013000032400E4F11AE3900300003F03FF930008B
:1013100003F0E8FA124803F0E5FA2A7B39003000BE
:1013200003F034F9300003F0DDFA68E7047C0010C4
:101330000C7C0010107C0010147C00104C7B001002
:10134000E47B0010487C0010087C00104C7C0010EE
:10135000907B0010307C0010507C0010787C0010D6
:10136000847C0010F8B505000E001F00042A05D08B
:10137000052A05D0032A14D1052402E0102400E038
:1013800028240B4803F07EFA013C08E0E4B2230075
:101390003A0031002800FFF71DFE013C64B2002C2A
:1013A000F4DA2800FFF749FC2800FFF795FCF8BDA8
:1013B0008C7C0010F0B5CE4600B588B0814631482F
:1013C00003F060FA00254AE02F4803F08BFA0198F9
:1013D000FFF71EFD03F086FA08B080BCB946F0BDE9
:1013E000202003F041FA2AE0202003F03DFA02AB6E
:1013F0001A5D264907AC200003F0C8F8200003F06E
:1014000071FA0136F6B2032E0BD8BC00E4B2A4196F
:10141000E4B202AB1B5D0F2BE6D81D4803F062FA65
:10142000E5E71C4803F02EFA0137FFB2032F14D86A
:10143000EC19E4B2092CD3D8174803F053FA174932
:1014400007AE2200300003F0A1F8300003F04AFAA2
:10145000114803F047FA019ED5E70435EDB20F2D90
:10146000BAD8132302AA9446634412221A70624621
:1014700029004846FFF736FC01900028A4D1019FBF
:10148000D4E7C046DC7C0010307C00104C7B0010A0
:10149000E47B0010907B0010047C0010087C00109E
:1014A00030B583B005000C000800FFF73FFDE07A7F
:1014B000FFF7E4FC0200062828D00BD8022805D943
:1014C000C31EDBB2022B19D8002310E042B2002A5F
:1014D00004D113E0073AD2B2012A0FD80D4803F025
:1014E000D1F90BE06946FF20C8540133DBB2052B6C
:1014F000F8D96B4621002800FFF734FF064803F0B7
:10150000C1F92800FFF799FB03B030BD2800FFF7B1
:1015100051FFF3E7F07C0010907B001000B583B022
:101520006B46DA1C0223137001A9FFF700FA0028AA
:1015300005D0022801D0002002E0013800E001209F
:1015400003B000BD10B500220100FFF7F7F94342D8
:101550005841C0B210BD000010B58300084A9A1867
:1015600014684022544080322240064CA446634412
:101570001A60C000044B9C466044416010BDC046E8
:1015800004C0014004D001400040014010B50123D7
:101590008340D0221206936293610521FFF7DCFF9E
:1015A00010BD000010B58023DB05186803051B0D76
:1015B0000B4A934207D10B4B034080229201934286
:1015C00007D1000F10BD084B084A0948132103F04A
:1015D0000BF8084B054A0648142103F005F8C046ED
:1015E0002709000000F0FF0F307D0010B88A0010BE
:1015F000547D00109C7D00100FB400B583B00848E6
:1016000003F040F9049B002B07D005A901911800B5
:1016100003F048F9034803F035F9012002F0DEFF3A
:10162000B07D0010C07D0010EFF3108072B6034B48
:101630001B68002BFBD0BFF35F8F70472C0100D0DD
:10164000BFF35F8F024B00221A6080F3108870474F
:101650002C0100D0F8B506000C001500FFF7E4FFE0
:10166000E308F718F15C07222240012393400B4264
:1016700005D1DBB20B433B70FFF7E2FFF8BD210061
:101680002800FFF7B9FFF0B583B006000191140000
:101690001F00FFF7C9FF00E00134BC420CD8E3088B
:1016A000F518F35C0721214001228A401A42F3D148
:1016B000D2B21A432A7001E001246442FFF7C0FF4E
:1016C000002C02DB200003B0F0BD019B002BF9D001
:1016D0000898FFF791FF0000054A1078431CDBB221
:1016E0001370172B02D9130010221A707047C046CE
:1016F000680C002010B582B00100054C054B00932A
:101700001F2318222000FFF7BEFF02B010BDC04605
:101710005C150020C47D0010002307E0054A9A18DC
:101720009200BFF35F8F0021116001331F2BF5D9A9
:101730007047C04640000034074B9B681030800063
:101740001950BFF35F8FBFF35F8F044B0021196007
:1017500082F310887047C04600ED00E0240100D0FD
:101760000048704700E400E010B5FFF7F9FF0023E0
:1017700002E0034A04C00133072BFAD910BDC0466A
:101780008080808010B50388DA0A1C2A05D15B05A9
:101790005B1502335B00C01810BD034B034A8E215A
:1017A0000348490002F020FFE07D0010F48A001099
:1017B000F87D001010B5091A0B1F0A4A88180A4A4A
:1017C000904208D8C90706D45B105B055B0D07483B
:1017D000184380B210BD064B064A872106484900CF
:1017E00002F002FFFC070000FE0F000000E0FFFF18
:1017F000407E0010E88A0010F87D0010012383402D
:10180000034A10681840431E9841C0B27047C04652
:1018100000E100E0002A05D0044BC022520099509C
:1018200019607047014A8023D150FAE700E100E0D7
:1018300010B50A001F230340012199404009FFF71A
:10184000E9FF10BD01238340014A13607047C04681
:1018500000E200E0024B9B6810308000C0587047E7
:1018600000ED00E010B5FFF7F5FF044BC31A0020B0
:101870002F229A424041C0B210BDC0466C0C0020DD
:1018800070B504000D00EFF3108672B60C4B1B68A8
:10189000002BFBD0BFF35F8F2000FFF7DBFF094B6E
:1018A000984201D0A84205D1320029002000FFF75C
:1018B00043FF70BD044B054A0548ED2102F094FE3C
:1018C000240100D0C1010010707E00101C8B00109C
:1018D000F87D0010F0B5DE4657464E464546E0B569
:1018E00089B0814601911500EFF3108B72B66F4BF2
:1018F0001B68002BFBD0BFF35F8F6D4B00269E57FC
:10190000002E40DB7400A419A4006A4824180622A3
:10191000A256674B1A70684B9A684B4610339B006F
:10192000D35898461B1A2F2B3BD9644B984531D17D
:1019300005AF634B3B80634973009A46981980005A
:101940005C4B984640440230FFF734FF78805E4B92
:10195000BB80FF23BB71FD71019B07933300534490
:101960009B00434407CF07C301231C43A0465A46AC
:1019700041464846FFF7E0FE09B0F0BCBB46B24620
:10198000A946A046F0BD514B514ABE2151484900DD
:1019900002F02AFE504B4E4A84214E48FF3102F09D
:1019A00023FE012342469A439246101A0C2101F06D
:1019B000F5F800290FD153460027DA79AA4212D947
:1019C0000621595600290DDB4A0052189200394968
:1019D0001F008B18F1E7414B3D4ACA213D484900A1
:1019E00002F002FE1F00002F2ED005AB3C4A1A80E9
:1019F000813A5A800623FB560293002B17DA3948A6
:101A000005AB9A469880029A9A71DD71019A079205
:101A1000381D2100FFF7CEFEB880BE71254B720045
:101A2000921992009B18524613CA13C39FE7381DA0
:101A3000FFF7A8FE01007000801980001D4BC01840
:101A40000430FFF7B7FEDBE705AF1D4B3B801D49B8
:101A5000730002939B199B00164A90461A00424459
:101A60000392901CFFF7A6FE7880039A101D514642
:101A7000FFF7A0FEB8801C4B52464146521A524115
:101A800053431B0DBB71FD71019A0792029B9B1979
:101A90009B00434407CF07C3114B52461380813B41
:101AA000538001231C43A04661E7C046240100D0B7
:101AB000561C00206C0C002000ED00E0C10100105D
:101AC00000A1FFFF9C0C002001BDFFFFA87E0010BD
:101AD000048B0010F87D0010D07E0010F87E0010FE
:101AE0000148000001BD0000AAAA0000F8B50122CB
:101AF00002432C4BD31A2F2B28D8EFF30583002B4E
:101B00002AD0EFF3108472B6274909680029FBD068
:101B1000BFF35F8F234D25490600761B7641714345
:101B2000090D4DB2224989689B00C958914219D0CC
:101B30000021032930D81B4B4A00521892009B18F1
:101B40009B795BB2AB421DD00131F2E7194B1A4AC7
:101B50001A481B4902F048FD1A4B174A17481A4900
:101B600002F042FD124A92681849D150184B1A7877
:101B700082711D70BFF35F8F0B4B00221A6084F3DC
:101B80001088F8BD074B4A005618B6009E19FF276B
:101B9000B771104AB280E9E70F4B074A07480F496F
:101BA00002F022FD6C0C0020240100D0AAAA000043
:101BB00000ED00E07C7F0010CC8A0010F87D001062
:101BC0007F020000A47F001082020000C10100100B
:101BD000561C002001BDFFFFB07F001093020000E3
:101BE00010B582B00100074C074B0093052300227B
:101BF0002000FFF748FD002801DB1F23181A02B060
:101C000010BDC0465A1C0020B87F0010024B9C46F5
:101C100061448900016070474000003410B5040041
:101C2000FFF75AFD01002000FFF7F0FFFF232371AB
:101C3000BFF35F8F10BD10B50400FFF74DFD01002D
:101C40002000FFF7E3FFFF23237100236371BFF33D
:101C50005F8F10BD10B50D4C09E00D4B0D4A0E48BD
:101C60001A2102F0C1FC2000FFF7D8FF08340B4B0B
:101C70009C4209D22368002BF5D0012BEDD1200026
:101C8000FFF7D9FF0834F2E710BDC046280D002049
:101C9000D47F00105C8B0010F47F0010300D00200A
:101CA000034B9C46614489000160BFF35F8F70471E
:101CB0004000003410B504000120FFF71BFD0100B7
:101CC0002000FFF7EDFF10BD30B5846A151B0B1D1A
:101CD0009B001B581B1B9D4204D3046A01238B40AD
:101CE000234202D1043189000A5030BD0004084368
:101CF000704700000A4B1968EFF3108372B60A6848
:101D0000002AFCD0BFF35F8F054A1268BFF35F8FD4
:101D10000021116083F3108840BF0020002170472C
:101D2000341C0020F0B5DE4657464E464546E0B529
:101D300087B0EFF3058303221A409246AE4B920020
:101D4000D7583B78534507D10123524693409946D3
:101D5000AA4B4A461A6025E1A94BAA4AAA489221F1
:101D600002F042FC7A6973009B19DB0090469844AC
:101D700043469C68DD68A54800F0E4FB001BA941D0
:101D8000002900DA16E1002D74DB43461B699B46EF
:101D90009F4B9B454FD00823F85E4346598889B234
:101DA000FFF7A4FF43465969D8470290039102996F
:101DB000039A0B00100013435CD013000A000028A4
:101DC00047DAA41A9D41009401954346009C019D69
:101DD0009C60DD600021595E002900DAEAE0786944
:101DE0004B005B18DB00C3189A68DB68A41A9D419E
:101DF000002D00DADEE039813D000835844604918B
:101E00002A000597B346009E019F049B002B2ADB06
:101E10000023D45E63001B19DB0063449C68DD680B
:101E200030003900001BA94100291CDB1A000021E9
:101E3000595E0491E9E743465B699B461B69584636
:101E40009847002816D05B461A685B680292039395
:101E5000ADE76E4800F076FB029B039C1B184C41DB
:101E600000930194B1E70499059F5E4643461980AB
:101E700016809FE0434600229B5E3B813A69EFF368
:101E8000108372B611680029FCD0BFF35F8F022166
:101E90007A5E41460A807E803A69BFF35F8F0021F7
:101EA000116083F3108885E03969EFF3108372B60F
:101EB0000A68002AFCD0BFF35F8FB88800B2012205
:101EC0005242BA803A69BFF35F8F0021116083F3F9
:101ED00010880500BC461CE0049300229A5E002A8C
:101EE0000EDB049B0021595E4B005B18DB00634452
:101EF0009868D96834003D00241A8D41002DEBDA32
:101F000004995D46009B9C4644460D800023E55E97
:101F10002280002D12DB634658696C006419E400CE
:101F20000419A668E7686146083108229A5EAB4644
:101F3000049163460093A0468446D0E767463EE09E
:101F40000023BB71390008310823F85E0EE001243C
:101F50006442E5179460D56008243B5F834204D057
:101F60000E8008243B5F138038813000431C29D049
:101F70007C6943001B18DB00E218E65E53881BB245
:101F8000002BE4DB1100F0E722002B0051461F4834
:101F9000FFF79AFE1D4800F0D5FA241A8D41002D56
:101FA00022DC1FD0194B4A465A630823FE5E002EDE
:101FB00000DBD7E6BB881BB2002B00DB74E7BB79E4
:101FC000002BBDD10823FA5E002A0DDB796953008E
:101FD0009B18DB00CB189C68DD68631CD4D16B1C9C
:101FE000D8D0D1E7002CDDD040BF07B0F0BCBB4655
:101FF000B246A946A046F0BD181A00203C70054024
:1020000088800010888B0010B480001000400540CC
:10201000251D001070B504000D0011000126AE4012
:1020200006622800FFF72CFC01212800FFF700FCC6
:10203000024B9C466444266070BDC04638200000B8
:10204000F8B5CE46474680B50600894690461F0043
:10205000C160FFF741FB154B9C4660448000306136
:1020600043463370BBB27381D0221206127872706D
:10207000012252423281B2809B187380002406E014
:10208000621E736965002D19ED005A530134BC427C
:10209000F6D3074B42469200D650064A4146484680
:1020A000FFF7B8FFC0BCB946B046F8BD40000034E9
:1020B000181A0020251D001010B5064B1B69002BB7
:1020C00001D0044810BD044B044A0548652102F0C4
:1020D0008BFAC046B40C0020F4800010708B001006
:1020E000B4800010F8B504000569EFF3108072B6F3
:1020F00029680029FCD0BFF35F8F0221665E656905
:1021000071008919C9006D18002E02DB0027E95FF4
:1021100061802169BFF35F8F00270F6080F3108813
:10212000002E2CDB0699296107996961AA60EB6092
:102130006B8801335B04590C002B00D101216980AD
:102140003000FFF7D3FD2169EFF3108372B60A6800
:10215000002AFCD0BFF35F8FA2882A80A680226964
:10216000BFF35F8F0021116083F31088E36821784B
:1021700001228A4003498C4663441A60F8BD01205D
:102180004042FBE73C20000070B582B0060014001E
:102190001D0008AB1B78002B07D100F0E9F92200E5
:1021A0002B00121A8B41002B0ADB079B0193069B25
:1021B000009322002B003000FFF794FF02B070BDA7
:1021C0000020FBE7F0B5C64600B584B005008846A0
:1021D00016001F000AAB1C78FFF76EFF02940197F0
:1021E00000962A004346FFF7CFFF04B080BCB846F4
:1021F000F0BD000030B504000A1443899A422EDA7B
:10220000406953009B18DB00C3182569EFF3108267
:1022100072B628680028FCD0BFF35F8F588885B25B
:102220000904090C884212D000202369BFF35F8F94
:102230000021196082F31088002811D0E36821780A
:1022400001228A4007498C4663441A6008E0064927
:10225000294389B259800123A3710120E5E70020B9
:1022600030BDC0463C2000000080FFFF10B50400D8
:10227000FFF722FF2100FFF7BDFF10BD4078704738
:10228000F0B583B006000F00EFF30583002B1AD1E1
:1022900006246442E517A4197D418D4202D803D17A
:1022A000844201D90024002500F062F922002B00AD
:1022B000121A8B41002B0BDC08D03000390000F0E3
:1022C0005FF903B0F0BD1648FFF796F9002AF4D085
:1022D000144A0023009320002900FFF773FF002811
:1022E00013DAEAE7104B1968EFF3108372B60A6845
:1022F000002AFCD0BFF35F8F0B4A1268BFF35F8FD9
:102300000021116083F3108820BF084B5B6A9D4257
:10231000E8D80649896AA142CFD29D42CDD1E1E7F2
:1023200018810010F51C0010341C002000400540EE
:1023300070B504000D0000F01BF900196941002977
:1023400002DBFFF79DFF70BD012040420049F8E726
:10235000FFFFFF7F10B5FA2292000023002100F05A
:10236000B3FFFFF7E5FF10BDF0B5CE46474680B599
:1023700083B005000C00EFF30583002B15D03F4B15
:102380005B6A8B4209D33D4A926A82420BD28B42EE
:1023900001D0012002E0002000E0002003B0C0BC1A
:1023A000B946B046F0BD0120F8E7FFF785FEC368E7
:1023B0009946037898462E002700484600F0C2F858
:1023C00002000B00B61A9F41434604339B004A4665
:1023D0009B581B1A0022BA420FDC0CD020BF274B9F
:1023E0005B6A9C422DD8254A926AAA422BD29C4213
:1023F00025D00120D2E7B342F0D9214A002300932F
:1024000028002100FFF7DEFE00281EDD1B4B5B6A63
:102410009C4205D8194A926AAA4202D29C4200D133
:1024200020BFFFF723FF154B5B6A9C4221D8134A5C
:10243000926AAA421FD29C4219D00120AEE7002026
:10244000ACE70020AAE70120A8E70C4B5B6A9C429E
:1024500009D80A4A926AAA4207D29C4201D00120B6
:102460009CE700209AE7002098E7012096E70020EB
:1024700094E7002092E7012090E7C0460040054025
:10248000F51C0010F0B585B005000C9C1100194337
:1024900001D101220023A5600A99216122606360B5
:1024A0000B996161D81701004240160043401F009C
:1024B000361A8F4100F05CF832003B0012184B4195
:1024C000002B0DDB012102910194074900912800A6
:1024D000FFF75AFEE060C317181AC00F05B0F0BD31
:1024E00001225242014BEDE7251D0010FFFFFF7F47
:1024F000004870470040054010B50B4B1B69002B8E
:1025000004D00A480A21FFF781FB10BDFFF7F0FF56
:102510000400032100F00CF80348102303222100DB
:10252000FFF78EFDEDE7C046B40C0020341C002000
:1025300010B5024A0248FFF78DF810BD68810010FF
:10254000601500200200436A906A1900536A99429C
:10255000FAD17047416A00E0416A9942FCD300E039
:10256000416A994202D1816A9142F9D370470000D1
:1025700010B50248FFF7E6FF10BDC0460040054019
:1025800010B502000B000248FFF7E4FF10BDC04683
:1025900000400540F8B5D646474680B506000D0018
:1025A0001700984644002418A400294B9C46644414
:1025B0006368089A934200D26260331FDBB29A4686
:1025C000012B2ED980221201C0239B01E3181A602F
:1025D000204BB200D158002907D0586900F0DEFA2C
:1025E000013043001B18033BFDD27F0123685F408D
:1025F000E0233B4080225201A21813605346012B76
:102600001AD980239B01E318802212011A60089BCB
:102610006360104BB6004246F250C0BCBA46B046AA
:10262000F8BD012DCED10322C0239B01E3181A600F
:10263000A368DB07FCD5D8E72168694003230B407A
:102640001360A3680122AA401A42FAD0D9E7C04613
:102650000080004064150020F0B583B005000E0036
:1026600017001800089900F099FA0300089A14025C
:1026700000943A0031002800FFF78CFF03B0F0BD52
:1026800010B582B0802464000094FFF783FF02B08D
:1026900010BD0000014B8000C05870476415002039
:1026A000F0B5C64600B504000E0017001D003748FF
:1026B00000F074FA8046364BFA18364B9A4239D8F5
:1026C0000100380000F06AFA0200103A98235B001B
:1026D0009A4235D86B1E062B38D8069B013B062B39
:1026E00034D83F09474537D32D04069B1B031D43B0
:1026F0002368002B36DB284B9C4244D00C2201235C
:102700009340264A1360264A1360264A126819002D
:1027100091430A1EF9D12660A060234BE3182132B1
:102720001A602268002AFCDAE56008221A6080BC80
:10273000B846F0BD1D4B1E4A1E48112101F054FF42
:102740001D4B1B4A1B48192101F04EFF1B4B184A19
:1027500018481C2101F048FF194B154A1548232140
:1027600001F042FF22683F231340B342C3D1A36864
:102770001B051B0D8342BED1E368EE22D20213403B
:10278000AB42B8D1D3E70D22B9E7C046001BB70072
:1027900080E84BD380F8A93200C0024000E000403E
:1027A00000F0004008C00040043000008C810010A0
:1027B000A08B0010DC8100102482001040820010E9
:1027C0008C820010024B1A68024B5A607047C04658
:1027D000C01900200080054010B5174B8022D2059B
:1027E0001A60164B164A1A6000290AD0154BE022CF
:1027F000D2041A60002809D1124B802212061A60F6
:1028000010BD0D4BE022D2041A60F3E743011B1AFE
:102810009B00181800010C4B186080235B04984241
:1028200002D3094B094A1A60FFF7CCFF054B8022FF
:10283000D2051A60E4E7C04600B005400820014018
:10284000FCFF010000A00540C0190020FFFFFF00B1
:1028500010B5030010000C4A8024E4051460002B1E
:102860000DD001221343094A094CD461094C5C4044
:102870001462516293620021FFF7AEFF10BD034B5B
:102880000022DA61F7E7C04600B00540008005404D
:10289000D3C007B02D3FF84F80239B000B43014A64
:1028A000D36270470080054010B5010018231B88D3
:1028B00014221088984710BD10B5010018231B88FA
:1028C00016221088984710BDF0B5C64600B507001F
:1028D0000E0000250123984600E00135B5420AD2DA
:1028E000AC003C192068FFF7DFFF20600028F4D11E
:1028F00000239846F1E7404680BCB846F0BD000092
:1029000070B504000D000648FFF7CEFF0300002C51
:1029100003DB0120A040290098470020FBE7C046C8
:1029200055420000074BAA2212011A608D22520064
:10293000DA60054B054A1A60024B5B68002BFBDA34
:102940007047C046004002400060024000B0FA00FC
:1029500010B5040001E008CC9847024B9C42FAD322
:1029600010BDC046147900107047000010B5024831
:10297000FFF7EEFF10BDC046D8780010054B064AA1
:102980001A60064B064A1A60064B1A68044B9343BA
:10299000FAD1704700E00040BFCDFBFE00F00040E0
:1029A000FE7F3C0008C00040044BDB6C002B03D1D1
:1029B000034B8022D2021A607047C04600001150BB
:1029C0004C201150044B054A1A60054B1B68DB4331
:1029D000DB01FAD17047C04600F00040FFFFFF0165
:1029E00008C00040034B40229A675A671A67DA66AC
:1029F0007047C04600F0014010B5FEF78DFE10BDD7
:102A000010B50C4A0C4BD21A92101400302A00D97F
:102A1000302292000948084900F0C8FC04E0084A46
:102A2000064BA100CA5001342F2CF8D9034B054A9C
:102A3000936010BDC00100100001001000000020D4
:102A4000C101001000ED00E070B50420FFF722FE88
:102A5000064900F0A3F805000024002C00DD70BD3D
:102A6000E0B22900FFF718FF0134F6E740420F00FB
:102A700030B583B0274B00229A67FFF753FF264BF0
:102A800001221A60234B5B6C012BFBD1234B0322E9
:102A90001A60204B9B6B012BFBD101330093043355
:102AA0001F4A01211F48FFF7FBFD052300931E4A23
:102AB00001211E48FFF7F4FD1D4B002202210420D6
:102AC000FFF7DEFD1B4D2B00002201210520FFF743
:102AD000D7FD194C2300002200210720FFF7D0FD6D
:102AE0002300002200210820FFF7CAFD8023DB001D
:102AF00000932300002200210920FFF7ADFD2B00E9
:102B0000002200210620FFF7BBFDFFF79DFF03B069
:102B100030BDC046008000403CB0004030B00040B6
:102B2000002F685900800240008C864700C0024098
:102B3000001BB70040597307006CDC0201480421F8
:102B4000014B1847D00C0020C9280010124A936F7F
:102B50009B0815D29066D166002905D0FFE7FFE7F4
:102B6000FFE7516F106F704704B580210906C21747
:102B70005140002800D0C84304F066FE002104BD87
:102B8000F0B5146E556E576F166FFFF7E3FF1466BE
:102B9000556657671667F0BD000000D0114A936F65
:102BA0009B0813D210665166002905D0FFE7FFE7A6
:102BB000FFE7516F106F704704B5002801D0002067
:102BC000C04304F041FE002104BDC046F0B5146EC0
:102BD000556E576F166FFFF7E5FF1466556657671A
:102BE0001667F0BD000000D094464A4A926F9208E2
:102BF000624601D228E0C046F0B5464E346E756E8E
:102C0000776F366F00F020F89446424A1466556696
:102C1000576716676246F0BD94463E4A926F920827
:102C2000624601D254E0C046F0B53A4E346E756E3D
:102C3000776F366F00F04CF89446364A1466556646
:102C4000576716676246F0BD002B24DB11D00029C0
:102C50003EDA00B5C943404200D1013100F038F8F6
:102C6000C943404200D10131DB43524200D101331C
:102C700000BD002AEBD1002801D1002905D0002099
:102C8000C90FC90701D1C043410800B504F0CCFD0C
:102C90000022002300BD00B500290ADBDB435242BD
:102CA00000D1013300F014F8C943404200D1013192
:102CB00000BDC943404200D10131DB43524200D143
:102CC000013300F005F8DB43524200D1013300BD6F
:102CD000002923D1002B18D1002A0CD0BC460D4F5F
:102CE00038667A6600210023FFE7FFE7FFE77A6F87
:102CF000386F67467047002801D00748010000B5CB
:102D000004F092FD0022002300BD02000B00002011
:102D100000217047000000D0FFFFFFFF002B00D014
:102D2000BFE0130C28D1002AE7D080B4114F3966D8
:102D30007A66FFE7FFE730B4040C7B6F396F1B0442
:102D400023433B667A66FFE7FFE7FFE7C04684B2AE
:102D50007B6F3D6F1B0423433B667A66FFE7FFE70B
:102D6000C04600232C042D0C7A6F386F001969417E
:102D7000B0BC7047000000D0F0B594460025140E9A
:102D800001D112020835140F01D112010435940F3C
:102D900001D192000235D40F01D152000135D40B7C
:102DA0000134254F7C66254C3C660E0C93B2FFE740
:102DB000FFE7FFE73C6F6643360C7703BE4673437D
:102DC000DF0B5B04C01AB941130C7343DB18C91A3B
:102DD000CE086643360CB64493B273431F0F1B01F3
:102DE000C01AB941130C73431F0B1B05C01AB9411C
:102DF000860D8F023E436643360C092D24DB520AB2
:102E00007243801A7703460A6643360C16235B1B0F
:102E1000DE40DF40BF1964466643821B70460435BE
:102E200006330100D940A840C01900D30131A242A5
:102E300006D20023F0BD0000000000D0FFFFFFFF1E
:102E4000121B0130F3D3F1E709277F1BFE406446D4
:102E5000A2B27243801A00D20139220C7243130CC1
:102E60001204821A99410B00704604351337010091
:102E7000F940A840801900D30131002B02D1A242B1
:102E80000AD2F0BD013000D30131121BFAD2013B4E
:102E9000F8D1A24200D2F0BD013000D30131121BA3
:102EA000F7E7F0B51C0C00D080E00CB400251C0A3C
:102EB00004D11B02160E3343120208351C0B04D139
:102EC0001B01160F3343120104359C0B04D19B00E8
:102ED000960F334392000235DC0B02D192185B410E
:102EE00001351C00971864410134464F7C66464CFE
:102EF0003C660E0CFFE7FFE7FFE7C0463C6F66430A
:102F0000360C7703BE4697B27743C01B00D2013917
:102F1000C01B00D201399FB27743C91BC91B170CD4
:102F200077437E04FF0B801BB941CE086643360C05
:102F30000C2D33DBB644120B1F053A431B0B97B223
:102F40007743C01B00D201399FB27743C91B170CCE
:102F500077433E043F0C801BB941860D8F023E43F0
:102F6000664329277F1BFE400C3D7746AF40BF19C3
:102F700030BCA2B2ABB272437343801A9941220CA7
:102F80007243130C1204801A994102000B0001379E
:102F9000001BA941F9D2781E0021F0BD0C277F1B30
:102FA000FE4077467F0BAF40FF19E0E700245D1C31
:102FB00007D0144F7D663966FFE7FFE7FFE7FFE7BD
:102FC0003C6F95B29EB265436643401BB141150C00
:102FD0001E0C6543664336042F0C3E432D04401BF4
:102FE000B141994204D202000B0020000021F0BD43
:102FF00001D19042F7D3801A994101349942F2D31A
:10300000F6E70000000000D0FFFFFFFF484041400E
:10301000484018B4134B5B68019308BD18B4114BBA
:103020001B68019308BD94460F4A926F920805D21F
:10303000624618B40B4BDB68019308BD0A4AF0B531
:10304000146E556E576F166F6246FFF7F2FF064A11
:103050001466556657671667F0BD18B4014B9B6838
:10306000019308BD301A0020000000D0FFB5504089
:103070004240504059404B40594000E0FFB5154F89
:103080004C00640D03D0BC4204D10C0314D80020C2
:10309000090D09055C00640D03D0BC4204D11C037A
:1030A0000AD800221B0D1B0501264B4009D44B40BA
:1030B00003D58B4200D18242FFBD9942FCD19042A0
:1030C000FFBD0B43DB1803431343F5D0C943491835
:1030D000FFBD0000FF07000000B5FFF7CFFF8041F4
:1030E00000BDC04600B5FFF7C9FF01D9002000BDF3
:1030F000012000BD00B5FFF7B9FF01D9002000BDD8
:10310000012000BD00B5FFF7B1FF804100BD0120E7
:1031100040054A00121804D85A00121801D800209D
:1031200070470120704700000021002805D170473A
:10313000C1174840401AFAD0C90713B5064B1B689F
:1031400098470CBC441CA2401005120B0349091BF4
:1031500009051943114310BD301B00201F04000056
:1031600010B54C00620D8023D218DB00D21A5B052B
:103170007E2A10DD9E3A13DACC1709034908194359
:103180005242D140640001341532202A05DAD04081
:103190000843604310BD002010BD0846604310BDC9
:1031A000C80FC018013810BD18B4024B5B6A0193F8
:1031B00008BD0000301A002010B50148FEF71CFAC7
:1031C000A882001070B513231C78012C12D0012C9A
:1031D00012DC214B214A93642148FFF765FB214B08
:1031E000186070BD20491D4A9800815001331F2B83
:1031F000F8D9ECE70023FAE71C48FFF75DFB050070
:103200001B48FFF759FB023803789B007F2B09DD31
:1032100012488022290000F0C9F8022C08D0022CA4
:10322000DADCD6E7134B144A1448332101F0DCF9F9
:10323000134B1A88B5231B029A4209D1114B1A88E5
:10324000114B9A4204D1114B1A88114B9A42E6D085
:103250000020FEF7D1F9C04695320010301A002048
:103260004C330000301B0020B931001053440000E3
:1032700053460000C0820010AC8B00100483001085
:1032800054380000D8380000494600009C3800003F
:103290005946000007B56046002800D100BE0188ED
:1032A0000A0A0230DF2AFAD1C9B2820804D302889E
:1032B00040880004104300E00068024A5050039028
:1032C00007BD0000301A002051434343C9188C4603
:1032D000110C83B24B4310B4040C614392B280B220
:1032E000504362431C041B0C001910BC59411304C9
:1032F000120CC018514161447047000010B50148DC
:10330000FEF77AF93079001070B513231E7818484B
:10331000FFF7D2FA0500012E11D0012E09DDAB1EF8
:103320001B789B007F2B1DDD12488022290000F0B6
:103330003DF81148FFF7B8FA104B186070BD0D4802
:103340005422290000F032F8002300E001331F2B43
:10335000E3D8084A9C00A258002AF7D10849054A38
:10336000A150F3E7074B084A0848422101F03CF915
:1033700053460000341B00204C330000301B00205B
:10338000FD3200105C830010C08B00109083001091
:1033900001480421014B1847E00C0020C928001007
:1033A000014B1B6818470000E00C0020014B5B68D4
:1033B00018470000E00C00209A4200D28854704761
:1033C000704710B5002802D00B684968984710BDB7
:1033D0000100002007E083001B185B00501C086000
:1033E0001078C01830380A681378303BDBB2092BEC
:1033F000F1D97047F0B5DE4657464E464546E0B532
:1034000083B093461F000C9B9A460D9C0E9B9946D9
:103410000F9B9B0717D0B8460F00060022E0551CF3
:103420004B4641462020B84701342A00B442F6D327
:103430003D004F465C46019B9B46B1464646B8461A
:1034400037002E000EE00192A34688464E46B9464C
:103450000700EBE7013C551C5346185D4346390015
:10346000B0472A00002CF5D135003E0047460F9B9F
:103470009B0711D4100003B0F0BCBB46B246A9466E
:10348000A046F0BD541C4B4641462020B8472200C0
:10349000531BB342F6D3EDE7B0464E46B9462F0074
:1034A0005D46F5E7F0B5CE46474680B585B0944613
:1034B00098460C9D0D9C0EAB1B789946109A119B5B
:1034C000129EB7071CD4002B0CD0F7070AD54F4625
:1034D000002F02D10C37374204D0013B02E03027E5
:1034E0002F550134944201D21F2CF8D9F70707D584
:1034F0009C4205D21F2C03D830272F550134F5E705
:10350000F70612D5770505D4002C03D0944221D0BC
:103510009C421FD00F9A102A2FD00F9A022A36D021
:103520001F2C0AD830222A5501341F2C05D84A46B0
:10353000002A32D02D222A55013403960293019499
:10354000009543466246FFF755FF05B0C0BCB9463B
:10355000B046F0BD621E012C17D00F9F102F0BD06C
:1035600014000F9A102AD8D1B206D6D51F2CD4D861
:1035700058222A550134D3E7023CB206F1D41F2C5D
:10358000EFD878222A550134CAE71400C2E71F2C6D
:10359000D3D860322A550134C2E7720703D52B22F3
:1035A0002A550134C9E73207C7D520222A550134EC
:1035B000C3E7F0B5DE4657464E464546E0B593B004
:1035C00081468A46089209931CAB10CB1B789B4618
:1035D0001E9D219B9846002C03D1102342469A43FE
:1035E00090468023DB0046461E4042461A4218D0D1
:1035F000002C22D0002614E0424692061BD5412121
:10360000C918C9B20A39C9B2771C0AAB9955290041
:103610002000FFF7C3FAAC4210D31F2F0ED83E0094
:10362000040029002000FFF7B9FACBB2092BE3D838
:103630003033D9B2E8E76121E2E727004346069339
:10364000209B05931F9B049303955B460293019770
:103650000AAB0093099B089A51464846FFF722FFA0
:1036600013B0F0BCBB46B246A946A046F0BDF0B5CB
:10367000DE4657464E464546E0B597B00A900B9158
:103680000C929A46209B9946219F22AA13789B462A
:10369000249B0993259C289B98464A463A4302D18D
:1036A0001032934398468022D20045461540434647
:1036B00013420AD04A463A4341D000252E005346D1
:1036C0000D934D46099B9A4621E02E0053460D93DB
:1036D0004D46099B9A461AE04246920623D541225E
:1036E000D218D2B20A3AD2B2731C99460EAB9A558E
:1036F0005246230028003900FFF78EFABC4220D83A
:1037000013D04B461F2B16D84E4605000F005246CD
:10371000230028003900FFF77FFAD3B2092BDBD84A
:103720003033DAB2E0E76122DAE7AA45E9D94E465A
:103730000D9B9A4608E04E460D9B9A4604E00026F3
:1037400002E04E460D9B9A4643460693279B0593FF
:10375000269B0493099B03935B46029301960EAB51
:10376000009353460C9A0B990A98FFF79BFE17B0EB
:10377000F0BCBB46B246A946A046F0BDF0B5DE4659
:1037800057464E464546E0B591B0804689460C9274
:103790009A461A9C1B9D22002B0020002900FFF74F
:1037A000B6FC002800D0F2E001225242D54B2000A6
:1037B0002900FFF7A7FC002800D0E8E001225242D0
:1037C000D14B20002900FFF787FC002800D0DEE065
:1037D0000022002320002900FFF77EFC002800D0F3
:1037E000EAE0069407958023DB001E9A1A400D92AA
:1037F0001E9A1A4201D106231C93069807990200CB
:103800000B000892099303000A00024300D1DFE095
:10381000080D4005400DBD4EB4466044079E32037E
:10382000120B1E00BA4B13431F00FFF781FCB94A6D
:10383000B94BFFF712FCB94AB94BFFF7EFFB089001
:1038400009910022B74B30003900FFF7E2FBB64A7E
:10385000B64BFFF702FC02000B0008980999FFF72E
:10386000DDFBFFF77DFC8346FFF762FC06000F00DF
:10387000AF4AB04BFFF7F1FB0022AF4BFFF7CEFB97
:10388000FFF76EFC0890AD4AAD4B30003900FFF7F2
:10389000E4FB06000F000898FFF74AFCA94AAA4B70
:1038A000FFF7DBFB02000B0030003900FFF7B1FB34
:1038B00006000F0002000B00FFF7CFFB0A900B91F0
:1038C000089BA24A94466344002100220891099271
:1038D0001B0509930023089332003B003000390098
:1038E000FFF79CFB0E900F9132003B0000208021DF
:1038F000C905FFF78EFB06000F000022944B0A98C3
:103900000B99FFF790FB0022924BFFF787FB020019
:103910000B000A980B99FFF786FB00228E4BFFF7EE
:103920007DFB02000B000A980B99FFF77CFB02005D
:103930000B0030003900FFF771FB02000B000E98FE
:103940000F99FFF770FB0022714BFFF767FB089A96
:10395000099BFFF782FB06000F0008960997069A5D
:10396000079BFFF7CFFB00280BD001235B429C464F
:10397000E3440022774B30003900FFF754FB0890F6
:1039800009915B466333C62B45D8042623E01E9B72
:1039900004931D9B03931C9B029300940195534633
:1039A0000C9A4946404600F0FBF811B0F0BCBB460B
:1039B000B246A946A046F0BD00210022069107921A
:1039C000069480231B069C46AC44634607930AE793
:1039D00000239B4604261E9B1B0528D5089A099B9D
:1039E000190011430FD05D4A5D4B06980799FFF708
:1039F00081FB00287AD000225A4B06980799FFF7DE
:103A00006BFB002872D01C9B5B4506DD5A469B1A57
:103A1000013B1C9303E00526DDE700231C93802374
:103A2000DB001E9A1A431E92002600239B461D9B14
:103A30009E4265D29F1B02231E9A1A400A921E9A2A
:103A4000134202D0002E00D000275B46002B07D087
:103A5000089A099B06980799FFF7E5FA06900791DF
:103A60000022002320002900FFF736FB002800D0A9
:103A70007CE03D4B1E9A1340049303971C9B0293DA
:103A8000069B079C0093019453460C9A4946404676
:103A900000F086F8002E00D187E71E9B9B0671D5AB
:103AA0004525441C5346020049462800C0475A4653
:103AB000D317D2185A4005230593013E04960023DC
:103AC00003930A3302935B46DB0F01930092534644
:103AD000220049464046FFF76CFD0A9B002B00D1AF
:103AE00063E7020047460C9E1D9D53E01C9B002B84
:103AF0009DD00D9B002B9AD01C9B013B1C9396E7FD
:103B0000002798E7FFFFEF7FFFFFEFFF01FCFFFFBC
:103B10000000F03FFB799F501344D33FB3C8608B44
:103B2000288AC63F0000F83F61436F63A787D23FF2
:103B300071A379094F930A400000E03F1655B5BBC9
:103B4000B16B0240EF39FAFE422EE63FFF03000060
:103B500000002C4000002440000018402D431CEBC6
:103B6000E2361A3F80842E41FFF7FFFF069C079D37
:103B70002200290080200006844661440B00069242
:103B8000079376E765258CE7541C53464946202069
:103B9000B8472200931BAB42F6D3100005E7C0469E
:103BA000F0B5DE4657464E464546E0B595B0069020
:103BB000079193469946209F1E9A1F9B100019005B
:103BC000FFF7A5FA002831D101225242BC4B1E98C2
:103BD0001F99FFF781FA002837D101225242B94BD1
:103BE0001E981F99FFF78EFA00283DD10022B64B90
:103BF0001E981F99FFF786FA00284AD10022B34B7E
:103C00001E981F99FFF768FA002842D1002200236E
:103C10001E981F99FFF760FA00284AD100239846A2
:103C2000229B5B0500D4B0E0002452E0229B03936A
:103C3000219B029303230193A54B00934B465A46C5
:103C400007990698FFF7D6FB08E1229B0393219B77
:103C50000293042301939F4B00934B465A460799C6
:103C60000698FFF7C7FBF9E0229B5B070ED59A4B3E
:103C700004222299039121990291019200934B46CB
:103C80005A4607990698FFF7B5FBE7E0934B0322E6
:103C9000EFE7229B0493219B039302971E9B1F9C9B
:103CA000009301944B465A4607990698FFF766FD24
:103CB000D4E01E9A1F9B00200021FFF7AAF91E9056
:103CC0001F9101239846ABE70CAB30221A55013FF8
:103CD00001341F2C01D8092FF6D81E981F99FFF721
:103CE0003FFA0500FFF724FA02000B001E981F9907
:103CF000FFF78FF97A4BFA009B181A685B680A92F3
:103D00000B93FFF7AAF908900991FFF74DFA060007
:103D1000FFF70AFA02000B0008980999FFF779F9F2
:103D20000890099100226F4BFFF7ECF900282ED084
:103D300001363000FFF7F8F902000B000A980B99E2
:103D4000FFF7D0F9002801D001350026002F2CD133
:103D50002800FFF7EDF902000B001E981F99FFF7EE
:103D600058F906000F0000225E4BFFF7B5F9002856
:103D700046D100225B4B30003900FFF7C3F9002821
:103D80003ED1EB073CD501353AE006274CE700224F
:103D9000544B08980999FFF79FF90028D6D1002EB7
:103DA00001D0F307D2D50136D0E7AA461F2C11D88F
:103DB000013F0A213000FEF7F1FE651C30310CABEB
:103DC00019550A213000FEF7E9FE092E0ED906002A
:103DD0002C00EBE755461F2C0CD87B1E002F09D07A
:103DE0000CAA302111551F000134F4E72B00554671
:103DF0001C00F0E71F2C03D80CAB2E221A550134FF
:103E00001F2C10D80A212800FEF7A0FE661C3031B6
:103E10000CAB19550A212800FEF798FE051E01D0AB
:103E20003400EDE734000323229A1340012B1CD009
:103E30001F2C06D84346002B32D00CAB2D221A552E
:103E40000134229B0393219B029301940CAB0093BA
:103E50004B465A4607990698FFF7CCFA15B0F0BCC6
:103E6000BB46B246A946A046F0BD219B002B13D00D
:103E70004346002B02D10C3313420FD0219B013B50
:103E80002193190003E00CAB30221A5501348C4207
:103E9000CED21F2CF7D9CBE72199F8E72199F6E785
:103EA000229B5B0704D50CAB2B221A550134C8E7C3
:103EB000229B1B07C5D50CAB20221A550134C0E745
:103EC000FFFFEFFFFFFFEF7F65CDCD4165CDCDC19A
:103ED000388400103C8400102C84001034840010BE
:103EE000D08D00100000E03FF0B5DE4657464E464C
:103EF0004546E0B593B007008A46934611930029E2
:103F000000D12CE3002508E06C1C5B462A005146DA
:103F1000B847119B013311932500119B1878002895
:103F200000D11EE32528EFD101331193002318009F
:103F300020E00123184301321192012418E00223EA
:103F4000184301321192012412E004231843013274
:103F5000119201240CE0082318430132119201242C
:103F600006E01023184301321192012400E00024DE
:103F7000002C09D0119A1378203BD9B21029F6D819
:103F80008B00C449CB589F468146119B1A78130079
:103F9000303BDBB2092B10D92A2A13D00B94119B8A
:103FA0001A782E2A20D0119A1378683BD9B2122998
:103FB00065D88B00B849CB589F4611A8FFF708FA7F
:103FC0000B90ECE71C9B1A1D1C921B68002B04DB5A
:103FD0000B93119B01331193E1E70222010011437E
:103FE00089465B420B93F4E78022D2004946114395
:103FF00089465A1C11925A781300303BDBB2092BC8
:104000000BD92A2ACFD11C9B1A1D1C921C68002C8C
:1040100008DB119B01331193C5E711A8FFF7D8F90D
:104020000400C0E70024F4E780235B0049460B430B
:10403000511C119151786C2901D099461FE0C02381
:104040009B004946194389460232119217E08023AA
:1040500049460B43511C11915178682901D099466A
:104060000DE0C0234946194389460232119206E009
:1040700080235B0049461943894601321192119B06
:10408000187867281CD8252800D25EE20300253B5B
:10409000DAB2422A00D958E29300804AD3589F46A8
:1040A00080239B0049461943894601321192E6E775
:1040B00080235B0049461943894601321192DEE7AD
:1040C000782800D941E2692800D23EE20200693A2C
:1040D000D2B201239340724A134210D11A0600D57E
:1040E0000CE25B0500D430E21C9B1A1D1C921E687A
:1040F000002C00D0BAE101225242330096E16F2831
:1041000042D005D8582841D0622803D1022606E0C3
:1041100078283DD010234A469A4391460A265828CB
:1041200038D0692805D0642803D00C224B4693432D
:1041300099464B465A0502D5012293439946692870
:104140002DD064282BD04B469A0500D5AAE0DA057D
:1041500000D5C2E05A0600D4D3E01C9A111D1C9170
:104160001168FF220A404B4605930B9B049303946E
:1041700002960023019300925B462A0051463800C4
:10418000FFF717FA05002AE00826C8E71026C6E759
:104190001026C4E720224B4613439946C1E74B46FD
:1041A0009A0520D4DA0551D45A0666D51C9A111DF9
:1041B0001C911168FF220A40D017111841404B464C
:1041C00005930B9B049303940296D20F01920091E6
:1041D0005B462A0051463800FFF7EBF90500119BBA
:1041E0000133119399E61C9A073207218A43110083
:1041F00008311C91116853689C46DB170C930D9392
:104200000C9A0D9B100048400E900D9B61464B4050
:104210000F930E980F990C9A0D9B801A99410E904E
:104220000F914B4608930B9B07930694049600232B
:1042300005936346DA0F0292009001915B462A00D3
:1042400051463800FFF713FA0500C8E71C9A111D04
:104250001C911268D0171118414005930B9B0493D1
:1042600003940296D20F019200915B462A005146B8
:104270003800FFF79EF90500B1E71A0605D51C9A2C
:10428000111D1C910023D25E96E71C9A111D1C91F2
:10429000126891E7348C0010788C0010C48C0010E8
:1042A000419000001C9A073207218A43110008310F
:1042B0001C9108930B9B0793069404960023059387
:1042C000029353681268009201935B462A0051469C
:1042D0003800FFF7CCF9050081E71C9A111D1C91ED
:1042E00005930B9B04930394029600230193136898
:1042F00000935B462A0051463800FFF75AF9050043
:104300006DE71A0606D51C9A111D1C91126812043D
:10431000120C28E71C9A111D1C91126823E74628ED
:104320001AD01C9B0733072293431A0008321C92B1
:104330004A4604920B9A039202941A685B680092B0
:1043400001935B462A0051463800FFF729FC05001F
:10435000119B01331193E0E520234A461A4391460D
:10436000DFE7672801D0472804D180231B014A4694
:104370001A439146452801D0472803D120234A46B5
:104380001A4391461C9B0733072293431A000832B5
:104390001C924A4604920B9A039202941A685B6834
:1043A000009201935B462A0051463800FFF7E6F978
:1043B0000500119B01331193AFE502234E461E40C9
:1043C0004A4613421ED001241C9B1A1D1C926A1CD3
:1043D000904618785B462A005146B847002E14D103
:1043E000119B01331193454697E5551C5B46514699
:1043F0002020B84723002A005C1C0B999942F4D86E
:104400001500E1E701232A00F6E7424606E0561CC4
:104410005B4651462020B8472C003200651C0B9BA0
:10442000A342F4D89046DBE701330A00197800294B
:1044300002D0511E002AF7D19B1B8022D200494690
:10444000114088464946114202D0A34200D92300B8
:10445000022249461140109149460A4208D02A00DA
:10446000250099463B004746984626E0220044E650
:10447000A1462A005146B2460E0006E0551C5B4696
:1044800031002020B84723002A005C1C0B99994278
:10449000F4D8150022004C46330056469A46914601
:1044A0002A0025003B004746984606E01D000136DD
:1044B000541C5B465146C04722003078002804D087
:1044C000002FF4D06B1E002DF0D115004B4647464F
:1044D000109A002A03D1119B013311931DE50B9E05
:1044E0002A0006E0551C5B4651462020B8472300B1
:1044F0002A005C1C9E42F5D81500ECE721234A46B1
:104500001A4313001C9A111D1C911268059308236D
:1045100004930394083302930023019300925B46B3
:104520002A0051463800FFF744F80500119B01337B
:104530001193F2E46C1C5B462A0051462520B847D3
:10454000119B013311932500E7E46C1C5B462A00A4
:104550005146B847119B013311932500DDE40A4F02
:10456000D0E45D450DD35B465A1E5B4651460020A4
:10457000B847280013B0F0BCBB46B246A946A046D7
:10458000F0BD2A00F1E7C046C13300100EB430B5CB
:1045900084B0010007AC08CC03940122054D0094BF
:1045A00052422800FFF7A0FC04B030BC08BC03B0A6
:1045B0001847C046B933001010B584B00C0002A9EA
:1045C00002904C6001240448009313006242FFF7FC
:1045D0008BFC04B010BDC046C333001000BEFDE725
:1045E00010B5FFF7FBFF000030B583B00D001900D8
:1045F000002A0BD0074B084C019200932B000200BD
:10460000200000F06FF90120FFF7E8FF034B1A00CC
:10461000F1E7C04644840010548400103079001043
:1046200010B5EFF30583002B00D000BEFEF79EF916
:10463000034C01E008CC9847024B9C42FAD310BDD2
:10464000147900101C79001010B503000800110047
:104650001B68984710BD0000F8B507000D00160054
:10466000437D002B02D0002400200CE003681100E1
:10467000280098472DE03B7D10E03B68154802215B
:104680009847601C0134B44214DA002CF3DD2B1976
:10469000013B1B780D3B5A425341DBB22A5D0A2A8B
:1046A000F0D1002BEED1A042E7DA3B68211A28189E
:1046B0009847E2E7B04203DA3B68311A2818984776
:1046C000002E06DDAD19013D2B780D3B5A425341BA
:1046D0003B75F8BD208E001070B505000368002BF7
:1046E00016D00C4B1C6805E0290004C92000FFF718
:1046F000B3FF2469002C09D02368002BF9D0064BA6
:104700001B68002BF0D0A342F3D1EDE700232B6010
:1047100070BDC046B4150020BC15002070B5050062
:104720000C000B68802B05D023685A1C2260E4180B
:10473000257170BD0800FFF7CFFFF5E710B5FDF755
:1047400017FF074A002312184B41002B03DB0548D3
:1047500003F0A2F810BD01225242034BF7E7C04616
:1047600040420F00280D0020FFFFFF7F10B50248D8
:1047700003F04AF810BDC046280D0020F0B5CE4623
:10478000474680B583B006000D0090461C00FFF739
:10479000D5FF81466B1C05D0002C08D0184F194B53
:1047A0001C6807E0300002F0EDFF0500F4E7164F4B
:1047B000F5E72469002C17D02368002BF9D0134BA0
:1047C0001B68002B01D0A342F3D12A003100200046
:1047D000B8474346002BECD06B46D91D0A230B701B
:1047E00001222000B847E4E74B46002B05D1280002
:1047F00003B0C0BCB946B046F0BDFFF7B7FFF6E75F
:1048000059460010B415002049460010BC15002080
:104810000A4A136802E01A0010321B69002B09D003
:1048200013688342F7D1002907D10369136000237D
:10483000036102E0002900D010607047B415002029
:1048400010B5064B1C6800E02469002C04D0636896
:10485000002BF9D09847F7E710BDC046B4150020EB
:1048600010B500F0D5F910BD10B582B004006B464C
:10487000D81D0470012300220121FFF77FFF2000D3
:1048800002B010BD70B5050002F07CFF04000123EA
:10489000012201002800FFF771FFFFF7D1FF200080
:1048A00070BD0000F0B5A3B004000E00FFF746FF96
:1048B000050001AF002301930948330022003900AD
:1048C000FFF77AFE04003800FFF706FFFFF7B8FF96
:1048D000002D02D1200023B0F0BDFFF747FFF9E71C
:1048E0001D4700100FB400B583B004A901C90191A0
:1048F000FFF7D8FF03B008BC04B0184770470000AA
:10490000014B00221A707047571C00204B79FF2B77
:104910000CD18B79002B0BD1CB79012B0AD1082A32
:104920000AD98A78054B1A70092000E000207047E8
:104930000020FCE70020FAE70020F8E7571C0020E1
:104940000120704710B5012927D1117953791B0235
:104950000B43134909788B4201D000201EE05378A5
:10496000012B03D0022B11D0002017E09178D378CF
:104970001B021943DB0506D5480A8A05D20F7F239F
:104980001940FDF7BDFF01204042F6E764220021F7
:104990000020FDF75DFF012000E0012010BDC046B2
:1049A000571C002000487047EC8E001010B5140012
:1049B000012910D15378012B0FD1127963791B0291
:1049C0001343072B01D0002006E0054A9F33210046
:1049D00001F054FB00E0012010BD0020FCE7C046C0
:1049E000448E00100123037000487047248E00108D
:1049F00010B50A784B781B0213438A7812041A43C5
:104A0000CB781B0613439622D200934200D010BDF0
:104A10000120002211004042FDF772FF024B186096
:104A2000024B19607047C0465415002058150020ED
:104A300010B5FDF79DFD0E4A002312184B41002BC7
:104A400012DB0C4802F028FF00280CD001200021C6
:104A5000404201F0D9F9002001F078FC0028F5D19E
:104A6000044802F0D1FE10BD01225242024BE8E799
:104A700040420F00381C0020FFFFFF7F10B5024BA3
:104A80001878FCF7DFFE10BD581C002070B5174BDE
:104A90001B68002B20D0EFF3108272B6100019684B
:104AA0000029FCD0BFF35F8F10494A60104B0022F1
:104AB0001A700B68BFF35F8F1A6080F310880024B0
:104AC00000250C4B1878FCF799FE002808D100242B
:104AD00000252000290070BDFA24A4000025F0E77D
:104AE000044B1878FCF7AEFEF3E7C046101A00201E
:104AF000591C0020581C0020F0B585B00600140099
:104B00001D000CAB1F78FDF733FD22002B0012189F
:104B10004B41002B09DB02970B9901910A990091F7
:104B20003000FDF731FB05B0F0BD01225242014BD0
:104B3000F1E7C046FFFFFF7FF0B5C64600B584B081
:104B40000500884616001F000AAB1C78FDF7B4FA72
:104B50000294019700962A004346FFF7CDFF04B068
:104B600080BCB846F0BD000010B582B022480021DC
:104B700002F072FE00281ED1204B1B68002B18D0BB
:104B8000EFF3108172B608001A68002AFCD0BFF358
:104B90005F8F1A4A51601A490B78DBB201240C70FE
:104BA0001268BFF35F8F0021116080F31088002B23
:104BB00017D002B010BD01200021404201F024F9BD
:104BC000002001F09BFB04000B4802F01DFE002CAE
:104BD000EFD00C4B1B68002BEBD00B4A10689847AA
:104BE000E7E70A4A013300930023FA2080000021FE
:104BF000FFF7A2FFDDE7C046381C0020101A002096
:104C0000591C002054150020581500208D4A001012
:104C100010B582B0D0231B061C68FDF74DFAFDF7D6
:104C20002DFBA04230D1274B1B780021002002F041
:104C30004FF8254B1B68002B2CD00120FCF7D0FF30
:104C4000224C20702249FF231840FCF719FE2078DF
:104C50000121FCF7EDFD0520FCF704FE041E1DD02C
:104C60000120FCF747FD01001A4B1800FDF718F86A
:104C7000194900220520FCF72DFE18480121FFF7F5
:104C8000C7FD200002B010BD154B164A1648C621BC
:104C9000FFF7AAFC0C48FCF7C1FFCEE70D4808223D
:104CA0000021FEF77DFB114A012300930023FA2027
:104CB00080000021FFF740FFC043C40F0028E0DA66
:104CC000DBE7C046F0920010381C0020581C002082
:104CD000694B0010101A00207D4A0010F00C0020D3
:104CE000848400101C8F00108C8400108D4A0010EA
:104CF00010B5002001F0E6FA10BD000070B5050007
:104D00000C00FFF7F5FF002834D0002001F0F6FA80
:104D1000002832D0FDF72CFC1B4A002312184B410F
:104D2000002B19DB194802F0B7FD002828D0FFF747
:104D3000DFFF002804D0002001F0E0FA00280FD1A6
:104D400001200021404201F05FF8032464420F4833
:104D500002F05AFD200070BD012252420C4BE1E7E7
:104D600022002900002001F0D5FA041EEFD103240F
:104D70006442ECE703246442ECE703246442E9E77D
:104D800003246442E6E7C04640420F00381C00207E
:104D9000FFFFFF7FF0B5C64600B580460C00FDF76B
:104DA000E7FB314A002312184B41002B07DB2F4849
:104DB00002F072FD002806D180BCB846F0BD012289
:104DC00052422B4BF3E7FFF793FF002849D1294BC1
:104DD0000020002118605960244802F015FDEBE71F
:104DE00001200021404201F00FF8002001F0AEFA4E
:104DF000FFF77EFF0028EFD0002001F023FB002802
:104E000020D0A542E8DA661B002001F01BFB02005F
:104E1000864200DC3200002AE2D0434659190020C5
:104E200001F0ECFA060001200021404200F0ECFF06
:104E3000002001F08BFAAD19FDF79AFB0D4B1860BD
:104E40005960DEE7FDF794FB0A4B1E685F680A4A6B
:104E5000002392197B419942BED8D2D19042D0D939
:104E6000BAE70025CDE7C04640420F00381C0020BD
:104E7000FFFFFF7FB00E002020A107000048704711
:104E8000988F001000487047448F001010B5040040
:104E9000154B1B78002B0ED0002C11D1134B144A4C
:104EA0005A80012301335B009BB21048C02292005C
:104EB0001343038010BD0C48112100F025F8EBE7E7
:104EC000052C0ED80B4BA400E4580023122BE9D874
:104ED000E15C0029E6D00133044A58008152DBB27C
:104EE000F4E70020E6E7C046401C00208C150020B7
:104EF000090400002C8F001010B5024800F030F8B3
:104F000010BDC046281A002010B5002901D000238A
:104F100008E00F4B0F4A10483B31FFF765FB373273
:104F2000C25401334A1E9A420ED90F2B0CD85A088C
:104F30000A4CA45C01229A43920014410F222240A1
:104F4000092AECDC3032EBE7C0180023037010BDF7
:104F50001C850010AC8F001024850010281A00203A
:104F600070B588B0040004AD0D2200212800FEF7C2
:104F700017FA0D2200216846FEF712FA4B232B7018
:104F80000D226946280002F02FFC002304E05A1D80
:104F900069468A5CE2540133072BF8DD08B070BD26
:104FA00070B582B07F230340C509274C5E00761997
:104FB0007601A419A0706842684160700020E0701A
:104FC0002183E276012D1ED0D800204A9446604409
:104FD0001D4A590049194901521890601A4A59004E
:104FE000491949015218926800211160002B10D113
:104FF000154A5B005B195B01D31800225A60144A02
:10500000DA6002B070BDD800124A94466044A060D5
:10501000E4E7012D0BD0591EC9000F4A94466144A4
:10502000094A5B005B195B01D2185160E9E7591E20
:10503000C9000A4A94466144034A5B005B195B015C
:10504000D2185160DDE7C046C01500208400105022
:1050500000011050800010500C001050080010503B
:1050600010B5038B3F333F229343C27E022A08D000
:1050700008490A68C260D3180B60074A934202D8F5
:1050800010BD5B00F4E7054B054A06485221FFF7C7
:10509000ABFAC046F4190020FF0F10507C870010B7
:1050A0000C900010C0870010F8B57F250540C60998
:1050B0006B009B195B010E4C1C19FFF771FF002D53
:1050C00000D1F8BD0A4B6D00AD196D015D19298B3A
:1050D0002000FFF7C5FFEB7E9B06E968054A4A40C2
:1050E00013438022120613436A681360E9E7C0463F
:1050F000C01500200000105010B504007F20204093
:10510000E409400000194001024BC01800F026F9E4
:1051100010BDC046C015002010B5002804D10121E3
:105120000520FCF785FB10BD034B044A9821044879
:10513000FF31FFF759FAC04630880010FC8F00108D
:10514000C087001010B5002805D100220021802062
:10515000FFF7D2FF10BD034B034AA2210348FF31E2
:10516000FFF742FA30880010EC8F0010C087001063
:10517000024B80225202DA647047C0460020115070
:1051800070B5041E27D100F0C7F8164D0C23AB678D
:105190001549FF220520FCF79DFB14484022002101
:1051A000FEF7FEF8002240210020FFF77DFF0022DD
:1051B00040218020FFF778FF02F03EFB01232B64A3
:1051C00080239B05EB649023094AEA502000FFF7F7
:1051D000CFFF012070BD074B074A64210748FF310C
:1051E000FFF702FA00001150BD040020C015002096
:1051F00010D001003088001020900010C0870010EF
:10520000044B1970002904D0034A9023802189029D
:10521000D1507047521C0020002011500B785B06C3
:1052200002D14B78052B00D070478A78014B1A6069
:10523000FAE7C0460000115010B5CA789207920FE5
:10524000012A0AD088780B7949790902194349055E
:10525000490DFFF729FF012010BD0020FCE710B524
:1052600002F0EAFA10BD000010B5040008001100B9
:105270001A00002C03D1FFF73FFF012010BD034BA4
:10528000034A812103488900FFF7AEF930880010F6
:10529000DC8F0010C087001010B57F231800084075
:1052A0000B4205D1CB09012B0ED00222074B9A6687
:1052B000C909400040184001054BC0188022120166
:1052C000002102F001FB10BD0122EFE70020115088
:1052D000C015002010B57F22100008400A4200D1FE
:1052E00010BDC909400040184001044BC0180023FC
:1052F000C3700022024902F0E7FAF1E7C01500206E
:10530000FFF7FFFF04E00A780270013101301A0054
:10531000531E002AF7D1704710B580235B040A4A58
:1053200013600A4A13600A4B1A6880235B04934394
:10533000F9D18022520100210648FEF731F8064BD0
:1053400009225A6710BDC04600E0004000F000404E
:1053500008C00040000010500000115070B504005B
:105360000D001600837E002B17D1A6820023E38256
:105370000133A3762561200002F04EFA002804D004
:105380000C4A902380218902D150200002F07CFA3F
:1053900000280AD00123237770BD81780648FFF7E3
:1053A000A1FA200002F088FADFE7200002F07CFA80
:1053B000F2E7C046002011502089001070B50500AA
:1053C000002408E09B1A5B01164A9B18DB68280042
:1053D00098470134E4B2144B1A782300511CA142BF
:1053E0000DDBA242EED9114B1B6862019B18002B0A
:1053F000ECD10F490F48104AFFF774FA10E00F4C38
:10540000542200212000FDF7CBFF201D1022FF2198
:10541000FDF7C6FF200014302022FF21FDF7C0FF5A
:1054200070BDC0469C910010511C0020BC0E002095
:105430006891001058890010250200006C100020AF
:1054400010B5FFF7BBFF00F065FE10BD70B505009D
:105450000C001600486900F067FE63693200012104
:105460002800984770BD0000F0B5DE4657464E460E
:105470004546E0B583B082460139C8B2FFF702FD68
:10548000002803D043789946022B0CD05649574840
:10549000574AFFF727FA002003B0F0BCBB46B246DC
:1054A000A946A046F0BDC5796C110122514B1440AC
:1054B000240119781026B14321431970AD112A40F7
:1054C0005201C9B22024A1430A431A7006000936CA
:1054D0008278C3781B02134383469B444B46019357
:1054E000370066E0FB7899463A78BF1868E03E4995
:1054F0003E48414AFFF7F6F90020CDE7009AD31A5B
:105500005B013E4E9E193369220039005046984790
:10551000082801D9844216D20135EDB2384B1B78E8
:1055200000955A1CAA423EDBAB42E7D9354B1B68BB
:105530006E019E19002EE6D12B492C48324AFFF706
:10554000D1F90020A8E73400009E00904B46012BC3
:1055500011D00020494681421BD9BB781B18DBB211
:10556000244AD2181279FF2A0CD1224AD3181D716D
:105570000130C0B2EFE72169244A9142E9D1019B91
:105580009946E6E718491948214AFFF7ABF9002088
:1055900082E720482B00009C2200390001F06EFCBD
:1055A000A446674400E02E00154B1B7801339E4251
:1055B0000FDC5F4515D27B780B2B93D001239946E6
:1055C0007A78042A93D15B46DA1B93B200251C003B
:1055D000A4E7852204490548D200FFF783F900209B
:1055E0005AE7012058E7C0463C9100105889001046
:1055F000D60300006C100020F10300009C91001005
:10560000511C0020BC0E0020FA030000C1650010F0
:105610001904000080100020704770470020704778
:105620000020704770B505000C00CB7888780F2BF0
:1056300053D89A002E498A589746FFF71FFC021E3E
:1056400005D012232100280000F018FD46E029496A
:1056500029482A4AFFF746F900203FE0FFF7A2F960
:10566000021E3CD08178C3781B020B432100280026
:1056700000F004FD32E0022B0CD0FFF7D1FF021E38
:105680002FD09178D3781B020B432100280000F023
:10569000F5FC23E0FFF7F6FB021EF2D11549164890
:1056A000174AFFF71FF9002018E0237961790902F2
:1056B0001943FFF7EBFB021E15D0037821002800E9
:1056C00000F0DCFC0AE0FFF7A9FF021E0DD0037812
:1056D0002100280000F0D2FC00E0002070BD002076
:1056E000FCE70020FAE70020F8E70020F6E7C046D4
:1056F0003C90001024910010588900103A040000DA
:10570000610400007047704770477047024B58783B
:10571000431E9841C0B270476C100020024B1878AD
:105720004007C00F7047C0466C100020034B18782C
:10573000FF38431E9841C0B27047C046240D002078
:10574000F8B505000F00FFF7F1FF061E48D1002F46
:1057500021D02E4854220021FDF722FE2C4B00229E
:105760001A702C4C2000FCF759FA2B4B1C602B4C68
:105770002000FCF79FFA143C200001F019FF284B91
:105780001C60284B002B04D02748FFF72BF9274B30
:105790001860002410E0E922254926485200FFF74E
:1057A000A1F81DE09B1A5B01234A9B185B68002B44
:1057B00010D098470134E4B21B4B1A782300511CD7
:1057C000A1420FDBA242EDD9184B1B6862019B1866
:1057D000002BEBD1F822164916485200FFF782F849
:1057E0003000F8BD154B1D7039002800FFF7C8FCCC
:1057F000061E03D02800FFF78FFCF1E7FC220C49BE
:105800000C485200FFF76EF8EAE7C0466C10002023
:10581000531C002064100020C01000201C0D00202C
:10582000C4100020E5490010511C0020BC0E0020CF
:105830008C910010588900109C910010240D0020BC
:1058400070B50D00104B1E788B7870221A420DD166
:105850000E4B9978280001F0BBFA041E0DD02900E8
:105860003000FFF7E9FC0400200070BD084909483A
:10587000094AFFF737F80024F6E705490548074AC3
:10588000FFF730F8F0E7C046240D00206C10002030
:10589000F4900010588900100B0500000C05000062
:1058A000F0B5D6464F464646C0B581460C001700B7
:1058B0009846089B9A46002517E018491848194A47
:1058C000FFF710F800263000E0BCBA46B146A84603
:1058D000F0BD9D2211491248D200FFF703F8F2E70C
:1058E000099A13702378E4180135AF4214DD637808
:1058F000052BE2D1E1788907890F4145DDD12100EF
:105900004846FFF79DFF061EE3D0A378DA09012A77
:10591000E6D052461370E5E70126D4E70491001063
:1059200058890010E704000010B57F200840C9091D
:10593000400040183030044BC0180430034B196845
:1059400001F002FA10BDC0466C100020C01000200B
:1059500010B57F200840C909400040183030044B82
:10596000C0180430034B196801F016FA10BDC04688
:105970006C100020C0100020F0B5C64600B582B003
:1059800001931A4800787F250D40CE09184C6F000E
:10599000E419A41930342479E4071DD4144C6F00A1
:1059A000E419A419303423790127BC4667463B43E8
:1059B0002371019BFFF758FC002813D10C4B6D009D
:1059C0005B199B1930331A7901218A431A711A79AC
:1059D00003318A431A7105E006490748074AFEF772
:1059E00081FF002002B080BCB846F0BD240D00202D
:1059F0006C100020E4900010588900103905000058
:105A000070B50A4B18787F240C40CD09FFF744FC91
:105A1000074A640013195B1930331A7902210A43CB
:105A20001A711A7901210A431A7170BD240D0020E0
:105A30006C10002070B50A4B18787F240C40CD09FB
:105A4000FFF748FC074A640013195B1930331A79D1
:105A500002218A431A711A7901398A431A7170BD79
:105A6000240D00206C1000207F220A40C909044B3D
:105A700052009B185B18303318798007C00F7047AD
:105A80006C100020F0B585B005000C00002000F07F
:105A90004BFB237860221A40602A1AD0402A20D07B
:105AA0002378DB06DB0E012B00D1D6E0022B00D1E0
:105AB00016E1002B00D07CE1202A1CD0002A00D067
:105AC0007FE16378092B00D97DE19B00C54AD3585B
:105AD0009F465532C449C5489200FEF703FF002691
