:020000041000EA
:1000000000B5324B212058609868022188439860DF
:10001000D860186158612E4B002199600221596106
:100020000121F02299502B49196001219960352056
:1000300000F044F80222904214D00621196600F024
:1000400034F8196E01211966002018661A6600F04E
:100050002CF8196E196E196E052000F02FF8012189
:100060000842F9D1002199601B49196000215960AB
:100070001A491B48016001219960EB211966A021F2
:10008000196600F012F800219960164914480160C1
:100090000121996001BC002800D000471248134993
:1000A000086003C880F30888084703B5996A0420EC
:1000B0000142FBD001200142F8D103BD02B5186610
:1000C0001866FFF7F2FF186E186E02BD00000240BE
:1000D000000000180000070000035F00212200005C
:1000E000F4000018222000A00001001008ED00E03C
:1000F00000000000000000000000000074B24E7A12
:1001000000200420F7010010CB010010CD010010E9
:10011000C9010010C9010010C9010010C901001077
:10012000C9010010C9010010C9010010CF01001061
:10013000C9010010C9010010D1010010D301001045
:10014000C1010010C1010010C1010010C101001067
:10015000C1010010C1010010C1010010C101001057
:10016000C1010010C1010010C1010010C101001047
:10017000C1010010C1010010C1010010C101001037
:10018000C1010010C1010010C1010010C101001027
:10019000C1010010C1010010C1010010C101001017
:1001A000C1010010C1010010C1010010C101001007
:1001B000C1010010C1010010C1010010C1010010F7
:1001C000EFF30580103800BE00BE00BE00BE00BECA
:1001D00000BE00BEF2EB88714C5500106C5500104B
:1001E0003802001090A31AE71E481F49086006C88D
:1001F00081F3088810471D480068002801D019487D
:10020000F3E70DA40ECC002902D000F012F8F9E7B4
:100210001749184A002000E001C19142FCD116495B
:100220008847164988471649884700BEFDE701C937
:1002300001C29A42FBD370476C550010C0000020E9
:10024000880400203459001000000420000004201D
:100250003459001000100420001004200000000099
:10026000704700000000000008ED00E0000000D032
:1002700088040020AC090020DD3F00102503001099
:100280009D3F0010F8B5C04606480749091A8B1073
:10029000C90FC91810B5491003D0044B002B00D06A
:1002A000984710BD8804002088040020000000004A
:1002B000054B10B5002B03D00449054800E000BFF2
:1002C000FFF7E2FF10BDC0460000000070070020ED
:1002D00044450010F0B583B005000C001700032959
:1002E00019D903230B40032B01D1082614E00C4B32
:1002F00000900A00602100F0C4FC061E0CD104230B
:100300003A002100280000F061FD061E04D12800FB
:1003100000F0E2FC00E00826300003B0F0BDC0466B
:100320004004002010B582B003F060FF104B019331
:1003300000F028F804000F4900F078F90E4B1B7804
:10034000002BFBD1200001F0EDF80028FAD00B487B
:1003500003F08EFF200001F0F9F82100200001F0E9
:10036000A3F8074A04212000FFF7B4FFE6E7C046E0
:1003700093E39A9200C00340A90900204845001069
:100380005C45001030B50023002B0ED00E4C2168C8
:100390000E4A4B005D18E800101811250561481C35
:1003A00020605B18D800801830BD074A1468074ADF
:1003B00060000519E9005118C91800254D750D7523
:1003C00001339BB2E0E7C04608060020400700204A
:1003D00070B582B0040001AB19705A700269C04652
:1003E000C046C046012529009140D0263606B1619D
:1003F000C046C046C046C0680222190004F070F82A
:100400002369C046C046C0469D407561C046C0468F
:10041000C04602B070BDF0B5C64600B500AF80461C
:100420000C001600013230000830C008C0006946D8
:10043000091A8D460C70002403E0651C1C5D4C55A8
:10044000ECB2B442F9D343461B69C046C046C0462D
:10045000012420009840D0252D06A861C046C04642
:10046000C0464346D86804F03BF843461B69C04683
:10047000C046C0469C406C61C046C046C046BD46B2
:1004800080BCB846F0BDF0B583B004000A006B46EE
:10049000DE1D002333706B46991D80235B4213439E
:1004A0000B700369C046C046C04601252A009A4029
:1004B000D0273F06BA61C046C046C046C068012288
:1004C00004F00EF8E06801233200002103F0E8FF99
:1004D0002369C046C046C0469D407D61C046C046B7
:1004E000C046307803B0F0BDF8B5CE46474680B57B
:1004F00006009046994680277F420F43FFB202696B
:10050000C046C046C04601239340D02212069361E4
:10051000C046C046C046002408E04B461D193900BD
:100520003000FFF7B0FF28700134E4B24445F4D343
:100530003269C046C046C04601239340D02212060D
:100540005361C046C046C046C0BCB946B046F8BDBF
:1005500070B504000D001600FFF795FF020032434E
:10056000D2B229002000FFF733FF70BD70B505003F
:100570000E001400FFF787FFE44362B20240D2B2DC
:1005800031002800FFF724FF70BD0000F8B505001A
:100590000F0014001E0000220221FFF719FF0422A1
:1005A0000A212800FFF714FF802214212800FFF7FA
:1005B000CFFF3B00220012212800FFF72CFF03226F
:1005C00002212800FFF704FF0E4C0A212800FFF744
:1005D0005AFF400705D4013CA4B2002CF5D10320FA
:1005E0000FE0002202212800FFF7F2FE442128003C
:1005F000FFF749FF307042212800FFF744FF707079
:100600000020F8BD8813000010B504002821FFF772
:100610003AFF03230340032B00D110BD03231843EB
:10062000C2B228212000FFF7D3FEF6E7F8B5040098
:100630002D4DC560D026360680277F03B761FA208E
:10064000800001F017FC7761322001F013FC1120CB
:1006500000F0A0FF80239B0273627361234928008E
:1006600003F0ACFE6B680222134021490A6029683E
:1006700005325140C8320A401E490A601E4A1360C2
:100680000121122000F06CFF0121132000F068FF0F
:100690000121102000F064FF0F2202212000FFF74B
:1006A00097FE802254212000FFF792FEA9225621B6
:1006B0002000FFF78DFE032258212000FFF788FE5F
:1006C000E8225A212000FFF783FE40222A21200041
:1006D000FFF77EFE3D2222212000FFF779FE200059
:1006E000FFF792FFF8BDC04600C0034040420F0034
:1006F00004F0034000D0034004E00340F0B5DE46C0
:1007000057464E464546E0B587B004000F00150039
:10071000039310AB1B789A4614AB1B78994615AB24
:100720001B789B4600239846139B002B35D01B78E3
:100730004A461601F6B2F618F6B20022022120004F
:10074000FFF746FE7F2208212000FFF741FE8022AE
:1007500014212000FFF7FCFE039B524612212000CB
:10076000FFF759FE32001A212000FFF731FE3A0050
:1007700002212000FFF72CFE0C2F10D0FA26F600E5
:1007800008212000FFF77FFE05420ED1C00777D475
:10079000013E002EF4D1032073E00023C8E780223D
:1007A0001A212000FFF7D4FEE8E70C212000FFF714
:1007B0006AFE0500132303426AD1119B002B20D04F
:1007C000129B002B1DD014212000FFF75CFE0200BD
:1007D000129B1B7883425DD3129B18704B4600938B
:1007E000119B12212000FFF77FFE18212000FFF748
:1007F0004AFE072303409846139B002B01D0424634
:100800001A700823180028402B4245D1119B002B59
:1008100037D0129B002B34D05B46002B31D0129B7B
:100820001B78012B06D0012B26D94246002A06D080
:10083000072026E04246042AF5D1FF2021E0023BB2
:10084000DAB205AB11992000FFF7A0FE002818D1FD
:10085000129B1A78119B9B18023B197805AB1B78E9
:1008600099420BD1119B9B18013B1A7805AB5B7821
:100870009A4206D0072004E0072002E0072000E0AB
:10088000032007B0F0BCBB46B246A946A046F0BD67
:100890000120F6E70420F4E70220F2E730B587B044
:1008A0000CAC24780DAD2D78059504940B9C039425
:1008B0000A9C0294019300920B0030220C21FFF756
:1008C0001DFF07B030BD70B588B0060015001C00D4
:1008D00017236B441970002A22D02378012B21D9C9
:1008E00080221C21FFF742FE1F236B4407221A704F
:1008F000002203920292019300942B0001321721EF
:1009000069443000FFF7CAFF00280CD12378022B7E
:100910000BD11D336B441878002804D0012002E06D
:10092000042000E0042008B070BD0120FBE710B5F2
:1009300013000A002621FFF7C6FF10BDF0B5DE4602
:1009400057464E464546E0B58BB081460F0093466C
:10095000502A00D95EE180221C21FFF707FE012307
:100960009A465346022B36D0032B45D0012B01D09B
:10097000052450E107AB93221A705B46002B04D08C
:100980003B78042B25D8002100E000210023984665
:100990004346DB005A46D31A5DB21B0633D4002906
:1009A00033D007AB88229A70853AEB17072018409E
:1009B0004019C010C0B207232B405C1EA3411B1876
:1009C000DBB2002B23D1002900D185E008356DB2C0
:1009D00082E00121DAE707AB95221A705B46002B13
:1009E00004D03B78072B05D8002100E00021032329
:1009F0009846CDE70121FAE707AB97221A70062344
:100A000098460021C4E70025C9E70222CDE7002966
:100A10000AD003249C4200D31C000023AC4640466D
:100A20008846110002000AE00424F3E7D0184E1CA7
:100A30003818457807A845540133DBB2F1B2A34218
:100A4000F4D3654641469046BDE7E817410F6A1862
:100A500007231A40521AD2B2132102ACA4466144B1
:100A60000A7003405B19DB10DBB20233DBB2190101
:100A7000C9B2511807A84170511E8A41D218D2B28A
:100A80000592C21804920922D31A122262441370EA
:100A9000132602AB9C46664434782201A218D2B2D7
:100AA0001A214846FFF794FC002303930294019611
:100AB000123302AA944663440093049B059A07A943
:100AC0004846FFF7EBFE040002282DD0002800D096
:100AD000A1E01F2D4FDC20251F2DB6DD07A97023B7
:100AE0004B708878CC780A794B796040424053400B
:100AF0008B711B2302AA9446634407224846FFF7E2
:100B000045FD041E00D086E0132302AA94466344E8
:100B100000221A701223634403221A701A236344BA
:100B2000049309230593B3E71C214846FFF7ABFC68
:100B3000830670D41F231A000240034200D12022F2
:100B4000AA4200DC6FE055B2501EC3175B0FC018FD
:100B500007210140C91ACBB2581E8341D2089B1805
:100B60000133DBB207A8C25CFF240C400121A14085
:100B70000A43C254B0E7049E07AB9B78882B11D080
:100B80000222882B10D004204546B44684420FD25E
:100B9000511C2B1907AEB25CFB185A700134E4B239
:100BA000CAB2F3E70322ECE703204546B446EDE77B
:100BB0006646122302AA944663441B78032B34D161
:100BC000103363441B78002B31D116336344012268
:100BD00031004846FFF7DAFC041E1CD107AB9A78B7
:100BE00073789A4225D107ABDA78B3789A4222D14A
:100BF0003378042214001C401A4204D053460133B7
:100C0000DBB29A46ADE6FB7253465B0053440133B8
:100C10003B7000E0062420000BB0F0BCBB46B2469F
:100C2000A946A046F0BD0524F5E70124F3E7012419
:100C3000F1E70724EFE70724EDE730B587B00500BB
:100C400005A950230B7000234B7016336B4402220E
:100C5000FFF79CFC041E02D0200007B030BD00232B
:100C60000393029301930093042205A92800FFF740
:100C700015FE0328F0D0002801D00400ECE7012481
:100C8000EAE770B58AB00E9E07AC21706270002250
:100C900005E0911C9D5C07AC65540132D2B2052A77
:100CA000F7D9002307E01A000832F1184C7807A999
:100CB0008C540133DBB2032BF5D900230593049345
:100CC0000393029301930C33009307AB10220E2180
:100CD000FFF714FD0AB070BD10B508221021FFF710
:100CE00045FC10BD70B584B0060014001D00002A3C
:100CF00019D01B78112B18D9302313705170931C05
:100D000002222100FFF742FC00280FD101230393A8
:100D10000023029301930095230004222100300058
:100D2000FFF7BCFD02E0042000E0042004B070BD29
:100D3000F0B58DB0070014001D0000293AD0102A2C
:100D40003AD807AE300002F00FF833192200310014
:100D50003800FFF71BFC061E2FD10234E4B21B2122
:100D6000694412230B701A2068440022027007ABFA
:100D700005920492039002910193009430320C2169
:100D80003800FFF7BBFC0300002D01D0032814D06E
:100D9000002B15D11B336B441E78012E12D11A2360
:100DA0006B441B78042B08D107AB1B780A2B0BD1A3
:100DB000060002E0062600E0062630000DB0F0BD79
:100DC0000600FAE70126F8E7FF26F6E770B582B0DD
:100DD0000600080014001D00002A13D00F2B13D9A1
:100DE00001A9A0230B704870002302223000FFF7F6
:100DF0009FFF002809D100232A0021003000FFF7BF
:100E000097FF02E0062000E0062002B070BD00005F
:100E1000082806D817D880000E4B1B589F460E484E
:100E20007047FF2813D10D48FAE70D48F8E70D4841
:100E3000F6E70D48F4E70D48F2E70D48F0E70D48F6
:100E4000EEE70D48ECE70D48EAE70D48E8E70B4808
:100E5000E6E7C046E85000108C4600103C46001003
:100E600090450010A4450010C0450010DC4500105E
:100E70000C46001020460010604600106845001027
:100E8000784500107F231840402813D880000B4B72
:100E90001B589F46FF200EE004200CE005200AE0CE
:100EA000062008E0072006E0082004E0012002E018
:100EB000022000E0002070470320FCE70C510010E6
:100EC00008280BD8002819D0082805D880000E4B18
:100ED0001B589F460D4804E00D4802E0FF2811D141
:100EE0000C4870470C48FCE70C48FAE70C48F8E758
:100EF0000C48F6E70C48F4E70C48F2E70448F0E742
:100F00000B48EEE70248ECE710520010644700106F
:100F10009846001040470010D0460010E8460010E8
:100F2000F44600100047001024470010304700101E
:100F3000A846001070B582B00600224803F098F968
:100F400000240EE0202003F055F975196A781E4937
:100F500001AD280002F0F8FF280003F089F9013400
:100F6000E4B23378A34208D9250033195B780F2BFC
:100F7000E8D8164803F07CF9E7E7154803F048F98C
:100F8000144803F075F9F37A0F2B16D9F27A0E494B
:100F900001AC200002F0D8FF200003F069F9F07ADC
:100FA000FFF770FF04000C4803F062F92000FFF720
:100FB00087FF03F05DF902B070BD302003F01AF92D
:100FC000E4E7C0462C480010A04700103848001045
:100FD000E44700103C48001048480010F0B5DE46D9
:100FE00057464E464546E0B593B0039007910892A8
:100FF0000493002205921F2B09D89B00DBB2984670
:1010000004230693069B5D1E01239A4600E1049B80
:10101000272B22D81B01803BDBB298461023069376
:10102000F0E7C44803F024F904E1C34803F020F9D1
:101030000CE1C24803F01CF911E1202003F0DAF8BA
:101040000DE18146BE4803F013F94846FFF7E0FE84
:1010500003F00EF90A2003F0CDF813B0F0BCBB4644
:10106000B246A946A046F0BD202003F0C3F80BAB62
:101070009A5DB44911AE300002F066FF300003F013
:10108000F7F803233B40032B0CD00137FFB20F2F9F
:101090000CD83E000BABDB5D0F2BE5D8AA4803F064
:1010A000E7F8E4E7202003F0A5F8EEE75346002B2D
:1010B0005CD00BA8C37999461A09017A09910F23CC
:1010C0001F000F40BB460E0980791F000740BC4639
:1010D00000094F463B400F2761468F43BA4200D17B
:1010E000EFE001230120034005939300042189468A
:1010F0000F001F40BC465B465B009A4602235746E2
:101100001F40BA46674651460F43BA46070037406C
:10111000BC46574661460F4310A98C460F705100DC
:101120000F0049460F40099919403943771007408D
:10113000394367467970494611408A4659464910F5
:10114000194057463943B710074039436746B970CD
:10115000521049460A4059468F103B401343F6103F
:10116000304003436246D37000239A46069B042B0B
:1011700000D1B4E00521280001F0C6F9C6B2032E63
:1011800005D0681C052101F0BFF9864233D06F48B5
:1011900003F06EF810AB9B5D9B469A0801239946BD
:1011A0001A406B4F11AD3900280002F0CDFE280027
:1011B00003F05EF8202003F01DF85B465A084B460A
:1011C0001A403900280002F0BFFE280003F050F852
:1011D000202003F00FF85A464B461A4039002800E9
:1011E00002F0B2FE280003F043F85A4803F040F83A
:1011F000059B002B75D1032E05D010AB9B5D012BF9
:1012000073D0062B71D0544803F002F8013C65B24C
:10121000002D00DA21E7ECB24346E618F6B2534659
:10122000002B00D101E7049B092B00D9F9E64348C4
:1012300003F01EF8464911AF049A380002F084FE0C
:10124000380003F015F83D4803F012F8092E00D8D5
:10125000EFE6632E00D9F0E6364803F009F83C4982
:1012600011AF3200380002F06FFE380003F000F8D2
:10127000304802F0FDFF5346002B0AD0079B009335
:10128000089B424660210398FFF7FBFC002800D032
:10129000D7E61F2308AA9446634412221A700BAAA9
:1012A00031000398FFF71EFD0600071E00D1EEE691
:1012B0002A4802F0DDFF3000FFF7AAFD02F0D8FF58
:1012C000A4E70F2181438B4501D001230AE70F20BA
:1012D0009843864201D0012304E7002302E7260059
:1012E00055E71F4802F0C4FF85E70BADEE783606E0
:1012F000AB781B041E436B781B021E432B781E43E6
:10130000184802F0B5FFFF2232400E4F11AE3900EF
:10131000300002F019FE300002F0AAFF124802F07D
:10132000A7FF2A7B3900300002F00EFE300002F0E9
:101330009FFF68E75848001060480010644800109C
:1013400068480010A0470010384800109C48001062
:101350005C480010A0480010E447001084480010CA
:10136000A4480010CC480010D8480010F8B505007B
:101370000E001F00042A05D0052A05D0032A14D127
:10138000052402E0102400E028240B4802F040FF6E
:10139000013C08E0E4B223003A0031002800FFF7E6
:1013A0001DFE013C64B2002CF4DA2800FFF745FC76
:1013B0002800FFF791FCF8BDE0480010F0B5CE46DC
:1013C00000B588B08146314802F022FF00254AE08E
:1013D0002F4802F04DFF0198FFF71AFD02F048FF79
:1013E00008B080BCB946F0BD202002F003FF2AE01F
:1013F000202002F0FFFE02AB1A5D264907AC200058
:1014000002F0A2FD200002F033FF0136F6B2032EF7
:101410000BD8BC00E4B2A419E4B202AB1B5D0F2BE5
:10142000E6D81D4802F024FFE5E71C4802F0F0FE74
:101430000137FFB2032F14D8EC19E4B2092CD3D82A
:10144000174802F015FF174907AE2200300002F0DE
:101450007BFD300002F00CFF114802F009FF019EF5
:10146000D5E70435EDB20F2DBAD8132302AA94465E
:10147000634412221A70624629004846FFF732FC84
:1014800001900028A4D1019FD4E7C0463049001044
:1014900084480010A047001038480010E4470010AE
:1014A000584800105C48001030B583B005000C00AF
:1014B0000800FFF73FFDE07AFFF7E4FC0200062892
:1014C00028D00BD8022805D9C31EDBB2022B19D8AD
:1014D000002310E042B2002A04D113E0073AD2B24E
:1014E000012A0FD80D4802F093FE0BE06946FF2059
:1014F000C8540133DBB2052BF8D96B462100280014
:10150000FFF734FF064802F083FE2800FFF795FB43
:1015100003B030BD2800FFF751FFF3E74449001046
:10152000E447001000B583B06B46DA1C0223137049
:1015300001A9FFF7FCF9002805D0022801D00020FE
:1015400002E0013800E0012003B000BD10B5002228
:101550000100FFF7F3F943425841C0B210BD00004B
:1015600010B58300084A9A1814684022544080320B
:101570002240064CA44663441A60C000044B9C46BB
:101580006044416010BDC04604C0014004D0014029
:101590000040014010B501238340D022120693621F
:1015A00093610521FFF7DCFF10BD00000FB400B50B
:1015B00083B0084802F02CFE049B002B07D005A93D
:1015C0000191180002F034FE034802F021FE0120D0
:1015D00002F0E2FC8449001094490010EFF31080FF
:1015E00072B6034B1B68002BFBD0BFF35F8F7047B5
:1015F0002C0100D0BFF35F8F024B00221A6080F3F2
:10160000108870472C0100D0F8B506000C001500BA
:10161000FFF7E4FFE308F718F15C072222400123FB
:1016200093400B4205D1DBB20B433B70FFF7E2FF67
:10163000F8BD21002800FFF7B9FF0000054A107827
:10164000431CDBB21370172B02D9130010221A703F
:101650007047C04646040020002307E0054A9A1858
:101660009200BFF35F8F0021116001331F2BF5D96A
:101670007047C04640000034074B9B681030800024
:101680001950BFF35F8FBFF35F8F044B00211960C8
:1016900082F310887047C04600ED00E0240100D0BE
:1016A0000048704700E400E010B5FFF7F9FF0023A1
:1016B00002E0034A04C00133072BFAD910BDC0462B
:1016C00080808080002A05D0044BC02252009950AF
:1016D00019607047014A8023D150FAE700E100E029
:1016E00010B50A001F230340012199404009FFF76C
:1016F000E9FF10BD024B9B6810308000C058704756
:1017000000ED00E070B504000D00EFF3108672B636
:101710000C4B1B68002BFBD0BFF35F8F2000FFF743
:10172000E9FF094B984201D0A84205D132002900B7
:101730002000FFF7A1FF70BD044B054A0548ED21CD
:1017400002F030FC240100D0C1010010F849001063
:1017500034520010B0490010024B9C46614489008D
:10176000016070474000003410B50400FFF766FFC9
:1017700001002000FFF7F0FFFF232371BFF35F8F0D
:1017800010BD10B50400FFF759FF01002000FFF75E
:10179000E3FFFF23237100236371BFF35F8F10BD4D
:1017A00010B50D4C09E00D4B0D4A0E481A2102F000
:1017B000F9FB2000FFF7D8FF08340B4B9C4209D2FD
:1017C0002368002BF5D0012BEDD12000FFF7D9FFC6
:1017D0000834F2E710BDC04680040020304A0010F3
:1017E00074520010504A00108804002030B5846AFA
:1017F000151B0B1D9B001B581B1B9D4204D3046A29
:1018000001238B40234202D1043189000A5030BDAC
:1018100000040843704700000A4B1968EFF3108377
:1018200072B60A68002AFCD0BFF35F8F054A1268BF
:10183000BFF35F8F0021116083F3108840BF002049
:1018400000217047A4090020F0B5DE4657464E46F9
:101850004546E0B587B0EFF3058303221A40924670
:10186000AE4B9200D7583B78534507D101235246DF
:1018700093409946AA4B4A461A6025E1A94BAA4AC9
:10188000AA48922102F08EFB7A6973009B19DB0053
:101890009046984443469C68DD68A54800F0ACFB40
:1018A000001BA941002900DA16E1002D74DB434634
:1018B0001B699B469F4B9B454FD00823F85E4346D0
:1018C000598889B2FFF7A4FF43465969D847029067
:1018D00003910299039A0B00100013435CD013008C
:1018E0000A00002847DAA41A9D4100940195434656
:1018F000009C019D9C60DD600021595E002900DA9A
:10190000EAE078694B005B18DB00C3189A68DB6873
:10191000A41A9D41002D00DADEE039813D00083532
:10192000844604912A000597B346009E019F049BBC
:10193000002B2ADB0023D45E63001B19DB00634409
:101940009C68DD6830003900001BA94100291CDBC0
:101950001A000021595E0491E9E743465B699B4602
:101960001B6958469847002816D05B461A685B6882
:1019700002920393ADE76E4800F03EFB029B039C8E
:101980001B184C4100930194B1E70499059F5E46F2
:101990004346198016809FE0434600229B5E3B81B0
:1019A0003A69EFF3108372B611680029FCD0BFF3D7
:1019B0005F8F02217A5E41460A807E803A69BFF3DA
:1019C0005F8F0021116083F3108885E03969EFF3A0
:1019D000108372B60A68002AFCD0BFF35F8FB88804
:1019E00000B201225242BA803A69BFF35F8F0021F0
:1019F000116083F310880500BC461CE004930022AC
:101A00009A5E002A0EDB049B0021595E4B005B1896
:101A1000DB0063449868D96834003D00241A8D4186
:101A2000002DEBDA04995D46009B9C4644460D80F0
:101A30000023E55E2280002D12DB634658696C00AE
:101A40006419E4000419A668E768614608310822B1
:101A50009A5EAB46049163460093A0468446D0E765
:101A600067463EE00023BB71390008310823F85E69
:101A70000EE001246442E5179460D56008243B5FC2
:101A8000834204D00E8008243B5F138038813000ED
:101A9000431C29D07C6943001B18DB00E218E65E7A
:101AA00053881BB2002BE4DB1100F0E722002B006F
:101AB00051461F48FFF79AFE1D4800F09DFA241A70
:101AC0008D41002D22DC1FD0194B4A465A63082352
:101AD000FE5E002E00DBD7E6BB881BB2002B00DBCE
:101AE00074E7BB79002BBDD10823FA5E002A0DDB19
:101AF000796953009B18DB00CB189C68DD68631C78
:101B0000D4D16B1CD8D0D1E7002CDDD040BF07B0BA
:101B1000F0BCBB46B246A946A046F0BD88070020EF
:101B20003C700540E44A0010A0520010104B001019
:101B3000004005404918001070B504000D00110068
:101B40000126AE4006622800FFF7DCFD01212800D7
:101B5000FFF7C6FD024B9C466444266070BDC0463C
:101B600038200000F8B5CE46474680B506008946C5
:101B700090461F00C160FFF761FD154B9C46604415
:101B80008000306143463370BBB27381D0221206AD
:101B900012787270012252423281B2809B18738097
:101BA000002406E0621E736965002D19ED005A538A
:101BB0000134BC42F6D3074B42469200D650064A47
:101BC00041464846FFF7B8FFC0BCB946B046F8BD2D
:101BD00040000034880700204918001010B5064B5B
:101BE0001B69002B01D0044810BD044B044A054872
:101BF000652102F0D7F9C04648040020504B001080
:101C000088520010104B0010F8B504000569EFF37E
:101C1000108072B629680029FCD0BFF35F8F0221C3
:101C2000665E656971008919C9006D18002E02DBB6
:101C30000027E95F61802169BFF35F8F00270F6094
:101C400080F31088002E2CDB0699296107996961C1
:101C5000AA60EB606B8801335B04590C002B00D148
:101C6000012169803000FFF7D3FD2169EFF3108374
:101C700072B60A68002AFCD0BFF35F8FA2882A8060
:101C8000A6802269BFF35F8F0021116083F3108863
:101C9000E368217801228A4003498C4663441A6034
:101CA000F8BD01204042FBE73C20000070B582B047
:101CB000060014001D0008AB1B78002B07D100F0B4
:101CC000B1F922002B00121A8B41002B0ADB079B73
:101CD0000193069B009322002B003000FFF794FF36
:101CE00002B070BD0020FBE7F0B5C64600B584B079
:101CF0000500884616001F000AAB1C78FFF76EFF30
:101D00000294019700962A004346FFF7CFFF04B0E4
:101D100080BCB846F0BD000030B504000A14438909
:101D20009A422EDA406953009B18DB00C3182569DC
:101D3000EFF3108272B628680028FCD0BFF35F8FE3
:101D4000588885B20904090C884212D00020236902
:101D5000BFF35F8F0021196082F31088002811D033
:101D6000E368217801228A4007498C4663441A605F
:101D700008E00649294389B259800123A371012053
:101D8000E5E7002030BDC0463C2000000080FFFF9A
:101D900010B50400FFF722FF2100FFF7BDFF10BDC3
:101DA000F0B583B006000F00EFF30583002B1AD1C6
:101DB00006246442E517A4197D418D4202D803D15F
:101DC000844201D90024002500F02CF922002B00C8
:101DD000121A8B41002B0BDC08D03000390000F0C8
:101DE00029F903B0F0BD1648FFF7E0FB002AF4D054
:101DF000144A0023009320002900FFF775FF0028F4
:101E000013DAEAE7104B1968EFF3108372B60A6829
:101E1000002AFCD0BFF35F8F0B4A1268BFF35F8FBD
:101E20000021116083F3108820BF084B5B6A9D423C
:101E3000E8D80649896AA142CFD29D42CDD1E1E7D7
:101E4000744B001019180010A40900200040054030
:101E500070B504000D0000F0E5F800196941002993
:101E600002DBFFF79DFF70BD012040420049F8E70B
:101E7000FFFFFF7F10B5FA2292000023002100F03F
:101E800001FFFFF7E5FF10BDF0B5CE46474680B530
:101E900083B005000C00EFF30583002B15D03F4BFA
:101EA0005B6A8B4209D33D4A926A82420BD28B42D3
:101EB00001D0012002E0002000E0002003B0C0BCFF
:101EC000B946B046F0BD0120F8E7FFF787FEC368CA
:101ED0009946037898462E002700484600F08CF873
:101EE00002000B00B61A9F41434604339B004A464A
:101EF0009B581B1A0022BA420FDC0CD020BF274B84
:101F00005B6A9C422DD8254A926AAA422BD29C42F7
:101F100025D00120D2E7B342F0D9214A0023009313
:101F200028002100FFF7E0FE00281EDD1B4B5B6A46
:101F30009C4205D8194A926AAA4202D29C4200D118
:101F400020BFFFF725FF154B5B6A9C4221D8134A3F
:101F5000926AAA421FD29C4219D00120AEE700200B
:101F6000ACE70020AAE70120A8E70C4B5B6A9C4283
:101F700009D80A4A926AAA4207D29C4201D001209B
:101F80009CE700209AE7002098E7012096E70020D0
:101F900094E7002092E7012090E7C046004005400A
:101FA00019180010004870470040054010B50B4B51
:101FB0001B69002B04D00A480A21FFF7CDFB10BD96
:101FC000FFF7F0FF0400032100F00CF80348102392
:101FD00003222100FFF7C6FDEDE7C04648040020BC
:101FE000A409002010B5024A0248FFF70DFB10BDFE
:101FF000C44B00100C0700200200436A906A1900CD
:10200000536A9942FAD17047416A00E0416A9942A5
:10201000FCD300E0416A994202D1816A9142F9D32E
:102020007047000010B50248FFF7E6FF10BDC0463C
:102030000040054010B502000B000248FFF7E4FF26
:1020400010BDC04600400540F8B5D646474680B5AD
:1020500006000D001700984644002418A400294BE0
:102060009C4664446368089A934200D26260331FBE
:10207000DBB29A46012B2ED980221201C0239B018C
:10208000E3181A60204BB200D158002907D05869D4
:1020900000F062FA013043001B18033BFDD27F01C0
:1020A00023685F40E0233B4080225201A218136066
:1020B0005346012B1AD980239B01E3188022120179
:1020C0001A60089B6360104BB6004246F250C0BCD9
:1020D000BA46B046F8BD012DCED10322C0239B01E4
:1020E000E3181A60A368DB07FCD5D8E721686940CC
:1020F00003230B401360A3680122AA401A42FAD0BE
:10210000D9E7C0460080004010070020F0B583B03A
:1021100005000E0017001800089900F01DFA0300D2
:10212000089A140200943A0031002800FFF78CFF4F
:1021300003B0F0BD10B582B0802464000094FFF7B6
:1021400083FF02B010BD0000014B8000C0587047F3
:1021500010070020F0B5C64600B504000E001700B9
:102160001D00374800F0F8F98046364BFA18364B18
:102170009A4239D80100380000F0EEF90200103A16
:1021800098235B009A4235D86B1E062B38D8069BE5
:10219000013B062B34D83F09474537D32D04069B16
:1021A0001B031D432368002B36DB284B9C4244D085
:1021B0000C2201239340264A1360264A1360264AC4
:1021C0001268190091430A1EF9D12660A060234BC2
:1021D000E31821321A602268002AFCDAE56008223E
:1021E0001A6080BCB846F0BD1D4B1E4A1E48112126
:1021F00001F0D8FE1D4B1B4A1B48192101F0D2FEED
:102200001B4B184A18481C2101F0CCFE194B154AEB
:102210001548232101F0C6FE22683F231340B34234
:10222000C3D1A3681B051B0D8342BED1E368EE2218
:10223000D2021340AB42B8D1D3E70D22B9E7C04672
:10224000001BB70080E84BD380F8A93200C00240E1
:1022500000E0004000F0004008C0004004300000F2
:10226000E84B0010B8520010384C0010804C0010A1
:102270009C4C0010E84C001080239B000B43014A4B
:10228000D36270470080054010B5010018231B88F9
:1022900014221088984710BD10B5010018231B8820
:1022A00016221088984710BDF0B5C64600B5070045
:1022B0000E0000250123984600E00135B5420AD200
:1022C000AC003C192068FFF7DFFF20600028F4D144
:1022D00000239846F1E7404680BCB846F0BD0000B8
:1022E000074BAA2212011A608D225200DA60054BB8
:1022F000054A1A60024B5B68002BFBDA7047C04648
:10230000004002400060024000B0FA0010B5040036
:1023100001E008CC9847024B9C42FAD310BDC0465E
:102320003C4500107047000010B50248FFF7EEFF73
:1023300010BDC04600450010054B064A1A60064B0A
:10234000064A1A60064B1A68044B9343FAD1704749
:1023500000E00040BFCDFBFE00F00040FE7F3C00EF
:1023600008C00040044BDB6C002B03D1034B8022E0
:10237000D2021A607047C046000011504C20115024
:10238000044B054A1A60054B1B68DB43DB01FAD19D
:102390007047C04600F00040FFFFFF0108C000404A
:1023A000034B40229A675A671A67DA667047C0463D
:1023B00000F0014010B5FFF74FF910BD10B50C4A01
:1023C0000C4BD21A92101400302A00D930229200FD
:1023D0000948084900F0C8FC04E0084A064BA1007F
:1023E000CA5001342F2CF8D9034B054A936010BD15
:1023F000C00100100001001000000020C101001009
:1024000000ED00E070B50420FFF79EFE064900F0E5
:10241000A3F805000024002C00DD70BDE0B2290007
:10242000FFF72AFF0134F6E740420F0030B583B0D2
:10243000274B00229A67FFF753FF264B01221A60B1
:10244000234B5B6C012BFBD1234B03221A60204BE7
:102450009B6B012BFBD10133009304331F4A0121F5
:102460001F48FFF777FE052300931E4A01211E48EF
:10247000FFF770FE1D4B002202210420FFF75AFED9
:102480001B4D2B00002201210520FFF753FE194CA4
:102490002300002200210720FFF74CFE230000222A
:1024A00000210820FFF746FE8023DB000093230075
:1024B000002200210920FFF729FE2B000022002125
:1024C0000620FFF737FEFFF79DFF03B030BDC04683
:1024D000008000403CB0004030B00040002F685900
:1024E00000800240008C864700C00240001BB700FD
:1024F00040597307006CDC0201480421014B184766
:1025000060040020A9220010124A936F9B0815D284
:102510009066D166002905D0FFE7FFE7FFE7516F1E
:10252000106F704704B580210906C217514000287A
:1025300000D0C84301F0CCFF002104BDF0B5146EFB
:10254000556E576F166FFFF7E3FF146655665767B2
:102550001667F0BD000000D0114A936F9B0813D29C
:1025600010665166002905D0FFE7FFE7FFE7516FCE
:10257000106F704704B5002801D00020C04301F05F
:10258000A7FF002104BDC046F0B5146E556E576F0D
:10259000166FFFF7E5FF1466556657671667F0BDBF
:1025A000000000D094464A4A926F9208624601D2D7
:1025B00028E0C046F0B5464E346E756E776F366FC4
:1025C00000F020F89446424A14665566576716672D
:1025D0006246F0BD94463E4A926F9208624601D22E
:1025E00054E0C046F0B53A4E346E756E776F366F74
:1025F00000F04CF89446364A1466556657671667DD
:102600006246F0BD002B24DB11D000293EDA00B574
:10261000C943404200D1013100F038F8C94340427B
:1026200000D10131DB43524200D1013300BD002A09
:10263000EBD1002801D1002905D00020C90FC9071E
:1026400001D1C043410800B501F03AFF0022002348
:1026500000BD00B500290ADBDB43524200D1013343
:1026600000F014F8C943404200D1013100BDC94314
:10267000404200D10131DB43524200D1013300F02E
:1026800005F8DB43524200D1013300BD002923D1BC
:10269000002B18D1002A0CD0BC460D4F38667A6644
:1026A00000210023FFE7FFE7FFE77A6F386F6746F7
:1026B0007047002801D00748010000B501F000FF75
:1026C0000022002300BD02000B0000200021704703
:1026D000000000D0FFFFFFFF002B00D0BFE0130C75
:1026E00028D1002AE7D080B4114F39667A66FFE717
:1026F000FFE730B4040C7B6F396F1B0423433B6648
:102700007A66FFE7FFE7FFE7C04684B27B6F3D6F65
:102710001B0423433B667A66FFE7FFE7C0460023BE
:102720002C042D0C7A6F386F00196941B0BC7047CA
:10273000000000D0F0B594460025140E01D112021D
:102740000835140F01D112010435940F01D1920004
:102750000235D40F01D152000135D40B0134254F7D
:102760007C66254C3C660E0C93B2FFE7FFE7FFE763
:102770003C6F6643360C7703BE467343DF0B5B0446
:10278000C01AB941130C7343DB18C91ACE0866434B
:10279000360CB64493B273431F0F1B01C01AB941E4
:1027A000130C73431F0B1B05C01AB941860D8F0212
:1027B0003E436643360C092D24DB520A7243801ACD
:1027C0007703460A6643360C16235B1BDE40DF4068
:1027D000BF1964466643821B704604350633010008
:1027E000D940A840C01900D30131A24206D200232B
:1027F000F0BD0000000000D0FFFFFFFF121B013002
:10280000F3D3F1E709277F1BFE406446A2B272436F
:10281000801A00D20139220C7243130C1204821A5E
:1028200099410B007046043513370100F940A84068
:10283000801900D30131002B02D1A2420AD2F0BD8F
:10284000013000D30131121BFAD2013BF8D1A24270
:1028500000D2F0BD013000D30131121BF7E7F0B513
:102860001C0C00D080E00CB400251C0A04D11B0213
:10287000160E3343120208351C0B04D11B01160F30
:102880003343120104359C0B04D19B00960F334354
:1028900092000235DC0B02D192185B4101351C001D
:1028A000971864410134464F7C66464C3C660E0CDA
:1028B000FFE7FFE7FFE7C0463C6F6643360C770350
:1028C000BE4697B27743C01B00D20139C01B00D26D
:1028D00001399FB27743C91BC91B170C77437E048C
:1028E000FF0B801BB941CE086643360C0C2D33DB41
:1028F000B644120B1F053A431B0B97B27743C01B1C
:1029000000D201399FB27743C91B170C77433E04AD
:102910003F0C801BB941860D8F023E436643292739
:102920007F1BFE400C3D7746AF40BF1930BCA2B2C2
:10293000ABB272437343801A9941220C7243130C59
:102940001204801A994102000B000137001BA941B3
:10295000F9D2781E0021F0BD0C277F1BFE40774680
:102960007F0BAF40FF19E0E700245D1C07D0144F38
:102970007D663966FFE7FFE7FFE7FFE73C6F95B24B
:102980009EB265436643401BB141150C1E0C654366
:10299000664336042F0C3E432D04401BB14199423F
:1029A00004D202000B0020000021F0BD01D19042B2
:1029B000F7D3801A994101349942F2D3F6E7000027
:1029C000000000D0FFFFFFFF48404140484018B4DE
:1029D000134B5B68019308BD18B4114B1B6801933E
:1029E00008BD94460F4A926F920805D2624618B409
:1029F0000B4BDB68019308BD0A4AF0B5146E556EA7
:102A0000576F166F6246FFF7F2FF064A1466556667
:102A100057671667F0BD18B4014B9B68019308BD5A
:102A2000A0070020000000D0FFB5504042405040B9
:102A300059404B40594000E0FFB5154F4C00640D24
:102A400003D0BC4204D10C0314D80020090D0905A1
:102A50005C00640D03D0BC4204D11C030AD80022E0
:102A60001B0D1B0501264B4009D44B4003D58B425F
:102A700000D18242FFBD9942FCD19042FFBD0B4381
:102A8000DB1803431343F5D0C9434918FFBD0000C9
:102A9000FF07000000B5FFF7CFFF804100BDC04633
:102AA00000B5FFF7C9FF01D9002000BD012000BD1E
:102AB00000B5FFF7B9FF01D9002000BD012000BD1E
:102AC00000B5FFF7B1FF804100BD012040054A007D
:102AD000121804D85A00121801D80020704701209B
:102AE000704700000021002805D17047C1174840F9
:102AF000401AFAD0C90713B5064B1B6898470CBC9F
:102B0000441CA2401005120B0349091B0905194377
:102B1000114310BDA00800201F04000010B54C0098
:102B2000620D8023D218DB00D21A5B057E2A10DDED
:102B30009E3A13DACC170903490819435242D1408F
:102B4000640001341532202A05DAD040084360437E
:102B500010BD002010BD0846604310BDC80FC0184E
:102B6000013810BD18B4024B5B6A019308BD000028
:102B7000A007002010B50148FEF718FD044D001015
:102B800070B513231C78012C12D0012C12DC214BC0
:102B9000214A93642148FFF777FB214B186070BDF1
:102BA00020491D4A9800815001331F2BF8D9ECE7CA
:102BB0000023FAE71C48FFF76FFB05001B48FFF7EF
:102BC0006BFB023803789B007F2B09DD12488022C3
:102BD000290000F0C9F8022C08D0022CDADCD6E774
:102BE000134B144A1448332101F0DCF9134B1A88B3
:102BF000B5231B029A4209D1114B1A88114B9A42F4
:102C000004D1114B1A88114B9A42E6D00020FEF7EE
:102C1000CDFCC046512C0010A00700204C33000012
:102C2000A0080020752B00105344000053460000FC
:102C30001C4D0010C4520010604D001054380000AC
:102C4000D8380000494600009C3800005946000072
:102C500007B56046002800D100BE01880A0A02308C
:102C6000DF2AFAD1C9B2820804D30288408800045E
:102C7000104300E00068024A5050039007BD000076
:102C8000A007002051434343C9188C46110C83B25E
:102C90004B4310B4040C614392B280B25043624380
:102CA0001C041B0C001910BC59411304120CC01851
:102CB000514161447047000010B50148FEF776FCB1
:102CC0005845001070B513231E781848FFF7E4FA32
:102CD0000500012E11D0012E09DDAB1E1B789B00D3
:102CE0007F2B1DDD12488022290000F03DF811489D
:102CF000FFF7CAFA104B186070BD0D485422290026
:102D000000F032F8002300E001331F2BE3D8084A1B
:102D10009C00A258002AF7D10849054AA150F3E7C0
:102D2000074B084A0848422101F03CF9534600008D
:102D3000A40800204C330000A0080020B92C00108B
:102D4000B84D0010D8520010EC4D0010014804217D
:102D5000014B184770040020A9220010014B1B688A
:102D60001847000070040020014B5B681847000002
:102D7000700400209A4200D288547047704710B502
:102D8000002802D00B684968984710BD0100002058
:102D900007E083001B185B00501C08601078C01807
:102DA00030380A681378303BDBB2092BF1D9704711
:102DB000F0B5DE4657464E464546E0B583B09346ED
:102DC0001F000C9B9A460D9C0E9B99460F9B9B07E0
:102DD00017D0B8460F00060022E0551C4B4641466E
:102DE0002020B84701342A00B442F6D33D004F46B4
:102DF0005C46019B9B46B1464646B84637002E00CE
:102E00000EE00192A34688464E46B9460700EBE71E
:102E1000013C551C5346185D43463900B0472A0013
:102E2000002CF5D135003E0047460F9B9B0711D47F
:102E3000100003B0F0BCBB46B246A946A046F0BDA8
:102E4000541C4B4641462020B8472200531BB34236
:102E5000F6D3EDE7B0464E46B9462F005D46F5E79E
:102E6000F0B5CE46474680B585B0944698460C9D51
:102E70000D9C0EAB1B789946109A119B129EB707BA
:102E80001CD4002B0CD0F7070AD54F46002F02D1D7
:102E90000C37374204D0013B02E030272F55013474
:102EA000944201D21F2CF8D9F70707D59C4205D2CE
:102EB0001F2C03D830272F550134F5E7F70612D51C
:102EC000770505D4002C03D0944221D09C421FD01A
:102ED0000F9A102A2FD00F9A022A36D01F2C0AD808
:102EE00030222A5501341F2C05D84A46002A32D0F8
:102EF0002D222A55013403960293019400954346EE
:102F00006246FFF755FF05B0C0BCB946B046F0BDFC
:102F1000621E012C17D00F9F102F0BD014000F9A98
:102F2000102AD8D1B206D6D51F2CD4D858222A556B
:102F30000134D3E7023CB206F1D41F2CEFD878223B
:102F40002A550134CAE71400C2E71F2CD3D86032D7
:102F50002A550134C2E7720703D52B222A550134C2
:102F6000C9E73207C7D520222A550134C3E7F0B597
:102F7000DE4657464E464546E0B593B081468A4602
:102F8000089209931CAB10CB1B789B461E9D219B7E
:102F90009846002C03D1102342469A439046802342
:102FA000DB0046461E4042461A4218D0002C22D072
:102FB000002614E0424692061BD54121C918C9B229
:102FC0000A39C9B2771C0AAB995529002000FFF7CE
:102FD000C3FAAC4210D31F2F0ED83E0004002900C4
:102FE0002000FFF7B9FACBB2092BE3D83033D9B2BE
:102FF000E8E76121E2E7270043460693209B05931B
:103000001F9B049303955B46029301970AAB0093C1
:10301000099B089A51464846FFF722FF13B0F0BCBF
:10302000BB46B246A946A046F0BDF0B5DE465746BF
:103030004E464546E0B597B00A900B910C929A46E1
:10304000209B9946219F22AA13789B46249B099393
:10305000259C289B98464A463A4302D11032934316
:1030600098468022D20045461540434613420AD076
:103070004A463A4341D000252E0053460D934D4613
:10308000099B9A4621E02E0053460D934D46099B1D
:103090009A461AE04246920623D54122D218D2B26D
:1030A0000A3AD2B2731C99460EAB9A555246230087
:1030B00028003900FFF78EFABC4220D813D04B46C7
:1030C0001F2B16D84E4605000F005246230028003D
:1030D0003900FFF77FFAD3B2092BDBD83033DAB2ED
:1030E000E0E76122DAE7AA45E9D94E460D9B9A4608
:1030F00008E04E460D9B9A4604E0002602E04E464C
:103100000D9B9A4643460693279B0593269B049363
:10311000099B03935B46029301960EAB00935346C3
:103120000C9A0B990A98FFF79BFE17B0F0BCBB46B0
:10313000B246A946A046F0BDF0B5DE4657464E461B
:103140004546E0B591B0804689460C929A461A9C55
:103150001B9D22002B0020002900FFF7B6FC002851
:1031600000D0F2E001225242D54B20002900FFF7A7
:10317000A7FC002800D0E8E001225242D14B2000F9
:103180002900FFF787FC002800D0DEE000220023A2
:1031900020002900FFF77EFC002800D0EAE006941A
:1031A00007958023DB001E9A1A400D921E9A1A4240
:1031B00001D106231C930698079902000B00089280
:1031C000099303000A00024300D1DFE0080D400527
:1031D000400DBD4EB4466044079E3203120B1E00E4
:1031E000BA4B13431F00FFF781FCB94AB94BFFF7F5
:1031F00012FCB94AB94BFFF7EFFB08900991002286
:10320000B74B30003900FFF7E2FBB64AB64BFFF789
:1032100002FC02000B0008980999FFF7DDFBFFF79D
:103220007DFC8346FFF762FC06000F00AF4AB04BFF
:10323000FFF7F1FB0022AF4BFFF7CEFBFFF76EFC71
:103240000890AD4AAD4B30003900FFF7E4FB0600B3
:103250000F000898FFF74AFCA94AAA4BFFF7DBFBCF
:1032600002000B0030003900FFF7B1FB06000F0031
:1032700002000B00FFF7CFFB0A900B91089BA24ABC
:103280009446634400210022089109921B0509938A
:103290000023089332003B0030003900FFF79CFB0D
:1032A0000E900F9132003B0000208021C905FFF7EE
:1032B0008EFB06000F000022944B0A980B99FFF733
:1032C00090FB0022924BFFF787FB02000B000A984D
:1032D0000B99FFF786FB00228E4BFFF77DFB020068
:1032E0000B000A980B99FFF77CFB02000B003000E3
:1032F0003900FFF771FB02000B000E980F99FFF7E2
:1033000070FB0022714BFFF767FB089A099BFFF7E0
:1033100082FB06000F0008960997069A079BFFF7A5
:10332000CFFB00280BD001235B429C46E3440022E4
:10333000774B30003900FFF754FB089009915B464A
:103340006333C62B45D8042623E01E9B04931D9BA4
:1033500003931C9B02930094019553460C9A494693
:10336000404600F0FBF811B0F0BCBB46B246A9469F
:10337000A046F0BD0021002206910792069480230A
:103380001B069C46AC44634607930AE700239B4612
:1033900004261E9B1B0528D5089A099B190011437A
:1033A0000FD05D4A5D4B06980799FFF781FB002817
:1033B0007AD000225A4B06980799FFF76BFB00283A
:1033C00072D01C9B5B4506DD5A469B1A013B1C9341
:1033D00003E00526DDE700231C938023DB001E9A13
:1033E0001A431E92002600239B461D9B9E4265D2D7
:1033F0009F1B02231E9A1A400A921E9A134202D061
:10340000002E00D000275B46002B07D0089A099BAE
:1034100006980799FFF7E5FA069007910022002326
:1034200020002900FFF736FB002800D07CE03D4B50
:103430001E9A1340049303971C9B0293069B079CC0
:103440000093019453460C9A4946404600F086F892
:10345000002E00D187E71E9B9B0671D54525441C95
:103460005346020049462800C0475A46D317D2188F
:103470005A4005230593013E0496002303930A3323
:1034800002935B46DB0F01930092534622004946AC
:103490004046FFF76CFD0A9B002B00D163E702005A
:1034A00047460C9E1D9D53E01C9B002B9DD00D9B01
:1034B000002B9AD01C9B013B1C9396E7002798E7B2
:1034C000FFFFEF7FFFFFEFFF01FCFFFF0000F03F7A
:1034D000FB799F501344D33FB3C8608B288AC63F03
:1034E0000000F83F61436F63A787D23F71A379095A
:1034F0004F930A400000E03F1655B5BBB16B024048
:10350000EF39FAFE422EE63FFF03000000002C4098
:1035100000002440000018402D431CEBE2361A3F07
:1035200080842E41FFF7FFFF069C079D22002900A3
:1035300080200006844661440B000692079376E7DC
:1035400065258CE7541C534649462020B847220085
:10355000931BAB42F6D3100005E7C046F0B5DE463C
:1035600057464E464546E0B595B0069007919346BE
:103570009946209F1E9A1F9B10001900FFF7A5FA7D
:10358000002831D101225242BC4B1E981F99FFF7EF
:1035900081FA002837D101225242B94B1E981F9957
:1035A000FFF78EFA00283DD10022B64B1E981F99D6
:1035B000FFF786FA00284AD10022B34B1E981F99C4
:1035C000FFF768FA002842D1002200231E981F99B5
:1035D000FFF760FA00284AD100239846229B5B053A
:1035E00000D4B0E0002452E0229B0393219B02937D
:1035F00003230193A54B00934B465A46079906981F
:10360000FFF7D6FB08E1229B0393219B029304233F
:1036100001939F4B00934B465A4607990698FFF734
:10362000C7FBF9E0229B5B070ED59A4B0422229937
:10363000039121990291019200934B465A460799B2
:103640000698FFF7B5FBE7E0934B0322EFE7229BD9
:103650000493219B039302971E9B1F9C009301944C
:103660004B465A4607990698FFF766FDD4E01E9A26
:103670001F9B00200021FFF7AAF91E901F91012334
:103680009846ABE70CAB30221A55013F01341F2C92
:1036900001D8092FF6D81E981F99FFF73FFA0500A9
:1036A000FFF724FA02000B001E981F99FFF78FF90D
:1036B0007A4BFA009B181A685B680A920B93FFF723
:1036C000AAF908900991FFF74DFA0600FFF70AFAE8
:1036D00002000B0008980999FFF779F90890099101
:1036E00000226F4BFFF7ECF900282ED00136300096
:1036F000FFF7F8F902000B000A980B99FFF7D0F9D1
:10370000002801D001350026002F2CD12800FFF71A
:10371000EDF902000B001E981F99FFF758F90600FB
:103720000F0000225E4BFFF7B5F9002846D10022BA
:103730005B4B30003900FFF7C3F900283ED1EB079F
:103740003CD501353AE006274CE70022544B089857
:103750000999FFF79FF90028D6D1002E01D0F30771
:10376000D2D50136D0E7AA461F2C11D8013F0A2135
:103770003000FEF7F1FE651C30310CAB19550A2103
:103780003000FEF7E9FE092E0ED906002C00EBE70B
:1037900055461F2C0CD87B1E002F09D00CAA3021B7
:1037A00011551F000134F4E72B0055461C00F0E7CB
:1037B0001F2C03D80CAB2E221A5501341F2C10D805
:1037C0000A212800FEF7A0FE661C30310CAB19550B
:1037D0000A212800FEF798FE051E01D03400EDE70F
:1037E00034000323229A1340012B1CD01F2C06D82F
:1037F0004346002B32D00CAB2D221A550134229BAC
:103800000393219B029301940CAB00934B465A46C1
:1038100007990698FFF7CCFA15B0F0BCBB46B24644
:10382000A946A046F0BD219B002B13D04346002B98
:1038300002D10C3313420FD0219B013B219319007D
:1038400003E00CAB30221A5501348C42CED21F2C2F
:10385000F7D9CBE72199F8E72199F6E7229B5B0797
:1038600004D50CAB2B221A550134C8E7229B1B0749
:10387000C5D50CAB20221A550134C0E7FFFFEFFF7E
:10388000FFFFEF7F65CDCD4165CDCDC1944E0010DA
:10389000984E0010884E0010904E0010E854001012
:1038A0000000E03FF0B5DE4657464E464546E0B5DF
:1038B00093B007008A4693461193002900D12CE368
:1038C000002508E06C1C5B462A005146B847119B56
:1038D000013311932500119B1878002800D11EE3B5
:1038E0002528EFD1013311930023180020E0012394
:1038F000184301321192012418E0022318430132C7
:103900001192012412E00423184301321192012480
:103910000CE00823184301321192012406E0102321
:10392000184301321192012400E00024002C09D038
:10393000119A1378203BD9B21029F6D88B00C449CC
:10394000CB589F468146119B1A781300303BDBB25F
:10395000092B10D92A2A13D00B94119B1A782E2ADE
:1039600020D0119A1378683BD9B2122965D88B0000
:10397000B849CB589F4611A8FFF708FA0B90ECE71F
:103980001C9B1A1D1C921B68002B04DB0B93119BC4
:1039900001331193E1E702220100114389465B42A2
:1039A0000B93F4E78022D2004946114389465A1C02
:1039B00011925A781300303BDBB2092B0BD92A2A1B
:1039C000CFD11C9B1A1D1C921C68002C08DB119B7C
:1039D00001331193C5E711A8FFF7D8F90400C0E738
:1039E0000024F4E780235B0049460B43511C1191EE
:1039F00051786C2901D099461FE0C0239B004946AD
:103A0000194389460232119217E0802349460B433D
:103A1000511C11915178682901D099460DE0C023BD
:103A20004946194389460232119206E080235B0021
:103A300049461943894601321192119B187867282B
:103A40001CD8252800D25EE20300253BDAB2422AC8
:103A500000D958E29300804AD3589F4680239B00A8
:103A600049461943894601321192E6E780235B00FB
:103A700049461943894601321192DEE7782800D978
:103A800041E2692800D23EE20200693AD2B2012343
:103A90009340724A134210D11A0600D50CE25B051E
:103AA00000D430E21C9B1A1D1C921E68002C00D012
:103AB000BAE101225242330096E16F2842D005D884
:103AC000582841D0622803D1022606E078283DD04C
:103AD00010234A469A4391460A26582838D0692826
:103AE00005D0642803D00C224B46934399464B469D
:103AF0005A0502D501229343994669282DD064289E
:103B00002BD04B469A0500D5AAE0DA0500D5C2E0D5
:103B10005A0600D4D3E01C9A111D1C911168FF2293
:103B20000A404B4605930B9B049303940296002393
:103B3000019300925B462A0051463800FFF717FABE
:103B400005002AE00826C8E71026C6E71026C4E7C5
:103B500020224B4613439946C1E74B469A0520D491
:103B6000DA0551D45A0666D51C9A111D1C911168AC
:103B7000FF220A40D017111841404B4605930B9B7A
:103B8000049303940296D20F019200915B462A009F
:103B900051463800FFF7EBF90500119B01331193F3
:103BA00099E61C9A073207218A43110008311C91BB
:103BB000116853689C46DB170C930D930C9A0D9B70
:103BC000100048400E900D9B61464B400F930E989D
:103BD0000F990C9A0D9B801A99410E900F914B46AC
:103BE00008930B9B07930694049600230593634662
:103BF000DA0F0292009001915B462A00514638008C
:103C0000FFF713FA0500C8E71C9A111D1C911268F2
:103C1000D0171118414005930B9B0493039402960F
:103C2000D20F019200915B462A0051463800FFF7FF
:103C30009EF90500B1E71A0605D51C9A111D1C91C5
:103C40000023D25E96E71C9A111D1C91126891E721
:103C50004C53001090530010DC53001041900000B2
:103C60001C9A073207218A43110008311C910893DE
:103C70000B9B0793069404960023059302935368C5
:103C80001268009201935B462A0051463800FFF704
:103C9000CCF9050081E71C9A111D1C9105930B9B23
:103CA00004930394029600230193136800935B46E8
:103CB0002A0051463800FFF75AF905006DE71A0649
:103CC00006D51C9A111D1C9112681204120C28E7CB
:103CD0001C9A111D1C91126823E746281AD01C9BC0
:103CE0000733072293431A0008321C924A46049273
:103CF0000B9A039202941A685B68009201935B46E8
:103D00002A0051463800FFF729FC0500119B0133BA
:103D10001193E0E520234A461A439146DFE76728DE
:103D200001D0472804D180231B014A461A439146FB
:103D3000452801D0472803D120234A461A439146FB
:103D40001C9B0733072293431A0008321C924A46F1
:103D500004920B9A039202941A685B680092019392
:103D60005B462A0051463800FFF7E6F90500119B33
:103D700001331193AFE502234E461E404A461342DB
:103D80001ED001241C9B1A1D1C926A1C9046187898
:103D90005B462A005146B847002E14D1119B0133CF
:103DA0001193454697E5551C5B4651462020B84780
:103DB00023002A005C1C0B999942F4D81500E1E716
:103DC00001232A00F6E7424606E0561C5B465146B0
:103DD0002020B8472C003200651C0B9BA342F4D86E
:103DE0009046DBE701330A001978002902D0511E02
:103DF000002AF7D19B1B8022D200494611408846F9
:103E00004946114202D0A34200D92300022249466A
:103E10001140109149460A4208D02A0025009946CF
:103E20003B004746984626E0220044E6A1462A0089
:103E30005146B2460E0006E0551C5B46310020207C
:103E4000B84723002A005C1C0B999942F4D815004E
:103E500022004C46330056469A4691462A002500D9
:103E60003B004746984606E01D000136541C5B4661
:103E70005146C04722003078002804D0002FF4D0EB
:103E80006B1E002DF0D115004B464746109A002AB4
:103E900003D1119B013311931DE50B9E2A0006E00F
:103EA000551C5B4651462020B84723002A005C1C65
:103EB0009E42F5D81500ECE721234A461A43130029
:103EC0001C9A111D1C9112680593082304930394F6
:103ED000083302930023019300925B462A00514667
:103EE0003800FFF744F80500119B01331193F2E409
:103EF0006C1C5B462A0051462520B847119B0133B4
:103F000011932500E7E46C1C5B462A005146B84734
:103F1000119B013311932500DDE40A4FD0E45D4588
:103F20000DD35B465A1E5B4651460020B847280019
:103F300013B0F0BCBB46B246A946A046F0BD2A006D
:103F4000F1E7C0467D2D00100EB430B584B00100FD
:103F500007AC08CC03940122054D0094524228007E
:103F6000FFF7A0FC04B030BC08BC03B01847C04643
:103F7000752D001010B584B00C0002A902904C60A1
:103F800001240448009313006242FFF78BFC04B045
:103F900010BDC0467F2D001000BEFDE710B5FFF735
:103FA000FBFF000030B583B00D001900002A0BD0D4
:103FB000074B084C019200932B000200200000F0F8
:103FC00057F90120FFF7E8FF034B1A00F1E7C0465D
:103FD000A04E0010B04E00105845001010B5EFF381
:103FE0000583002B00D000BEFEF79EF9034C01E0D4
:103FF00008CC9847024B9C42FAD310BD3C450010B8
:104000004445001010B50300080011001B689847D4
:1040100010BD0000F8B507000D001600437D002B11
:1040200002D0002400200CE003681100280098470B
:104030002DE03B7D10E03B68154802219847601C4D
:104040000134B44214DA002CF3DD2B19013B1B7848
:104050000D3B5A425341DBB22A5D0A2AF0D1002BB4
:10406000EED1A042E7DA3B68211A28189847E2E728
:10407000B04203DA3B68311A28189847002E06DD53
:10408000AD19013D2B780D3B5A4253413B75F8BDAC
:104090003855001070B505000368002B16D00C4B86
:1040A0001C6805E0290004C92000FFF7B3FF24695C
:1040B000002C09D02368002BF9D0064B1B68002B7D
:1040C000F0D0A342F3D1EDE700232B6070BDC046D2
:1040D000380700203C07002070B505000C000B6875
:1040E000802B05D023685A1C2260E418257170BD0E
:1040F0000800FFF7CFFFF5E710B5FDF793FF074A7C
:10410000002312184B41002B03DB054800F0F0F9A7
:1041100010BD01225242034BF7E7C04640420F0058
:1041200080040020FFFFFF7F10B5024800F0C0F9B7
:1041300010BDC04680040020F0B5CE46474680B58D
:1041400083B006000D0090461C00FFF7D5FF8146A6
:104150006B1C05D0002C08D0184F194B1C6807E0C9
:10416000300000F063F90500F4E7164FF5E7246925
:10417000002C17D02368002BF9D0134B1B68002BA1
:1041800001D0A342F3D12A0031002000B8474346B2
:10419000002BECD06B46D91D0A230B7001222000A6
:1041A000B847E4E74B46002B05D1280003B0C0BC5C
:1041B000B946B046F0BDFFF7B7FFF6E7154000106F
:1041C00038070020054000103C07002010B5064BC2
:1041D0001C6800E02469002C04D06368002BF9D02F
:1041E0009847F7E710BDC0463807002010B500F02B
:1041F0004BF810BD10B582B004006B46D81D04709A
:10420000012300220121FFF797FF200002B010BD1B
:1042100070B5050000F00AF9040001230122010035
:104220002800FFF789FFFFF7D1FF200070BD0000D5
:10423000F0B5A3B004000E00FFF75EFF050001AF6C
:10424000002301930948330022003900FFF792FE52
:1042500004003800FFF71EFFFFF7B8FF002D02D162
:10426000200023B0F0BDFFF75FFFF9E7D940001051
:104270000FB400B583B004A901C90191FFF7D8FFBD
:1042800003B008BC04B018470020704710B50248BE
:1042900000F004F810BDC0469807002070B588B043
:1042A000040004AD0D2200212800FEF757FD0D2269
:1042B00000216846FEF752FD4B232B700D22694604
:1042C000280000F0E5F8002304E05A1D69468A5CE6
:1042D000E2540133072BF8DD08B070BD074B98425C
:1042E0000AD0112301229A40054B1A60054B1B6826
:1042F00011009943FAD170471023F3E700C003403F
:1043000000F0004008C00040F8B5DE4657464E4673
:104310004546E0B581460E000620FDF715FF8046B4
:104320004B465A6802231A40934604224A44924656
:10433000214A4A441360022400E00234FE2C1AD8B9
:1043400000252002320000230021FEF79BFC0029FB
:1043500003D1A942F1D14045EFD980277F00012F39
:104360000CD97D1E210069434046FEF7F5F8B042A6
:1043700004D82F00F3E780277F00F0E74B461C614D
:104380007A1E12021B685A40FF231B021A40802328
:104390005B014B441A6080239B0153445A461A60C8
:1043A000390061434046FEF7D7F8F0BCBB46B24641
:1043B000A946A046F8BDC0460430000070B5040010
:1043C0000D00154B984224D0112201239340134A2B
:1043D00013602000FFF782FF29002000FFF794FF01
:1043E000626802231A400E4961180B602568072194
:1043F0004D40C831294080256D0165192960094962
:1044000061180A60084A94466444032222600B60E3
:1044100070BD1022D9E7C04600C0034000E0004054
:1044200004300000042000002420000010B58307A1
:104430000AD00300032102E001330B4205D01A78B1
:10444000002AF9D1181A10BD030019680C4A0D4C46
:104450008A188A4322420FD15968094A04338A18BC
:104460008A43224208D15968054A04338A188A438C
:104470002242F1D000E001331A78002AFBD1E1E7B3
:10448000FFFEFEFE80808080F8B5C0460000000080
:1044900001B40248844601BC604700BFB902002055
:1044A00001B40248844601BC604700BFDF0300201E
:1044B00001B40248844601BC604700BFCD01002022
:1044C00001B40248844601BC604700BF1D040020BF
:1044D00001B40248844601BC604700BF1D040020AF
:1044E00001B40248844601BC604700BFA503002018
:1044F00001B40248844601BC604700BF9901002016
:104500003923001065230010F92400104D2D0010F0
:10451000812B0010C52C00102D24001081230010C9
:10452000A1230010B5230010A1170010BD23001017
:10453000AD1F001025230010A91600108D42001099
:04454000B1020010B4
:1045480043617264206465746563746564210A0D4F
:104558000000000048692C5468657265000000007E
:10456800556E6B6E6F776E206572726F7200000009
:104578004572726F7220696E20636F6D6D756E691A
:10458800636174696F6E2E00436F6C6C6973696F39
:104598006E2064657465637465642E0054696D6586
:1045A8006F757420696E20636F6D6D756E696361D8
:1045B80074696F6E2E000000412062756666657230
:1045C800206973206E6F742062696720656E6F754D
:1045D80067682E00496E7465726E616C2065727230
:1045E8006F7220696E2074686520636F64652E2081
:1045F80053686F756C64206E6F74206861707065A5
:104608006E2E0000496E76616C6964206172677570
:104618006D656E742E000000546865204352435F38
:104628004120646F6573206E6F74206D61746368D8
:104638002E00000041204D49464152452050494333
:104648004320726573706F6E64656420776974685F
:10465800204E414B2E00000054686520736563743A
:104668006F722F626C6F636B206973206F666620B0
:104678006C696D69747320746F206F7665727772D8
:1046880069746500537563636573732E00000000D9
:10469800556E6B6E6F776E20747970650000000040
:1046A8005049434320636F6D706C69616E74207765
:1046B8006974682049534F2F4945432031383039B0
:1046C8003220284E464329004D4946415245204D47
:1046D800696E692C2033323020627974657300006A
:1046E8004D494641524520314B4200004D49464113
:1046F800524520344B4200004D4946415245205511
:104708006C7472616C69676874206F7220556C7480
:1047180072616C6967687420430000004D49464126
:10472800524520506C7573004D49464152452054FE
:104738004E5033585858000053414B20696E6469F5
:10474800636174657320554944206973206E6F74E2
:1047580020636F6D706C6574652E0000504943438B
:1047680020636F6D706C69616E742077697468205E
:1047780049534F2F4945432031343434332D3400C5
:104788004669726D776172652056657273696F6EDE
:104798003A20307800000000253032580000000030
:1047A800203D2028636C6F6E65290D00203D207622
:1047B800302E300D00000000203D2076312E300DC7
:1047C80000000000203D2076322E300D0000000051
:1047D800203D2028756E6B6E6F776E290D000000E6
:1047E8005741524E494E473A20436F6D6D756E6979
:1047F800636174696F6E206661696C7572652C20DF
:10480800697320746865204D4652433532322070F2
:10481800726F7065726C7920636F6E6E6563746514
:10482800643F0D0043617264205549443A0000001A
:1048380020300000436172642053414B3A2000004D
:10484800205049434320747970653A2000000000E5
:104858002020000025750000202020202020200096
:104868005043445F41757468656E7469636174652B
:104878002829206661696C65643A20004D494641E3
:1048880052455F526561642829206661696C6564D8
:104898003A200000205B2000205D200020496E7631
:1048A80065727465642061636365737320626974FB
:1048B8007320646964206E6F74206D61746368216D
:1048C800200000002056616C75653D3078000000BE
:1048D800204164723D307800536563746F722042E2
:1048E8006C6F636B20202030202031202032202064
:1048F8003320202034202035202036202037202047
:1049080020382020392031302031312031322031F7
:10491800332031342031352020416363657373427D
:104928006974730D00000000506167652020302015
:1049380020312020322020330D00000044756D7096
:10494800696E67206D656D6F727920636F6E74652F
:104958006E7473206E6F7420696D706C656D656E12
:1049680074656420666F72207468617420504943CE
:104978004320747970652E0D000000000A2A2A2A47
:104988002050414E4943202A2A2A0A000A000000E2
:1049980030783163203D3D20282A696E7374293EA2
:1049A8003E31317500000000433A2F55736572732C
:1049B8002F74726176692F2E7069636F2D73646B23
:1049C8002F73646B2F322E322E302F7372632F7237
:1049D80070325F636F6D6D6F6E2F6861726477619F
:1049E80072655F6972712F6972712E630000000031
:1049F80063757272656E74203D3D205F5F756E68E9
:104A0800616E646C65645F757365725F697271204D
:104A18007C7C2063757272656E74203D3D206861F0
:104A28006E646C657200000031203D3D2028756978
:104A38006E747074725F74296C2D3E7370696E5F4A
:104A48006C6F636B00000000433A2F5573657273F7
:104A58002F74726176692F2E7069636F2D73646B82
:104A68002F73646B2F322E322E302F7372632F63A5
:104A78006F6D6D6F6E2F7069636F5F73796E632FE3
:104A88006D757465782E6300746F74616C00000036
:104A98006D74782D3E636F72652E7370696E5F6CEE
:104AA8006F636B006C6F636B5F69735F6F776E65C5
:104AB800725F69645F76616C6964286D74782D3EF5
:104AC8006F776E65722900006D74782D3E656E747F
:104AD80065725F636F756E7400000000706F6F6CB5
:104AE8002D3E74696D65725F616C61726D5F6E7584
:104AF8006D203D3D2074696D65725F616C61726DFA
:104B08005F6E756D00000000433A2F557365727330
:104B18002F74726176692F2E7069636F2D73646BC1
:104B28002F73646B2F322E322E302F7372632F63E4
:104B38006F6D6D6F6E2F7069636F5F74696D652F30
:104B480074696D652E63000064656661756C745FD9
:104B5800616C61726D5F706F6F6C5F696E697469AB
:104B6800616C697A656428290000000041747465E5
:104B78006D7074656420746F20736C65657020694E
:104B88006E73696465206F6620616E206578636561
:104B98007074696F6E2068616E646C65723B207515
:104BA800736520627573795F77616974206966201F
:104BB800796F75206D757374000000004861726428
:104BC8007761726520616C61726D20256420616C6B
:104BD800726561647920636C61696D6564000000C9
:104BE80076636F5F66726571203E3D205049434F82
:104BF8005F504C4C5F56434F5F4D494E5F465245A0
:104C0800515F485A2026262076636F5F6672657169
:104C1800203C3D205049434F5F504C4C5F56434F1A
:104C28005F4D41585F465245515F485A00000000A9
:104C3800433A2F55736572732F74726176692F2EFC
:104C48007069636F2D73646B2F73646B2F322E3210
:104C58002E302F7372632F7270325F636F6D6D6FBA
:104C68006E2F68617264776172655F706C6C2F700B
:104C78006C6C2E63000000006662646976203E3D1D
:104C8800203136202626206662646976203C3D2045
:104C98003332300028706F73745F64697631203E58
:104CA8003D203120262620706F73745F6469763149
:104CB800203C3D2037292026262028706F73745FFA
:104CC80064697632203E3D203120262620706F739D
:104CD800745F64697632203C3D203729000000006B
:104CE8007265665F66726571203C3D202876636F49
:104CF8005F66726571202F20313629006D697373E4
:104D0800696E6720646F75626C652066756E637482
:104D1800696F6E002A282875696E74385F74202AB6
:104D280029282828766F6964202A29726F6D5F7494
:104D380061626C655F666C6F6174292D3229292068
:104D48002A2034203E3D2053465F5441424C455F63
:104D580056325F53495A4500433A2F55736572736B
:104D68002F74726176692F2E7069636F2D73646B6F
:104D78002F73646B2F322E322E302F7372632F7283
:104D880070325F636F6D6D6F6E2F7069636F5F64F4
:104D98006F75626C652F646F75626C655F696E69AB
:104DA800745F726F6D5F7270323034302E63000042
:104DB8002A282875696E74385F74202A29726F6DE5
:104DC8005F7461626C652D3229202A2034203E3DB3
:104DD8002053465F5441424C455F56325F53495A0F
:104DE80045000000433A2F55736572732F74726142
:104DF80076692F2E7069636F2D73646B2F73646BE4
:104E08002F322E322E302F7372632F7270325F63FF
:104E18006F6D6D6F6E2F7069636F5F666C6F617415
:104E28002F666C6F61745F696E69745F726F6D5F16
:104E38007270323034302E630000000044656275B1
:104E480067000000626F6F74325F773235713038F7
:104E580030000000302E3100322E322E300000009B
:104E68007069636F5F770000436F6E74726F6C6C6C
:104E7800657200004F6374203238203230323500BA
:104E8800666E692B00000000666E69006E616E0038
:104E9800666E692D000000002C2066756E637469CB
:104EA8006F6E3A2000000000617373657274696F59
:104EB8006E2022257322206661696C65643A20663B
:104EC800696C6520222573222C206C696E6520256B
:104ED80064257325730A0000636F6E6E6563745FE3
:104EE800696E7465726E616C5F666C6173685F662B
:104EF800756E6320262620666C6173685F65786925
:104F0800745F7869705F66756E6320262620666C0C
:104F18006173685F666C7573685F63616368655F1A
:104F280066756E6320262620666C6173685F656E01
:104F38007465725F636D645F7869705F66756E63D0
:104F480000000000433A2F55736572732F74726125
:104F580076692F2E7069636F2D73646B2F73646B82
:104F68002F322E322E302F7372632F7270325F639E
:104F78006F6D6D6F6E2F68617264776172655F66C1
:104F88006C6173682F666C6173682E6300000000A3
:104F9800666C6173685F6F666673202B20636F753C
:104FA8006E74203C3D205049434F5F464C41534866
:104FB8005F53495A455F425954455300636F6E6EBB
:104FC8006563745F696E7465726E616C5F666C614F
:104FD80073685F66756E6320262620666C61736849
:104FE8005F657869745F7869705F66756E6320269F
:104FF8002620666C6173685F72616E67655F6572B3
:105008006173655F66756E6320262620666C617322
:10501800685F666C7573685F63616368655F667512
:105028006E630000636F6E6E6563745F696E7465AE
:10503800726E616C5F666C6173685F66756E632023
:10504800262620666C6173685F657869745F786985
:10505800705F66756E6320262620666C6173685FD4
:1050680072616E67655F70726F6772616D5F66759A
:105078006E6320262620666C6173685F666C7573A4
:10508800685F63616368655F66756E630000000052
:10509800636F6E6E6563745F696E7465726E616C62
:1050A8005F666C6173685F66756E6320262620668E
:1050B8006C6173685F657869745F7869705F66753D
:1050C8006E6320262620666C6173685F666C757354
:1050D800685F63616368655F66756E630000000002
:1050E8001E0E00104A0E00102A0E00102E0E001080
:1050F800320E0010360E00103A0E00103E0E001050
:10510800420E0010A00E0010A80E0010B40E0010E1
:10511800B40E0010940E0010B40E0010B40E00105F
:10512800B40E0010980E0010B80E0010B40E001047
:10513800B40E0010B40E0010B40E0010B40E00101F
:10514800B40E0010A40E0010A40E0010B40E00102F
:10515800B40E0010B40E0010B40E0010B40E0010FF
:10516800B40E00109C0E0010B40E0010B40E001007
:10517800B40E0010B40E0010B40E0010B40E0010DF
:10518800B40E0010AC0E0010B40E0010B40E0010D7
:10519800B40E0010B40E0010B40E0010B40E0010BF
:1051A800B40E0010B40E0010B40E0010B40E0010AF
:1051B800B40E0010B40E0010B40E0010B40E00109F
:1051C800B40E0010B40E0010B40E0010B40E00108F
:1051D800B40E0010B40E0010B40E0010B40E00107F
:1051E800B40E0010B40E0010B40E0010B40E00106F
:1051F800B40E0010B40E0010B40E0010B40E00105F
:10520800B40E0010B00E0010D80E0010D40E00100E
:10521800000F0010E40E0010E80E0010EC0E001055
:10522800F00E0010F40E0010F80E00106972715F95
:105238007365745F6578636C75736976655F6861BB
:105248006E646C65720000006D757465785F6578D2
:10525800697400006D757465785F656E7465725F5A
:10526800626C6F636B5F756E74696C0072756E74D7
:10527800696D655F696E69745F6D75746578000046
:10528800616C61726D5F706F6F6C5F6765745F648E
:10529800656661756C740000616C61726D5F706F3A
:1052A8006F6C5F6972715F68616E646C6572000033
:1052B800706C6C5F696E6974000000005F5F616507
:1052C8006162695F646F75626C655F696E697400BD
:1052D8005F5F61656162695F666C6F61745F696E6B
:1052E8006974000006005250D3F07542444E001015
:1052F80006005250E182887F4C4E00100600525042
:105308003ABCA9115C4E001006005250ABB3605372
:10531800604E001006005250BBFF3CB6684E0010AD
:1053280006005250861C0302704E001006005250B0
:105338005422A29D7C4E001005005250DE65F46890
:1053480034590010123900102A3900102A39001077
:105358001E3900102A3900102A3900102A39001085
:105368002A3900102A3900102A3900102A39001069
:10537800063900102A390010FA3800102A390010AE
:105388002A390010EE3800100A3A00103A3A001094
:105398005C3A00103A3A0010E43900103A3A00102A
:1053A8003A3A00103A3A00103A3A00103A3A0010E5
:1053B8003A3A00103A3A00102C3A00103A3A0010E3
:1053C8003A3A00103A3A00103A3A00103A3A0010C5
:1053D8006C3A0010F03E0010063F0010063F001027
:1053E800063F0010063F0010063F0010063F001061
:1053F800063F0010063F0010063F0010063F001051
:10540800063F0010063F0010063F0010063F001040
:10541800063F0010063F0010063F0010063F001030
:10542800063F0010063F0010063F0010063F001020
:10543800063F0010063F0010063F0010063F001010
:10544800063F0010063F0010063F0010063F001000
:10545800063F00101E3D0010DA3C00101E3D0010F3
:10546800063F0010063F0010063F0010063F0010E0
:10547800063F0010063F0010063F0010063F0010D0
:10548800063F0010063F0010063F0010063F0010C0
:10549800063F0010063F0010063F0010063F0010B0
:1054A800BA3A0010063F0010063F0010063F0010F1
:1054B800063F0010063F0010063F0010063F001090
:1054C800063F0010063F0010BA3A0010763D001063
:1054D800BA3A00101E3D0010DA3C00101E3D0010C4
:1054E800000000000000F03F000000000000244021
:1054F80000000000000059400000000000408F40FC
:10550800000000000088C34000000000006AF84066
:105518000000000080842E4100000000D01263418A
:105528000000000084D797410000000065CDCD4100
:105538000D0A0000666C6173685F646F5F636D6479
:04554800000000005F
:10554C00EC520010F85200100453001010530010CD
:10555C001C530010285300103453001040530010FB
:10556C0010B503000468EFF3108272B620680028AF
:10557C00FCD0BFF35F8F0420185600280BDB0029EA
:10558C0010D0086000201B68BFF35F8F00211960EA
:10559C0082F3108810BDD0210906097849B219711F
:1055AC000120F0E70020EEE7F0B5D6464F46464620
:1055BC00C0B50500904699460368002B20D0D02337
:1055CC001B061B785BB29A462F68EFF3108472B6F9
:1055DC003E68002EFCD0BFF35F8F0423EB56002BEC
:1055EC0014DB2B68BFF35F8F00221A6084F31088E2
:1055FC004046494600F064F90028E5D000200FE051
:10560C000A4B0B4A0B48A62100F062F953462B714A
:10561C002B68BFF35F8F00221A6084F3108801207F
:10562C00E0BCBA46B146A846F0BDC046984A001048
:10563C005C520010504A001070B582B00600150084
:10564C001C0001A9FFF78CFF002807D1019B5BB25E
:10565C00D0221206127852B2934201D102B070BD20
:10566C002A0023003000FFF79FFFF7E710B5016811
:10567C00EFF3108372B60A68002AFCD0BFF35F8F79
:10568C0004228256002A0ADBFF2202710268BFF351
:10569C005F8F0021116083F3108840BF10BD034B56
:1056AC00034A0448D52100F013F9C046AC4A001057
:1056BC0050520010504A0010094B1B78002B08D098
:1056CC000CE09A0080214905511808680549505092
:1056DC0001333F2BF5DD024B01221A707047C04697
:1056EC00A80900200C06002010B5014B984710BDEE
:1056FC000D060020002305E09A0004495118496862
:10570C0011500133052BF7D97047C04600000240F9
:10571C0010B5002206E093001958044CA4466344CB
:10572C0059600132052AF6D910BDC046000002406E
:10573C0000280AD003231B02054A12685340C022DA
:10574C0092001340034A136070470223F3E7C046EC
:10575C000C8001400C900140F0B5D6464F464646B1
:10576C00C0B586B007000E00150018239A461B889A
:10577C001422904610882D499847814653461B8821
:10578C00424610882A499847040053461B884246D3
:10579C0010882849984780464B46002B0FD0002C88
:1057AC000DD000280BD0FFF787FF6846FFF7A2FF4C
:1057BC00C847A0470020FFF7BBFF2A0010E01E4B94
:1057CC001E4A8A211E48490000F082F8002B07D09F
:1057DC00002A05D0C0235B051B6E3370013A0136DD
:1057EC002B00134312D0C0235B059C6A0823234073
:1057FC00A407EBD5002DE9D0511B0D29E6D838783C
:10580C00C02149050866013D0137DFE70120FFF79C
:10581C008FFFC047FFF768FF6846FFF779FF06B0B8
:10582C00E0BCBA46B146A846F0BDC04649460000A9
:10583C004558000046430000985000103C5500109D
:10584C004C4F001010B504001000002205E0E36876
:10585C009B07FCD58B5CA36001328242F7D300E03E
:10586C00A368E3685B07FBD4E368DB06FCD400E0C9
:10587C00A368E3685B07FBD40123236210BDF0B57A
:10588C00070018001D001C0008E0002C06D0FE6864
:10589C00760703D5BB681370013C013226002E43FA
:1058AC000BD0002DF1D0FE68B607EED52B000833D7
:1058BC00A342EAD9B960013DE7E7F0BD7047C046A5
:1058CC0001B40248844601BC604700BF891E001029
:1058DC0001B40248844601BC604700BFA53F0010DC
:1058EC00FFFFFFFFFFFF10000000000000000000A2
:1058FC0000000000000000000000000088040020F0
:10590C00503300004C33000054330000523300007D
:10591C004D5300004D43000053340000433400004D
:08592C00000000000000000073
:04000005100001E9FD
:00000001FF
